{
  "transactions": [
    {
      "hash": "0xe85e1c5f5b2f35aa8025bab90f0b2e3fd0dca08abb480e77382350e6966899ad",
      "transactionType": "CREATE",
      "contractName": "MockERC20",
      "contractAddress": "0x09ca53f2be56da320bc4be56c3a9fb61f4d9fed4",
      "function": null,
      "arguments": [
        "USD Coin",
        "USDC",
        "6"
      ],
      "transaction": {
        "from": "0x39053b170bbd9580d0b86e8317c685aefb65f1ec",
        "gas": "0xde10c",
        "value": "0x0",
        "input": "0x60e0806040523461040657610f56803803809161001c828561040a565b83398101906060818303126104065780516001600160401b038111610406578261004791830161042d565b60208201519092906001600160401b0381116104065760409161006b91840161042d565b91015160ff811681036104065782516001600160401b038111610337576100925f54610482565b601f81116103b7575b506020601f821160011461035657819293945f9261034b575b50508160011b915f199060031b1c1916175f555b81516001600160401b038111610337576100e3600154610482565b601f81116102d4575b50602092601f821160011461027357928192935f92610268575b50508160011b915f199060031b1c1916176001555b6080524660a0526040515f905f54918161013484610482565b9182825260208201946001811690815f1461024c5750600114610202575b61015e9250038261040a565b51902060405160208101917f8b73c3c69bb8fe3d512ecc4cf759cc79239f7b179b0ffacaa9a75d522b39400f835260408201527fc89efdaa54c0f20c7adf612882df0950f5a951637e0307cdcb4c672f298b8bc660608201524660808201523060a082015260a081526101d260c08261040a565b51902060c052604051610a7b90816104bb8239608051816105e3015260a051816108e3015260c051816109090152f35b505f80805290915f80516020610f368339815191525b81831061023057505090602061015e92820101610152565b6020919350806001915483858801015201910190918392610218565b60ff191686525061015e92151560051b82016020019050610152565b015190505f80610106565b601f1982169360015f52805f20915f5b8681106102bc57508360019596106102a4575b505050811b0160015561011b565b01515f1960f88460031b161c191690555f8080610296565b91926020600181928685015181550194019201610283565b60015f527fb10e2d527612073b26eecdfd717e6a320cf44b4afac2b0732d9fcbe2b7fa0cf6601f830160051c8101916020841061032d575b601f0160051c01905b81811061032257506100ec565b5f8155600101610315565b909150819061030c565b634e487b7160e01b5f52604160045260245ffd5b015190505f806100b4565b601f198216905f8052805f20915f5b81811061039f57509583600195969710610387575b505050811b015f556100c8565b01515f1960f88460031b161c191690555f808061037a565b9192602060018192868b015181550194019201610365565b5f80525f80516020610f36833981519152601f830160051c810191602084106103fc575b601f0160051c01905b8181106103f1575061009b565b5f81556001016103e4565b90915081906103db565b5f80fd5b601f909101601f19168101906001600160401b0382119082101761033757604052565b81601f82011215610406578051906001600160401b0382116103375760405192610461601f8401601f19166020018561040a565b8284526020838301011161040657815f9260208093018386015e8301015290565b90600182811c921680156104b0575b602083101461049c57565b634e487b7160e01b5f52602260045260245ffd5b91607f169161049156fe60806040526004361015610011575f80fd5b5f3560e01c806306fdde031461076d578063095ea7b3146106f457806318160ddd146106d757806323b872dd14610607578063313ce567146105ca5780633644e515146105a857806340c10f191461053057806370a08231146104f85780637ecebe00146104c057806395d89b41146103e65780639dc29fac14610386578063a9059cbb14610311578063d505accf146101075763dd62ed3e146100b3575f80fd5b34610103576040366003190112610103576100cc6108a7565b6100d46108bd565b6001600160a01b039182165f908152600460209081526040808320949093168252928352819020549051908152f35b5f80fd5b346101035760e0366003190112610103576101206108a7565b6101286108bd565b6044356064359260843560ff8116809103610103574285106102cc5760805f916020936101536108e0565b9060018060a01b03169687855260058652604085209889549960018b01905560405190878201927f6e71edae12b1b97f4d1f60370fef10105fa2faae0126114a169c64845d6126c984528a604084015260018060a01b03169a8b6060840152898784015260a083015260c082015260c081526101d060e082610847565b519020604051908682019261190160f01b845260228301526042820152604281526101fc606282610847565b519020906040519182528482015260a435604082015260c435606082015282805260015afa156102c1575f516001600160a01b0316801515806102b8575b15610282577f8c5be1e5ebec7d5bd14f71427d1e84f3dd0314c0f7b2291e5b200ac8c7c3b925916020915f526004825260405f20855f5282528060405f2055604051908152a3005b60405162461bcd60e51b815260206004820152600e60248201526d24a72b20a624a22fa9a4a3a722a960911b6044820152606490fd5b5082811461023a565b6040513d5f823e3d90fd5b60405162461bcd60e51b815260206004820152601760248201527f5045524d49545f444541444c494e455f455850495245440000000000000000006044820152606490fd5b346101035760403660031901126101035761032a6108a7565b60243590335f52600360205260405f206103458382546108d3565b905560018060a01b031690815f52600360205260405f208181540190556040519081525f80516020610a5b83398151915260203392a3602060405160018152f35b34610103576040366003190112610103575f6103a06108a7565b5f80516020610a5b83398151915260206024359260018060a01b03169283855260038252604085206103d38282546108d3565b90558060025403600255604051908152a3005b34610103575f366003190112610103576040515f6001546104068161080f565b808452906001811690811561049c575060011461043e575b61043a8361042e81850382610847565b6040519182918261087d565b0390f35b60015f9081527fb10e2d527612073b26eecdfd717e6a320cf44b4afac2b0732d9fcbe2b7fa0cf6939250905b8082106104825750909150810160200161042e61041e565b91926001816020925483858801015201910190929161046a565b60ff191660208086019190915291151560051b8401909101915061042e905061041e565b34610103576020366003190112610103576001600160a01b036104e16108a7565b165f526005602052602060405f2054604051908152f35b34610103576020366003190112610103576001600160a01b036105196108a7565b165f526003602052602060405f2054604051908152f35b34610103576040366003190112610103576105496108a7565b60243590600254908282018092116105945760205f80516020610a5b833981519152915f9360025560018060a01b0316938484526003825260408420818154019055604051908152a3005b634e487b7160e01b5f52601160045260245ffd5b34610103575f3660031901126101035760206105c26108e0565b604051908152f35b34610103575f36600319011261010357602060405160ff7f0000000000000000000000000000000000000000000000000000000000000000168152f35b34610103576060366003190112610103576106206108a7565b6106286108bd565b6001600160a01b039091165f818152600460209081526040808320338452825290912054604435935f80516020610a5b833981519152929185600182016106b2575b5050835f526003825260405f206106828682546108d3565b90556001600160a01b03165f818152600383526040908190208054870190555194855293a3602060405160018152f35b6106bb916108d3565b5f8581526004845260408082203383528552902055858561066a565b34610103575f366003190112610103576020600254604051908152f35b346101035760403660031901126101035761070d6108a7565b335f8181526004602090815260408083206001600160a01b03909516808452948252918290206024359081905591519182527f8c5be1e5ebec7d5bd14f71427d1e84f3dd0314c0f7b2291e5b200ac8c7c3b92591a3602060405160018152f35b34610103575f366003190112610103576040515f805461078c8161080f565b808452906001811690811561049c57506001146107b35761043a8361042e81850382610847565b5f8080527f290decd9548b62a8d60345a988386fc84ba6bc95484008f6362f93160ef3e563939250905b8082106107f55750909150810160200161042e61041e565b9192600181602092548385880101520191019092916107dd565b90600182811c9216801561083d575b602083101461082957565b634e487b7160e01b5f52602260045260245ffd5b91607f169161081e565b90601f8019910116810190811067ffffffffffffffff82111761086957604052565b634e487b7160e01b5f52604160045260245ffd5b602060409281835280519182918282860152018484015e5f828201840152601f01601f1916010190565b600435906001600160a01b038216820361010357565b602435906001600160a01b038216820361010357565b9190820391821161059457565b467f00000000000000000000000000000000000000000000000000000000000000000361092b577f000000000000000000000000000000000000000000000000000000000000000090565b6040515f905f54918161093d8461080f565b9182825260208201946001811690815f14610a3e57506001146109e1575b61096792500382610847565b51902060405160208101917f8b73c3c69bb8fe3d512ecc4cf759cc79239f7b179b0ffacaa9a75d522b39400f835260408201527fc89efdaa54c0f20c7adf612882df0950f5a951637e0307cdcb4c672f298b8bc660608201524660808201523060a082015260a081526109db60c082610847565b51902090565b505f80805290917f290decd9548b62a8d60345a988386fc84ba6bc95484008f6362f93160ef3e5635b818310610a225750509060206109679282010161095b565b6020919350806001915483858801015201910190918392610a0a565b60ff191686525061096792151560051b8201602001905061095b56feddf252ad1be2c89b69c2b068fc378daa952ba7f163c4a11628f55a4df523b3ef290decd9548b62a8d60345a988386fc84ba6bc95484008f6362f93160ef3e563000000000000000000000000000000000000000000000000000000000000006000000000000000000000000000000000000000000000000000000000000000a00000000000000000000000000000000000000000000000000000000000000006000000000000000000000000000000000000000000000000000000000000000855534420436f696e00000000000000000000000000000000000000000000000000000000000000000000000000000000000000000000000000000000000000045553444300000000000000000000000000000000000000000000000000000000",
        "nonce": "0xb2",
        "chainId": "0xaa36a7"
      },
      "additionalContracts": [],
      "isFixedGasLimit": false
    },
    {
      "hash": "0xdf3c25f5d3aa083fdfc2172e77763c6a2b2e9abaa941910707633020ee0f6ddc",
      "transactionType": "CALL",
      "contractName": "MockERC20",
      "contractAddress": "0x09ca53f2be56da320bc4be56c3a9fb61f4d9fed4",
      "function": "mint(address,uint256)",
      "arguments": [
        "0x99ecA80b4Ebf8fDACe6627BEcb75EF1e620E6956",
        "100000000000000"
      ],
      "transaction": {
        "from": "0x39053b170bbd9580d0b86e8317c685aefb65f1ec",
        "to": "0x09ca53f2be56da320bc4be56c3a9fb61f4d9fed4",
        "gas": "0x16f87",
        "value": "0x0",
        "input": "0x40c10f1900000000000000000000000099eca80b4ebf8fdace6627becb75ef1e620e695600000000000000000000000000000000000000000000000000005af3107a4000",
        "nonce": "0xb3",
        "chainId": "0xaa36a7"
      },
      "additionalContracts": [],
      "isFixedGasLimit": false
    },
    {
      "hash": "0x1c11725706d3a86130256b77dc951be7bd8e30762a77b6b4103834b457aaff5f",
      "transactionType": "CALL",
      "contractName": "MockERC20",
      "contractAddress": "0x09ca53f2be56da320bc4be56c3a9fb61f4d9fed4",
      "function": "mint(address,uint256)",
      "arguments": [
        "0x5C87eA705eE49a96532F45f5db606A5f5fEF9780",
        "100000000000000"
      ],
      "transaction": {
        "from": "0x39053b170bbd9580d0b86e8317c685aefb65f1ec",
        "to": "0x09ca53f2be56da320bc4be56c3a9fb61f4d9fed4",
        "gas": "0x12375",
        "value": "0x0",
        "input": "0x40c10f190000000000000000000000005c87ea705ee49a96532f45f5db606a5f5fef978000000000000000000000000000000000000000000000000000005af3107a4000",
        "nonce": "0xb4",
        "chainId": "0xaa36a7"
      },
      "additionalContracts": [],
      "isFixedGasLimit": false
    },
    {
      "hash": "0x11f8c6d661de10e12d1324ba9170c63d5ee61a4322dac8dd24e724ddca47649c",
      "transactionType": "CALL",
      "contractName": "MockERC20",
      "contractAddress": "0x09ca53f2be56da320bc4be56c3a9fb61f4d9fed4",
      "function": "mint(address,uint256)",
      "arguments": [
        "0x39053B170bBD9580d0b86e8317c685aEFB65f1ec",
        "100000000000000"
      ],
      "transaction": {
        "from": "0x39053b170bbd9580d0b86e8317c685aefb65f1ec",
        "to": "0x09ca53f2be56da320bc4be56c3a9fb61f4d9fed4",
        "gas": "0x12375",
        "value": "0x0",
        "input": "0x40c10f1900000000000000000000000039053b170bbd9580d0b86e8317c685aefb65f1ec00000000000000000000000000000000000000000000000000005af3107a4000",
        "nonce": "0xb5",
        "chainId": "0xaa36a7"
      },
      "additionalContracts": [],
      "isFixedGasLimit": false
    },
    {
      "hash": "0x433349f2aa7fc29c2b2224e916009e44b31097b80d09d0897a3cf1995a8be3fc",
      "transactionType": "CREATE2",
      "contractName": "Escrow",
      "contractAddress": "0x863065b20281eaf1d9ad878ff49bd5c8ec33cd60",
      "function": null,
      "arguments": [
        "0x9d8A62f656a8d1615C1294fd71e9CFb3E4855A4F",
        "0x9d8A62f656a8d1615C1294fd71e9CFb3E4855A4F",
        "[0x7b79995e5f793A07Bc00c21412e50Ecae098E7f9, 0x947982FbF3bce76a2ea27797f992d388F7AdD44E, 0x09ca53f2Be56Da320Bc4Be56C3A9FB61f4D9fED4]",
        "0",
        "500"
      ],
      "transaction": {
        "from": "0x39053b170bbd9580d0b86e8317c685aefb65f1ec",
        "to": "0x4e59b44847b379578588920ca78fbf26c0b4956c",
        "gas": "0x2ca1ce",
        "value": "0x0",
        "input": "0x73616c740000000000000000000000000000000000000000000000000000000060c0806040523461030357612427803803809161001c828561031b565b833981019060a081830312610303576100348161033e565b906100416020820161033e565b60408201519091906001600160401b0381116103035781019380601f86011215610303578451946001600160401b038611610307578560051b906040519661008c602084018961031b565b875260208088019282010192831161030357602001905b8282106102eb575050506060810151608091909101515f80546001600160a01b0319166001600160a01b03909516948517815590939081907f8be0079c531659141344cd1fd0a4f28419497f9722a3daafe3b4186f6b6457e08180a360405161010d60408261031b565b600b815260208101906a496e76616c69642046656560a81b82526103e884116102b057505060018060a01b0319600c541617600c55600b554660805260405161015760408261031b565b6006815265457363726f7760d01b602090910152604080517fb9bc528025c382c0c8143814a1df5b62366b6d562d71f58bf61651b823f980949161019b908261031b565b600181526020810190603160f81b82525190206040519060208201927f8b73c3c69bb8fe3d512ecc4cf759cc79239f7b179b0ffacaa9a75d522b39400f8452604083015260608201524660808201523060a082015260a081526101ff60c08261031b565b51902060a052600580546001600160a01b0319166001600160a01b0392909216919091179055600d555f5b815181101561028f576001906102526001600160a01b0361024b8386610352565b511661037a565b50818060a01b036102638285610352565b51167f6a65f90b1a644d2faac467a21e07e50e3f8fa5846e26231d30ae79a417d3d2625f80a20161022a565b60405161204f90816103d882396080518161185b015260a051816119150152f35b60449060405192839162461bcd60e51b8352602060048401525180918160248501528484015e5f828201840152601f01601f19168101030190fd5b602080916102f88461033e565b8152019101906100a3565b5f80fd5b634e487b7160e01b5f52604160045260245ffd5b601f909101601f19168101906001600160401b0382119082101761030757604052565b51906001600160a01b038216820361030357565b80518210156103665760209160051b010190565b634e487b7160e01b5f52603260045260245ffd5b805f52600260205260405f2054155f146103d2576001546801000000000000000081101561030757600181018060015581101561036657819060015f5260205f200155600154905f52600260205260405f2055600190565b505f9056fe6080806040526004361015610012575f80fd5b5f3560e01c9081630601e112146116235750806306f1305614611606578063077891f91461159457806309245d8514610fa95780631c88705d14610f0b578063238ac93314610ee35780632dabbeed14610ec75780632dfdf0b514610eaa57806335659fb814610e8d578063363cb34d14610ddc5780634690484014610db45780634f63e76714610d1a5780635725748c14610cc05780636b0509b114610c865780636c19e78314610c0d5780636d4a450a14610beb578063722ae65614610b3a57806373de68da14610791578063775c37e1146107075780638da5cb5b146106e0578063b02c43d014610647578063b26f8303146105fe578063b5af090f146105bc578063bf3506c11461057f578063c0417e58146104f4578063c0a0e1041461047d578063c26aaba114610445578063c94f917a146103ed578063d4a2f40b146103a2578063d55be8c614610386578063e26f790014610287578063e74b981b146102005763f2fde38b14610187575f80fd5b346101fc5760203660031901126101fc576101a061163d565b5f54906101b7336001600160a01b038416146117e1565b60018060a01b031680916bffffffffffffffffffffffff60a01b16175f55337f8be0079c531659141344cd1fd0a4f28419497f9722a3daafe3b4186f6b6457e05f80a3005b5f80fd5b346101fc5760203660031901126101fc577fbf9a9534339a9d6b81696e05dcfb614b7dc518a31d48be3cfb757988381fb323602061023c61163d565b61025060018060a01b035f541633146117e1565b6001600160a01b031661026c61026461181c565b821515611763565b600c80546001600160a01b03191682179055604051908152a1005b346101fc575f3660031901126101fc576001546102a381611793565b906102b160405192836116b8565b8082526102bd81611793565b602083019190601f19013683376001545f5b828110610323578385604051918291602083019060208452518091526040830191905f5b818110610301575050500390f35b82516001600160a01b03168452859450602093840193909201916001016102f3565b818110156103725760015f8190527fb10e2d527612073b26eecdfd717e6a320cf44b4afac2b0732d9fcbe2b7fa0cf68201549091906001600160a01b031661036b82886117ab565b52016102cf565b634e487b7160e01b5f52603260045260245ffd5b346101fc575f3660031901126101fc5760206040516103e88152f35b346101fc5760c03660031901126101fc576103bb61163d565b6024359081151582036101fc576064359160ff831683036101fc576103eb9260a4359260843592604435916119ec565b005b346101fc5760403660031901126101fc5761040661163d565b6001600160a01b03165f908152600760205260409020805460243591908210156101fc576020916104369161172a565b90549060031b1c604051908152f35b346101fc5760203660031901126101fc576001600160a01b0361046661163d565b165f526004602052602060405f2054604051908152f35b346101fc5760e03660031901126101fc576103eb610499611653565b6104bf6104a461170b565b6104ac61171a565b9060c4359160a4359160643590866119ec565b6001600160a01b0381165f908152600360205260409020546104ec9060ff166104e6611937565b90611763565b600435611ce0565b346101fc5760203660031901126101fc577fdb5aafdb29539329e37d4e3ee869bc4031941fd55a5dfc92824fbe34b204e30d602060043561053f60018060a01b035f541633146117e1565b6105726040516105506040826116b8565b600b81526a496e76616c69642046656560a81b848201526103e8831115611763565b80600b55604051908152a1005b346101fc5760203660031901126101fc576001600160a01b036105a061163d565b165f526003602052602060ff60405f2054166040519015158152f35b346101fc5760203660031901126101fc5760206105f46001600160a01b036105e261163d565b165f52600260205260405f2054151590565b6040519015158152f35b346101fc5760403660031901126101fc5761061761163d565b6001600160a01b03165f908152600860205260409020805460243591908210156101fc576020916104369161172a565b346101fc5760203660031901126101fc576004355f52600660205260405f20805460018060a01b036001830154169160018060a01b0360028201541660018060a01b036003830154169060ff600560048501549401541694604051948552602085015260408401526060830152608082015260038210156106cc5760c09160a0820152f35b634e487b7160e01b5f52602160045260245ffd5b346101fc575f3660031901126101fc575f546040516001600160a01b039091168152602090f35b346101fc5760203660031901126101fc576001600160a01b0361072861163d565b165f52600760205260405f206040519081602082549182815201915f5260205f20905f5b81811061077b5761077785610763818703826116b8565b604051918291602083526020830190611669565b0390f35b825484526020909301926001928301920161074c565b346101fc5760a03660031901126101fc576004356001600160a01b0381168082036101fc576107c161026461181c565b6024356001600160a01b038116928382036101fc576107e96107e161181c565b851515611763565b604435926001600160a01b038416918285036101fc5761081261080a61181c565b841515611763565b6064359360409461084b865161082888826116b8565b600e81526d125b9d985b1a5908105b5bdd5b9d60921b6020820152821515611763565b60843597610887875161085e89826116b8565b6014815273125b9d985b1a590810db185a5b4814195c9a5bd960621b60208201528a1515611763565b6108cb61089f865f52600260205260405f2054151590565b8851906108ac8a836116b8565b600d82526c24b73b30b634b2102a37b5b2b760991b6020830152611763565b5f9180600b5480610ac9575b5060205f606481938c51906323b872dd60e01b82523360048301523060248301526044820152828a5af180601f3d1160015f5114161516610abd575b15610a825783610a62575b6101fc5761092c8a4261198b565b928851936109398561169c565b82855260208086018981528b8701868152606088018c8152608089019485525f60a08a01818152600954825260069095528e90209851895591516001890180546001600160a01b03199081166001600160a01b0393841617909155915160028a018054841691831691909117905591516003808a018054909316919093161790559151600487015551908110156106cc5760209b7f3f4cd7788cb8e67939a31fa08b0b2e7f086c4acd576d96199de6f42476a45e3296610a01610a3c93600560809901611998565b855f5260078e52610a178c5f20600954906119b0565b8a5f5260088e52610a2d8c5f20600954906119b0565b6009549c8d995050504261198b565b9189519384528b840152888301526060820152a4610a59826117bf565b60095551908152f35b50600c545f90610a7d9085906001600160a01b031688611db8565b61091e565b885162461bcd60e51b81526020600482015260146024820152731514905394d1915497d19493d357d1905253115160621b6044820152606490fd5b503d863b151715610913565b91509250805f1904831181021561271002156101fc578202612710808204910615150191610af7838261197e565b90610b348951610b078b826116b8565b6018815277496e76616c696420416d6f756e742041667465722046656560401b6020820152831515611763565b8b6108d7565b346101fc5760e03660031901126101fc5760043567ffffffffffffffff81116101fc57610b6b9036906004016116da565b90610b74611653565b90610b9b610b8061170b565b610b8861171a565b9060c4359160a4359160643590876119ec565b6001600160a01b0382165f90815260036020526040902054610bc29060ff166104e6611937565b5f5b838110610bcd57005b80610be584610bdf6001948887611849565b35611ce0565b01610bc4565b346101fc575f3660031901126101fc576020610c05611859565b604051908152f35b346101fc5760203660031901126101fc57610c2661163d565b610c3a60018060a01b035f541633146117e1565b6001600160a01b0316610c4e61026461181c565b600580546001600160a01b031916821790557f9eaa897564d022fb8c5efaf0acdb5d9d27b440b2aad44400b6e1c702e65b9ed35f80a2005b346101fc575f3660031901126101fc5760206040517fc7588a442b4dd567fc817c5bd8a9867fb9700d7fa6efaa489b1c7fd54d7a0d628152f35b346101fc5760203660031901126101fc5760043567ffffffffffffffff81116101fc57610cf19036906004016116da565b905f5b828110610cfd57005b80610d14610d0e6001938686611849565b35611bf5565b01610cf4565b346101fc5760203660031901126101fc577f7411d2e90b5eec77348fb9db04961bb8bc26d3f3f2facbad650769098c2fe6856020600435610d6560018060a01b035f541633146117e1565b610da7604051610d766040826116b8565b601b81527f496e76616c6964204261746368204465706f736974204c696d6974000000000084820152821515611763565b80600d55604051908152a1005b346101fc575f3660031901126101fc57600c546040516001600160a01b039091168152602090f35b346101fc5760203660031901126101fc57610df561163d565b610e0960018060a01b035f541633146117e1565b6001600160a01b0316610e1d61026461181c565b610e67610e2982611f0d565b60405190610e386040836116b8565b601982527f546f6b656e20416c72656164792057686974656c6973746564000000000000006020830152611763565b7f6a65f90b1a644d2faac467a21e07e50e3f8fa5846e26231d30ae79a417d3d2625f80a2005b346101fc575f3660031901126101fc576020600b54604051908152f35b346101fc575f3660031901126101fc576020600954604051908152f35b346101fc5760203660031901126101fc576103eb600435611bf5565b346101fc575f3660031901126101fc576005546040516001600160a01b039091168152602090f35b346101fc5760203660031901126101fc57610f2461163d565b610f3860018060a01b035f541633146117e1565b6001600160a01b0316610f83610f4d82611e48565b60405190610f5c6040836116b8565b6015825274151bdad95b88139bdd0815da1a5d195b1a5cdd1959605a1b6020830152611763565b7fdd2e6d9f52cbe8f695939d018b7d4a216dc613a669876163ac548b916489d9175f80a2005b346101fc5760403660031901126101fc5760043567ffffffffffffffff81116101fc57366023820112156101fc57806004013567ffffffffffffffff81116101fc5736602460a08302840101116101fc576024359167ffffffffffffffff83116101fc57366023840112156101fc57826004013567ffffffffffffffff81116115805760405193611044601f8301601f1916602001866116b8565b81855236602483830101116101fc57815f926024602093018388013785010152604090611096825161107684826116b8565b600b81526a08adae0e8f24084c2e8c6d60ab1b6020820152841515611763565b6110db600d548411158351906110ac85836116b8565b601c82527f4261746368204465706f736974204c696d6974204578636565646564000000006020830152611763565b6110e483611793565b936110f1835195866116b8565b838552601f1961110085611793565b013660208701375f5b8481101561150f5760a08102830160248101919061113c6001600160a01b036111318561196a565b1615156104e661181c565b60448101926111556001600160a01b036111318661196a565b6064820161116d6001600160a01b036111318361196a565b60a46084840135936111a78a516111848c826116b8565b600e81526d125b9d985b1a5908105b5bdd5b9d60921b6020820152861515611763565b0135916111e289516111b98b826116b8565b6014815273125b9d985b1a590810db185a5b4814195c9a5bd960621b6020820152841515611763565b6112066111f96001600160a01b036105e28461196a565b8a51906108ac8c836116b8565b5f938981600b5480611496575b505f60646020926112238761196a565b9451906323b872dd60e01b8252336004830152306024830152604482015282855af19081601f3d1160015f5114161516611489575b501561144e578461142a575b61126d8261196a565b8a6112778561196a565b6112808a61196a565b9061128b884261198b565b918351946112988661169c565b8686526001600160a01b03908116602080880191825292821686880190815293821660608801908152608088019586525f60a08901818152600954825260069095529690962096518755516001870180546001600160a01b0319908116928416929092179055925160028701805485169183169190911790559351600380870180549094169190951617909155905160048401555198908910156106cc578b6113dd977f3f4cd7788cb8e67939a31fa08b0b2e7f086c4acd576d96199de6f42476a45e329461136e60019c600560809701611998565b8b8060a01b0361137d8561196a565b165f526007602052611394835f20600954906119b0565b8b8060a01b036113a38961196a565b165f5260086020526113ba835f20600954906119b0565b6113ea6113e36009549b8c998f806113d69160a01b039161196a565b169a61196a565b9561196a565b994261198b565b9251988c8060a01b0316895260208901528d8801526060870152888060a01b031694a4611416816117bf565b60095561142382896117ab565b5201611109565b611449856114378461196a565b600c546001600160a01b031690611db8565b611264565b895162461bcd60e51b81526020600482015260146024820152731514905394d1915497d19493d357d1905253115160621b6044820152606490fd5b3b153d171590508d611258565b9250955050805f1904851181021561271002156101fc5784026127108082049106151501938960205f60646114cb898661197e565b9461150785516114db87826116b8565b6018815277496e76616c696420416d6f756e742041667465722046656560401b86820152871515611763565b925050611213565b6107778685847f8611408dd559d02a29ea33a41f0cc1d3cb4ad4cb7ec281498a0e4a8eff30e71461156b600a5492611546846117bf565b600a55845191829186835261155d87840189611669565b90838203602085015261173f565b0390a251918291602083526020830190611669565b634e487b7160e01b5f52604160045260245ffd5b346101fc5760203660031901126101fc576001600160a01b036115b561163d565b165f52600860205260405f206040519081602082549182815201915f5260205f20905f5b8181106115f05761077785610763818703826116b8565b82548452602090930192600192830192016115d9565b346101fc575f3660031901126101fc576020600a54604051908152f35b346101fc575f3660031901126101fc57602090600d548152f35b600435906001600160a01b03821682036101fc57565b602435906001600160a01b03821682036101fc57565b90602080835192838152019201905f5b8181106116865750505090565b8251845260209384019390920191600101611679565b60c0810190811067ffffffffffffffff82111761158057604052565b90601f8019910116810190811067ffffffffffffffff82111761158057604052565b9181601f840112156101fc5782359167ffffffffffffffff83116101fc576020808501948460051b0101116101fc57565b6044359081151582036101fc57565b6084359060ff821682036101fc57565b8054821015610372575f5260205f2001905f90565b805180835260209291819084018484015e5f828201840152601f01601f1916010190565b1561176b5750565b60405162461bcd60e51b81526020600482015290819061178f90602483019061173f565b0390fd5b67ffffffffffffffff81116115805760051b60200190565b80518210156103725760209160051b010190565b5f1981146117cd5760010190565b634e487b7160e01b5f52601160045260245ffd5b156117e857565b60405162461bcd60e51b815260206004820152600c60248201526b15539055551213d49256915160a21b6044820152606490fd5b6040519061182b6040836116b8565b600f82526e496e76616c6964204164647265737360881b6020830152565b91908110156103725760051b0190565b7f0000000000000000000000000000000000000000000000000000000000000000461461191357604060066020825161189284826116b8565b8281520165457363726f7760d01b8152206001602083516118b385826116b8565b82815201603160f81b81522082519160208301937f8b73c3c69bb8fe3d512ecc4cf759cc79239f7b179b0ffacaa9a75d522b39400f855283015260608201524660808201523060a082015260a0815261190d60c0826116b8565b51902090565b7f000000000000000000000000000000000000000000000000000000000000000090565b604051906119466040836116b8565b60158252742737902830bcb6b2b73a102832b936b4b9b9b4b7b760591b6020830152565b356001600160a01b03811681036101fc5790565b919082039182116117cd57565b919082018092116117cd57565b9060038110156106cc5760ff80198354169116179055565b805490600160401b82101561158057816119d29160016119e89401815561172a565b819391549060031b91821b915f19901b19161790565b9055565b6001600160a01b03165f81815260036020526040902054909591151592919060ff1615158314611b9057611b1c611b13611b5c927f83e7daeb15cbb33967be470e6b4ee87dac15bbcfea9b198b6bcbc15b7a383df8976020978a604097611a7e8951611a588b826116b8565b601181527014da59db985d1d5c9948115e1c1a5c9959607a1b8d82015282421115611763565b815f5260048b52885f2054908951918c8301937fc7588a442b4dd567fc817c5bd8a9867fb9700d7fa6efaa489b1c7fd54d7a0d6285528b8401528b6060840152608083015260a082015260a08152611ad760c0826116b8565b519020611ae2611859565b908851908b82019261190160f01b84526022830152604282015260428152611b0b6062826116b8565b519020611f62565b90929192611fef565b6005548351916001600160a01b03908116911614611b3a84836116b8565b6011825270496e76616c6964205369676e617475726560781b86830152611763565b845f5260048352805f20611b7081546117bf565b9055845f5260038352805f2060ff1981541660ff841617905551908152a2565b505050505050565b60405190611ba76040836116b8565b6012825271125b9d985b1a590811195c1bdcda5d08125160721b6020830152565b60405190611bd76040836116b8565b600f82526e105b1c9958591e4810db185a5b5959608a1b6020830152565b611c0560095482106104e6611b98565b805f52600660205260405f20906005820160ff81541660038110156106cc57611c3790611c30611bc8565b9015611763565b611c716004840154421160405190611c506040836116b8565b600f82526e5374696c6c20436c61696d61626c6560881b6020830152611763565b805460ff191660029081179091556001830154908301805484547fe79f76d3ef42e7845b4f718917861642d857a02a4e690c28e79e5af7f5f8f2d39360209392611cc892916001600160a01b039182169116611db8565b5493546040519081526001600160a01b0390941693a3565b611cf060095482106104e6611b98565b805f52600660205260405f2091611d4b600384019160018060a01b0383541660405191611d1e6040846116b8565b6011835270125b9d985b1a5908149958da5c1a595b9d607a1b60208401526001600160a01b031614611763565b600583019060ff8254169060038210156106cc577f4ec90e965519d92681267467f775ada5bd214aa92c0dc93d90a5e880ce9ed02692611d8f602093611c30611bc8565b805460ff1916600190811790915585015481548654611cc89290916001600160a01b0390811691165b60405163a9059cbb60e01b81526001600160a01b03909216600483015260248201929092526020905f9060449082855af19081601f3d1160015f5114161516611e3b575b5015611e0457565b60405162461bcd60e51b815260206004820152600f60248201526e1514905394d1915497d19052531151608a1b6044820152606490fd5b3b153d171590505f611dfc565b5f818152600260205260409020548015611f07575f1981018181116117cd576001545f198101919082116117cd57818103611ecf575b5050506001548015611ebb575f1901611e9881600161172a565b8154905f199060031b1b191690556001555f5260026020525f6040812055600190565b634e487b7160e01b5f52603160045260245ffd5b611ef1611ee06119d293600161172a565b90549060031b1c928392600161172a565b90555f52600260205260405f20555f8080611e7e565b50505f90565b805f52600260205260405f2054155f14611f5d57600154600160401b81101561158057611f466119d2826001859401600155600161172a565b9055600154905f52600260205260405f2055600190565b505f90565b91907f7fffffffffffffffffffffffffffffff5d576e7357a4501ddfe92f46681b20a08411611fe4579160209360809260ff5f9560405194855216868401526040830152606082015282805260015afa15611fd9575f516001600160a01b03811615611fcf57905f905f90565b505f906001905f90565b6040513d5f823e3d90fd5b5050505f9160039190565b60048110156106cc5780612001575050565b600181036120185763f645eedf60e01b5f5260045ffd5b60028103612033575063fce698f760e01b5f5260045260245ffd5b60031461203d5750565b6335e2f38360e21b5f5260045260245ffd0000000000000000000000009d8a62f656a8d1615c1294fd71e9cfb3e4855a4f0000000000000000000000009d8a62f656a8d1615c1294fd71e9cfb3e4855a4f00000000000000000000000000000000000000000000000000000000000000a0000000000000000000000000000000000000000000000000000000000000000000000000000000000000000000000000000000000000000000000000000001f400000000000000000000000000000000000000000000000000000000000000030000000000000000000000007b79995e5f793a07bc00c21412e50ecae098e7f9000000000000000000000000947982fbf3bce76a2ea27797f992d388f7add44e00000000000000000000000009ca53f2be56da320bc4be56c3a9fb61f4d9fed4",
        "nonce": "0xb6",
        "chainId": "0xaa36a7"
      },
      "additionalContracts": [],
      "isFixedGasLimit": false
    },
    {
      "hash": "0x673989d5d46e28ae9e1b5c1c81880f567cb6ae52326e7fbff2355b495abfbd70",
      "transactionType": "CALL",
      "contractName": "MockERC20",
      "contractAddress": "0x09ca53f2be56da320bc4be56c3a9fb61f4d9fed4",
      "function": "mint(address,uint256)",
      "arguments": [
        "0x39053B170bBD9580d0b86e8317c685aEFB65f1ec",
        "500000000"
      ],
      "transaction": {
        "from": "0x39053b170bbd9580d0b86e8317c685aefb65f1ec",
        "to": "0x09ca53f2be56da320bc4be56c3a9fb61f4d9fed4",
        "gas": "0xb6df",
        "value": "0x0",
        "input": "0x40c10f1900000000000000000000000039053b170bbd9580d0b86e8317c685aefb65f1ec000000000000000000000000000000000000000000000000000000001dcd6500",
        "nonce": "0xb7",
        "chainId": "0xaa36a7"
      },
      "additionalContracts": [],
      "isFixedGasLimit": false
    },
    {
      "hash": "0x5b56ff7612bdada79279c9f3a42f3b4466701cbc90025bfa7a97aaeace50993a",
      "transactionType": "CALL",
      "contractName": "MockERC20",
      "contractAddress": "0x09ca53f2be56da320bc4be56c3a9fb61f4d9fed4",
      "function": "approve(address,uint256)",
      "arguments": [
        "0x863065b20281eAF1D9aD878FF49bD5c8eC33Cd60",
        "500000000"
      ],
      "transaction": {
        "from": "0x39053b170bbd9580d0b86e8317c685aefb65f1ec",
        "to": "0x09ca53f2be56da320bc4be56c3a9fb61f4d9fed4",
        "gas": "0xf7a7",
        "value": "0x0",
        "input": "0x095ea7b3000000000000000000000000863065b20281eaf1d9ad878ff49bd5c8ec33cd60000000000000000000000000000000000000000000000000000000001dcd6500",
        "nonce": "0xb8",
        "chainId": "0xaa36a7"
      },
      "additionalContracts": [],
      "isFixedGasLimit": false
    },
    {
      "hash": "0xb00dc404fcde868a64b338c61d88a426a40f68963e53198182ca18821006846f",
      "transactionType": "CALL",
      "contractName": "Escrow",
      "contractAddress": "0x863065b20281eaf1d9ad878ff49bd5c8ec33cd60",
      "function": "batchDeposit((address,address,address,uint256,uint256)[],bytes)",
      "arguments": [
        "[(0x09ca53f2Be56Da320Bc4Be56C3A9FB61f4D9fED4, 0x39053B170bBD9580d0b86e8317c685aEFB65f1ec, 0x5C87eA705eE49a96532F45f5db606A5f5fEF9780, 100000000, 10000), (0x09ca53f2Be56Da320Bc4Be56C3A9FB61f4D9fED4, 0x39053B170bBD9580d0b86e8317c685aEFB65f1ec, 0x5C87eA705eE49a96532F45f5db606A5f5fEF9780, 100000000, 10000), (0x09ca53f2Be56Da320Bc4Be56C3A9FB61f4D9fED4, 0x39053B170bBD9580d0b86e8317c685aEFB65f1ec, 0x5C87eA705eE49a96532F45f5db606A5f5fEF9780, 100000000, 10000), (0x09ca53f2Be56Da320Bc4Be56C3A9FB61f4D9fED4, 0x39053B170bBD9580d0b86e8317c685aEFB65f1ec, 0x5C87eA705eE49a96532F45f5db606A5f5fEF9780, 100000000, 10000), (0x09ca53f2Be56Da320Bc4Be56C3A9FB61f4D9fED4, 0x39053B170bBD9580d0b86e8317c685aEFB65f1ec, 0x5C87eA705eE49a96532F45f5db606A5f5fEF9780, 100000000, 10000)]",
        "0x0000000000000000000000000000000000000000000000000000000000000001000000000000000000000000000000000000000000000000000000000000000000000000000000000000000000000000000000000000000000000000000000640000000000000000000000000000000000000000000000000000000068097a80"
      ],
      "transaction": {
        "from": "0x39053b170bbd9580d0b86e8317c685aefb65f1ec",
        "to": "0x863065b20281eaf1d9ad878ff49bd5c8ec33cd60",
        "gas": "0x158771",
        "value": "0x0",
        "input": "0x09245d8500000000000000000000000000000000000000000000000000000000000000400000000000000000000000000000000000000000000000000000000000000380000000000000000000000000000000000000000000000000000000000000000500000000000000000000000009ca53f2be56da320bc4be56c3a9fb61f4d9fed400000000000000000000000039053b170bbd9580d0b86e8317c685aefb65f1ec0000000000000000000000005c87ea705ee49a96532f45f5db606a5f5fef97800000000000000000000000000000000000000000000000000000000005f5e100000000000000000000000000000000000000000000000000000000000000271000000000000000000000000009ca53f2be56da320bc4be56c3a9fb61f4d9fed400000000000000000000000039053b170bbd9580d0b86e8317c685aefb65f1ec0000000000000000000000005c87ea705ee49a96532f45f5db606a5f5fef97800000000000000000000000000000000000000000000000000000000005f5e100000000000000000000000000000000000000000000000000000000000000271000000000000000000000000009ca53f2be56da320bc4be56c3a9fb61f4d9fed400000000000000000000000039053b170bbd9580d0b86e8317c685aefb65f1ec0000000000000000000000005c87ea705ee49a96532f45f5db606a5f5fef97800000000000000000000000000000000000000000000000000000000005f5e100000000000000000000000000000000000000000000000000000000000000271000000000000000000000000009ca53f2be56da320bc4be56c3a9fb61f4d9fed400000000000000000000000039053b170bbd9580d0b86e8317c685aefb65f1ec0000000000000000000000005c87ea705ee49a96532f45f5db606a5f5fef97800000000000000000000000000000000000000000000000000000000005f5e100000000000000000000000000000000000000000000000000000000000000271000000000000000000000000009ca53f2be56da320bc4be56c3a9fb61f4d9fed400000000000000000000000039053b170bbd9580d0b86e8317c685aefb65f1ec0000000000000000000000005c87ea705ee49a96532f45f5db606a5f5fef97800000000000000000000000000000000000000000000000000000000005f5e100000000000000000000000000000000000000000000000000000000000000271000000000000000000000000000000000000000000000000000000000000000800000000000000000000000000000000000000000000000000000000000000001000000000000000000000000000000000000000000000000000000000000000000000000000000000000000000000000000000000000000000000000000000640000000000000000000000000000000000000000000000000000000068097a80",
        "nonce": "0xb9",
        "chainId": "0xaa36a7"
      },
      "additionalContracts": [],
      "isFixedGasLimit": false
    }
  ],
  "receipts": [
    {
      "status": "0x1",
      "cumulativeGasUsed": "0xc2e566",
      "logs": [],
      "logsBloom": "0x00000000000000000000000000000000000000000000000000000000000000000000000000000000000000000000000000000000000000000000000000000000000000000000000000000000000000000000000000000000000000000000000000000000000000000000000000000000000000000000000000000000000000000000000000000000000000000000000000000000000000000000000000000000000000000000000000000000000000000000000000000000000000000000000000000000000000000000000000000000000000000000000000000000000000000000000000000000000000000000000000000000000000000000000000000000",
      "type": "0x2",
      "transactionHash": "0xe85e1c5f5b2f35aa8025bab90f0b2e3fd0dca08abb480e77382350e6966899ad",
      "transactionIndex": "0x77",
      "blockHash": "0x50ff0afe8a79862ce6e07f7b7f3192fe2b8f5ea2bf277ff12c4e9614cd9f3b39",
      "blockNumber": "0x7cd9f3",
      "gasUsed": "0xaad1d",
      "effectiveGasPrice": "0xf54d1",
      "from": "0x39053b170bbd9580d0b86e8317c685aefb65f1ec",
      "to": null,
      "contractAddress": "0x09ca53f2be56da320bc4be56c3a9fb61f4d9fed4"
    },
    {
      "status": "0x1",
      "cumulativeGasUsed": "0xc3ef7c",
      "logs": [
        {
          "address": "0x09ca53f2be56da320bc4be56c3a9fb61f4d9fed4",
          "topics": [
            "0xddf252ad1be2c89b69c2b068fc378daa952ba7f163c4a11628f55a4df523b3ef",
            "0x0000000000000000000000000000000000000000000000000000000000000000",
            "0x00000000000000000000000099eca80b4ebf8fdace6627becb75ef1e620e6956"
          ],
          "data": "0x00000000000000000000000000000000000000000000000000005af3107a4000",
          "blockHash": "0x50ff0afe8a79862ce6e07f7b7f3192fe2b8f5ea2bf277ff12c4e9614cd9f3b39",
          "blockNumber": "0x7cd9f3",
          "transactionHash": "0xdf3c25f5d3aa083fdfc2172e77763c6a2b2e9abaa941910707633020ee0f6ddc",
          "transactionIndex": "0x78",
          "logIndex": "0xbb",
          "removed": false
        }
      ],
      "logsBloom": "0x00000000000000000000000000000000000000000000000000000040000000000000000004000000000000000000000000000000000000000000000000000000000000000000010000000008000100000000000000000000000800000000000000000000020000000000000000000800000000000000000000000010000000000000000000000000000000000000000000000000000000000000000000000000000000000000000000000000000000000000000000000000000000000000000000000002000000000000000000000000000000000000000000000000000020000000000000000000000000000000000000000000000000000000000080000000",
      "type": "0x2",
      "transactionHash": "0xdf3c25f5d3aa083fdfc2172e77763c6a2b2e9abaa941910707633020ee0f6ddc",
      "transactionIndex": "0x78",
      "blockHash": "0x50ff0afe8a79862ce6e07f7b7f3192fe2b8f5ea2bf277ff12c4e9614cd9f3b39",
      "blockNumber": "0x7cd9f3",
      "gasUsed": "0x10a16",
      "effectiveGasPrice": "0xf54d1",
      "from": "0x39053b170bbd9580d0b86e8317c685aefb65f1ec",
      "to": "0x09ca53f2be56da320bc4be56c3a9fb61f4d9fed4",
      "contractAddress": null
    },
    {
      "status": "0x1",
      "cumulativeGasUsed": "0xc4b6c6",
      "logs": [
        {
          "address": "0x09ca53f2be56da320bc4be56c3a9fb61f4d9fed4",
          "topics": [
            "0xddf252ad1be2c89b69c2b068fc378daa952ba7f163c4a11628f55a4df523b3ef",
            "0x0000000000000000000000000000000000000000000000000000000000000000",
            "0x0000000000000000000000005c87ea705ee49a96532f45f5db606a5f5fef9780"
          ],
          "data": "0x00000000000000000000000000000000000000000000000000005af3107a4000",
          "blockHash": "0x50ff0afe8a79862ce6e07f7b7f3192fe2b8f5ea2bf277ff12c4e9614cd9f3b39",
          "blockNumber": "0x7cd9f3",
          "transactionHash": "0x1c11725706d3a86130256b77dc951be7bd8e30762a77b6b4103834b457aaff5f",
          "transactionIndex": "0x79",
          "logIndex": "0xbc",
          "removed": false
        }
      ],
      "logsBloom": "0x00000000000000000000000000000000000000000000000000000000000000000000000004000000000000000000000000000000008000000000000000000000000000000000010000000008000000000000000000000000000800000000000000000000020000000000000000000800000000000000000000000010000000000000000000000000000000000000000000000000000000000000000000000000000000000000000000000000000000000000000000000000000000000000000000000002000000000000000000000080000000000000000000000000000020000000000000000100000000000000000000000000000000000000000000000000",
      "type": "0x2",
      "transactionHash": "0x1c11725706d3a86130256b77dc951be7bd8e30762a77b6b4103834b457aaff5f",
      "transactionIndex": "0x79",
      "blockHash": "0x50ff0afe8a79862ce6e07f7b7f3192fe2b8f5ea2bf277ff12c4e9614cd9f3b39",
      "blockNumber": "0x7cd9f3",
      "gasUsed": "0xc74a",
      "effectiveGasPrice": "0xf54d1",
      "from": "0x39053b170bbd9580d0b86e8317c685aefb65f1ec",
      "to": "0x09ca53f2be56da320bc4be56c3a9fb61f4d9fed4",
      "contractAddress": null
    },
    {
      "status": "0x1",
      "cumulativeGasUsed": "0xc57e10",
      "logs": [
        {
          "address": "0x09ca53f2be56da320bc4be56c3a9fb61f4d9fed4",
          "topics": [
            "0xddf252ad1be2c89b69c2b068fc378daa952ba7f163c4a11628f55a4df523b3ef",
            "0x0000000000000000000000000000000000000000000000000000000000000000",
            "0x00000000000000000000000039053b170bbd9580d0b86e8317c685aefb65f1ec"
          ],
          "data": "0x00000000000000000000000000000000000000000000000000005af3107a4000",
          "blockHash": "0x50ff0afe8a79862ce6e07f7b7f3192fe2b8f5ea2bf277ff12c4e9614cd9f3b39",
          "blockNumber": "0x7cd9f3",
          "transactionHash": "0x11f8c6d661de10e12d1324ba9170c63d5ee61a4322dac8dd24e724ddca47649c",
          "transactionIndex": "0x7a",
          "logIndex": "0xbd",
          "removed": false
        }
      ],
      "logsBloom": "0x00000000000000000000000000000000000000000000000000000000000000000000000004001000000000000000000000000000000000000000000000000080000000000001010000000008000000000000000000000000000800000000000000000000020000000000000000000800000000000000000000000010000000000000000000000000000000000000000000000000000000000000000000000000000000000000000000000000000000000000000000000000000000000000000000000002000000000000000000000000000000000000000000000000000020000000000000000000000000000000000000000000000000000000000000000000",
      "type": "0x2",
      "transactionHash": "0x11f8c6d661de10e12d1324ba9170c63d5ee61a4322dac8dd24e724ddca47649c",
      "transactionIndex": "0x7a",
      "blockHash": "0x50ff0afe8a79862ce6e07f7b7f3192fe2b8f5ea2bf277ff12c4e9614cd9f3b39",
      "blockNumber": "0x7cd9f3",
      "gasUsed": "0xc74a",
      "effectiveGasPrice": "0xf54d1",
      "from": "0x39053b170bbd9580d0b86e8317c685aefb65f1ec",
      "to": "0x09ca53f2be56da320bc4be56c3a9fb61f4d9fed4",
      "contractAddress": null
    },
    {
      "status": "0x1",
      "cumulativeGasUsed": "0xe5ce24",
      "logs": [
        {
          "address": "0x863065b20281eaf1d9ad878ff49bd5c8ec33cd60",
          "topics": [
            "0x8be0079c531659141344cd1fd0a4f28419497f9722a3daafe3b4186f6b6457e0",
            "0x0000000000000000000000000000000000000000000000000000000000000000",
            "0x0000000000000000000000009d8a62f656a8d1615c1294fd71e9cfb3e4855a4f"
          ],
          "data": "0x",
          "blockHash": "0x50ff0afe8a79862ce6e07f7b7f3192fe2b8f5ea2bf277ff12c4e9614cd9f3b39",
          "blockNumber": "0x7cd9f3",
          "transactionHash": "0x433349f2aa7fc29c2b2224e916009e44b31097b80d09d0897a3cf1995a8be3fc",
          "transactionIndex": "0x7b",
          "logIndex": "0xbe",
          "removed": false
        },
        {
          "address": "0x863065b20281eaf1d9ad878ff49bd5c8ec33cd60",
          "topics": [
            "0x6a65f90b1a644d2faac467a21e07e50e3f8fa5846e26231d30ae79a417d3d262",
            "0x0000000000000000000000007b79995e5f793a07bc00c21412e50ecae098e7f9"
          ],
          "data": "0x",
          "blockHash": "0x50ff0afe8a79862ce6e07f7b7f3192fe2b8f5ea2bf277ff12c4e9614cd9f3b39",
          "blockNumber": "0x7cd9f3",
          "transactionHash": "0x433349f2aa7fc29c2b2224e916009e44b31097b80d09d0897a3cf1995a8be3fc",
          "transactionIndex": "0x7b",
          "logIndex": "0xbf",
          "removed": false
        },
        {
          "address": "0x863065b20281eaf1d9ad878ff49bd5c8ec33cd60",
          "topics": [
            "0x6a65f90b1a644d2faac467a21e07e50e3f8fa5846e26231d30ae79a417d3d262",
            "0x000000000000000000000000947982fbf3bce76a2ea27797f992d388f7add44e"
          ],
          "data": "0x",
          "blockHash": "0x50ff0afe8a79862ce6e07f7b7f3192fe2b8f5ea2bf277ff12c4e9614cd9f3b39",
          "blockNumber": "0x7cd9f3",
          "transactionHash": "0x433349f2aa7fc29c2b2224e916009e44b31097b80d09d0897a3cf1995a8be3fc",
          "transactionIndex": "0x7b",
          "logIndex": "0xc0",
          "removed": false
        },
        {
          "address": "0x863065b20281eaf1d9ad878ff49bd5c8ec33cd60",
          "topics": [
            "0x6a65f90b1a644d2faac467a21e07e50e3f8fa5846e26231d30ae79a417d3d262",
            "0x00000000000000000000000009ca53f2be56da320bc4be56c3a9fb61f4d9fed4"
          ],
          "data": "0x",
          "blockHash": "0x50ff0afe8a79862ce6e07f7b7f3192fe2b8f5ea2bf277ff12c4e9614cd9f3b39",
          "blockNumber": "0x7cd9f3",
          "transactionHash": "0x433349f2aa7fc29c2b2224e916009e44b31097b80d09d0897a3cf1995a8be3fc",
          "transactionIndex": "0x7b",
          "logIndex": "0xc1",
          "removed": false
        }
      ],
      "logsBloom": "0x000000000000000000000002000000000000800000000000c0800000000000000000000000000002000000000000000000000040000000000000000000000000000000000001000000008040000000000001004000000000000800000000000020000000020002000000000000000800000000000000000000002000000000400000000000000000000000000000000000000000000000000000800000000000000000000000000000000000000000000000000000000000000000000000000000000000000000000000400000000000000000100000000000000000000020000000000000000000000000000004000000000000000000000000000000000000",
      "type": "0x2",
      "transactionHash": "0x433349f2aa7fc29c2b2224e916009e44b31097b80d09d0897a3cf1995a8be3fc",
      "transactionIndex": "0x7b",
      "blockHash": "0x50ff0afe8a79862ce6e07f7b7f3192fe2b8f5ea2bf277ff12c4e9614cd9f3b39",
      "blockNumber": "0x7cd9f3",
      "gasUsed": "0x205014",
      "effectiveGasPrice": "0xf54d1",
      "from": "0x39053b170bbd9580d0b86e8317c685aefb65f1ec",
      "to": "0x4e59b44847b379578588920ca78fbf26c0b4956c",
      "contractAddress": "0x863065b20281eaf1d9ad878ff49bd5c8ec33cd60"
    },
    {
      "status": "0x1",
      "cumulativeGasUsed": "0xe6528a",
      "logs": [
        {
          "address": "0x09ca53f2be56da320bc4be56c3a9fb61f4d9fed4",
          "topics": [
            "0xddf252ad1be2c89b69c2b068fc378daa952ba7f163c4a11628f55a4df523b3ef",
            "0x0000000000000000000000000000000000000000000000000000000000000000",
            "0x00000000000000000000000039053b170bbd9580d0b86e8317c685aefb65f1ec"
          ],
          "data": "0x000000000000000000000000000000000000000000000000000000001dcd6500",
          "blockHash": "0x50ff0afe8a79862ce6e07f7b7f3192fe2b8f5ea2bf277ff12c4e9614cd9f3b39",
          "blockNumber": "0x7cd9f3",
          "transactionHash": "0x673989d5d46e28ae9e1b5c1c81880f567cb6ae52326e7fbff2355b495abfbd70",
          "transactionIndex": "0x7c",
          "logIndex": "0xc2",
          "removed": false
        }
      ],
      "logsBloom": "0x00000000000000000000000000000000000000000000000000000000000000000000000004001000000000000000000000000000000000000000000000000080000000000001010000000008000000000000000000000000000800000000000000000000020000000000000000000800000000000000000000000010000000000000000000000000000000000000000000000000000000000000000000000000000000000000000000000000000000000000000000000000000000000000000000000002000000000000000000000000000000000000000000000000000020000000000000000000000000000000000000000000000000000000000000000000",
      "type": "0x2",
      "transactionHash": "0x673989d5d46e28ae9e1b5c1c81880f567cb6ae52326e7fbff2355b495abfbd70",
      "transactionIndex": "0x7c",
      "blockHash": "0x50ff0afe8a79862ce6e07f7b7f3192fe2b8f5ea2bf277ff12c4e9614cd9f3b39",
      "blockNumber": "0x7cd9f3",
      "gasUsed": "0x8466",
      "effectiveGasPrice": "0xf54d1",
      "from": "0x39053b170bbd9580d0b86e8317c685aefb65f1ec",
      "to": "0x09ca53f2be56da320bc4be56c3a9fb61f4d9fed4",
      "contractAddress": null
    },
    {
      "status": "0x1",
      "cumulativeGasUsed": "0xe705d7",
      "logs": [
        {
          "address": "0x09ca53f2be56da320bc4be56c3a9fb61f4d9fed4",
          "topics": [
            "0x8c5be1e5ebec7d5bd14f71427d1e84f3dd0314c0f7b2291e5b200ac8c7c3b925",
            "0x00000000000000000000000039053b170bbd9580d0b86e8317c685aefb65f1ec",
            "0x000000000000000000000000863065b20281eaf1d9ad878ff49bd5c8ec33cd60"
          ],
          "data": "0x000000000000000000000000000000000000000000000000000000001dcd6500",
          "blockHash": "0x50ff0afe8a79862ce6e07f7b7f3192fe2b8f5ea2bf277ff12c4e9614cd9f3b39",
          "blockNumber": "0x7cd9f3",
          "transactionHash": "0x5b56ff7612bdada79279c9f3a42f3b4466701cbc90025bfa7a97aaeace50993a",
          "transactionIndex": "0x7d",
          "logIndex": "0xc3",
          "removed": false
        }
      ],
      "logsBloom": "0x00000000000000000000000000000000004000000000000000000000000000000000000004001000000000000000000000000000000000000000000000200080000000000001010000000000000000000000000000000000000800000000000000000000000000000000000000000000000000000000000000000000000000000000000000000000000000000000000000000000000000000000000000000000020000000000100000000000000000000000000000000000000000000000000000000000000000000000001000000000000000000000000000000000000000000010000000000000000000000000000000000000000000000000000000000000",
      "type": "0x2",
      "transactionHash": "0x5b56ff7612bdada79279c9f3a42f3b4466701cbc90025bfa7a97aaeace50993a",
      "transactionIndex": "0x7d",
      "blockHash": "0x50ff0afe8a79862ce6e07f7b7f3192fe2b8f5ea2bf277ff12c4e9614cd9f3b39",
      "blockNumber": "0x7cd9f3",
      "gasUsed": "0xb34d",
      "effectiveGasPrice": "0xf54d1",
      "from": "0x39053b170bbd9580d0b86e8317c685aefb65f1ec",
      "to": "0x09ca53f2be56da320bc4be56c3a9fb61f4d9fed4",
      "contractAddress": null
    },
    {
      "status": "0x1",
      "cumulativeGasUsed": "0xf5be59",
      "logs": [
        {
          "address": "0x09ca53f2be56da320bc4be56c3a9fb61f4d9fed4",
          "topics": [
            "0xddf252ad1be2c89b69c2b068fc378daa952ba7f163c4a11628f55a4df523b3ef",
            "0x00000000000000000000000039053b170bbd9580d0b86e8317c685aefb65f1ec",
            "0x000000000000000000000000863065b20281eaf1d9ad878ff49bd5c8ec33cd60"
          ],
          "data": "0x0000000000000000000000000000000000000000000000000000000005f5e100",
          "blockHash": "0x50ff0afe8a79862ce6e07f7b7f3192fe2b8f5ea2bf277ff12c4e9614cd9f3b39",
          "blockNumber": "0x7cd9f3",
          "transactionHash": "0xb00dc404fcde868a64b338c61d88a426a40f68963e53198182ca18821006846f",
          "transactionIndex": "0x7e",
          "logIndex": "0xc4",
          "removed": false
        },
        {
          "address": "0x863065b20281eaf1d9ad878ff49bd5c8ec33cd60",
          "topics": [
            "0x3f4cd7788cb8e67939a31fa08b0b2e7f086c4acd576d96199de6f42476a45e32",
            "0x0000000000000000000000000000000000000000000000000000000000000000",
            "0x00000000000000000000000009ca53f2be56da320bc4be56c3a9fb61f4d9fed4",
            "0x0000000000000000000000005c87ea705ee49a96532f45f5db606a5f5fef9780"
          ],
          "data": "0x00000000000000000000000039053b170bbd9580d0b86e8317c685aefb65f1ec0000000000000000000000000000000000000000000000000000000005f5e1000000000000000000000000000000000000000000000000000000000000000000000000000000000000000000000000000000000000000000000000006809a1a8",
          "blockHash": "0x50ff0afe8a79862ce6e07f7b7f3192fe2b8f5ea2bf277ff12c4e9614cd9f3b39",
          "blockNumber": "0x7cd9f3",
          "transactionHash": "0xb00dc404fcde868a64b338c61d88a426a40f68963e53198182ca18821006846f",
          "transactionIndex": "0x7e",
          "logIndex": "0xc5",
          "removed": false
        },
        {
          "address": "0x09ca53f2be56da320bc4be56c3a9fb61f4d9fed4",
          "topics": [
            "0xddf252ad1be2c89b69c2b068fc378daa952ba7f163c4a11628f55a4df523b3ef",
            "0x00000000000000000000000039053b170bbd9580d0b86e8317c685aefb65f1ec",
            "0x000000000000000000000000863065b20281eaf1d9ad878ff49bd5c8ec33cd60"
          ],
          "data": "0x0000000000000000000000000000000000000000000000000000000005f5e100",
          "blockHash": "0x50ff0afe8a79862ce6e07f7b7f3192fe2b8f5ea2bf277ff12c4e9614cd9f3b39",
          "blockNumber": "0x7cd9f3",
          "transactionHash": "0xb00dc404fcde868a64b338c61d88a426a40f68963e53198182ca18821006846f",
          "transactionIndex": "0x7e",
          "logIndex": "0xc6",
          "removed": false
        },
        {
          "address": "0x863065b20281eaf1d9ad878ff49bd5c8ec33cd60",
          "topics": [
            "0x3f4cd7788cb8e67939a31fa08b0b2e7f086c4acd576d96199de6f42476a45e32",
            "0x0000000000000000000000000000000000000000000000000000000000000001",
            "0x00000000000000000000000009ca53f2be56da320bc4be56c3a9fb61f4d9fed4",
            "0x0000000000000000000000005c87ea705ee49a96532f45f5db606a5f5fef9780"
          ],
          "data": "0x00000000000000000000000039053b170bbd9580d0b86e8317c685aefb65f1ec0000000000000000000000000000000000000000000000000000000005f5e1000000000000000000000000000000000000000000000000000000000000000000000000000000000000000000000000000000000000000000000000006809a1a8",
          "blockHash": "0x50ff0afe8a79862ce6e07f7b7f3192fe2b8f5ea2bf277ff12c4e9614cd9f3b39",
          "blockNumber": "0x7cd9f3",
          "transactionHash": "0xb00dc404fcde868a64b338c61d88a426a40f68963e53198182ca18821006846f",
          "transactionIndex": "0x7e",
          "logIndex": "0xc7",
          "removed": false
        },
        {
          "address": "0x09ca53f2be56da320bc4be56c3a9fb61f4d9fed4",
          "topics": [
            "0xddf252ad1be2c89b69c2b068fc378daa952ba7f163c4a11628f55a4df523b3ef",
            "0x00000000000000000000000039053b170bbd9580d0b86e8317c685aefb65f1ec",
            "0x000000000000000000000000863065b20281eaf1d9ad878ff49bd5c8ec33cd60"
          ],
          "data": "0x0000000000000000000000000000000000000000000000000000000005f5e100",
          "blockHash": "0x50ff0afe8a79862ce6e07f7b7f3192fe2b8f5ea2bf277ff12c4e9614cd9f3b39",
          "blockNumber": "0x7cd9f3",
          "transactionHash": "0xb00dc404fcde868a64b338c61d88a426a40f68963e53198182ca18821006846f",
          "transactionIndex": "0x7e",
          "logIndex": "0xc8",
          "removed": false
        },
        {
          "address": "0x863065b20281eaf1d9ad878ff49bd5c8ec33cd60",
          "topics": [
            "0x3f4cd7788cb8e67939a31fa08b0b2e7f086c4acd576d96199de6f42476a45e32",
            "0x0000000000000000000000000000000000000000000000000000000000000002",
            "0x00000000000000000000000009ca53f2be56da320bc4be56c3a9fb61f4d9fed4",
            "0x0000000000000000000000005c87ea705ee49a96532f45f5db606a5f5fef9780"
          ],
          "data": "0x00000000000000000000000039053b170bbd9580d0b86e8317c685aefb65f1ec0000000000000000000000000000000000000000000000000000000005f5e1000000000000000000000000000000000000000000000000000000000000000000000000000000000000000000000000000000000000000000000000006809a1a8",
          "blockHash": "0x50ff0afe8a79862ce6e07f7b7f3192fe2b8f5ea2bf277ff12c4e9614cd9f3b39",
          "blockNumber": "0x7cd9f3",
          "transactionHash": "0xb00dc404fcde868a64b338c61d88a426a40f68963e53198182ca18821006846f",
          "transactionIndex": "0x7e",
          "logIndex": "0xc9",
          "removed": false
        },
        {
          "address": "0x09ca53f2be56da320bc4be56c3a9fb61f4d9fed4",
          "topics": [
            "0xddf252ad1be2c89b69c2b068fc378daa952ba7f163c4a11628f55a4df523b3ef",
            "0x00000000000000000000000039053b170bbd9580d0b86e8317c685aefb65f1ec",
            "0x000000000000000000000000863065b20281eaf1d9ad878ff49bd5c8ec33cd60"
          ],
          "data": "0x0000000000000000000000000000000000000000000000000000000005f5e100",
          "blockHash": "0x50ff0afe8a79862ce6e07f7b7f3192fe2b8f5ea2bf277ff12c4e9614cd9f3b39",
          "blockNumber": "0x7cd9f3",
          "transactionHash": "0xb00dc404fcde868a64b338c61d88a426a40f68963e53198182ca18821006846f",
          "transactionIndex": "0x7e",
          "logIndex": "0xca",
          "removed": false
        },
        {
          "address": "0x863065b20281eaf1d9ad878ff49bd5c8ec33cd60",
          "topics": [
            "0x3f4cd7788cb8e67939a31fa08b0b2e7f086c4acd576d96199de6f42476a45e32",
            "0x0000000000000000000000000000000000000000000000000000000000000003",
            "0x00000000000000000000000009ca53f2be56da320bc4be56c3a9fb61f4d9fed4",
            "0x0000000000000000000000005c87ea705ee49a96532f45f5db606a5f5fef9780"
          ],
          "data": "0x00000000000000000000000039053b170bbd9580d0b86e8317c685aefb65f1ec0000000000000000000000000000000000000000000000000000000005f5e1000000000000000000000000000000000000000000000000000000000000000000000000000000000000000000000000000000000000000000000000006809a1a8",
          "blockHash": "0x50ff0afe8a79862ce6e07f7b7f3192fe2b8f5ea2bf277ff12c4e9614cd9f3b39",
          "blockNumber": "0x7cd9f3",
          "transactionHash": "0xb00dc404fcde868a64b338c61d88a426a40f68963e53198182ca18821006846f",
          "transactionIndex": "0x7e",
          "logIndex": "0xcb",
          "removed": false
        },
        {
          "address": "0x09ca53f2be56da320bc4be56c3a9fb61f4d9fed4",
          "topics": [
            "0xddf252ad1be2c89b69c2b068fc378daa952ba7f163c4a11628f55a4df523b3ef",
            "0x00000000000000000000000039053b170bbd9580d0b86e8317c685aefb65f1ec",
            "0x000000000000000000000000863065b20281eaf1d9ad878ff49bd5c8ec33cd60"
          ],
          "data": "0x0000000000000000000000000000000000000000000000000000000005f5e100",
          "blockHash": "0x50ff0afe8a79862ce6e07f7b7f3192fe2b8f5ea2bf277ff12c4e9614cd9f3b39",
          "blockNumber": "0x7cd9f3",
          "transactionHash": "0xb00dc404fcde868a64b338c61d88a426a40f68963e53198182ca18821006846f",
          "transactionIndex": "0x7e",
          "logIndex": "0xcc",
          "removed": false
        },
        {
          "address": "0x863065b20281eaf1d9ad878ff49bd5c8ec33cd60",
          "topics": [
            "0x3f4cd7788cb8e67939a31fa08b0b2e7f086c4acd576d96199de6f42476a45e32",
            "0x0000000000000000000000000000000000000000000000000000000000000004",
            "0x00000000000000000000000009ca53f2be56da320bc4be56c3a9fb61f4d9fed4",
            "0x0000000000000000000000005c87ea705ee49a96532f45f5db606a5f5fef9780"
          ],
          "data": "0x00000000000000000000000039053b170bbd9580d0b86e8317c685aefb65f1ec0000000000000000000000000000000000000000000000000000000005f5e1000000000000000000000000000000000000000000000000000000000000000000000000000000000000000000000000000000000000000000000000006809a1a8",
          "blockHash": "0x50ff0afe8a79862ce6e07f7b7f3192fe2b8f5ea2bf277ff12c4e9614cd9f3b39",
          "blockNumber": "0x7cd9f3",
          "transactionHash": "0xb00dc404fcde868a64b338c61d88a426a40f68963e53198182ca18821006846f",
          "transactionIndex": "0x7e",
          "logIndex": "0xcd",
          "removed": false
        },
        {
          "address": "0x863065b20281eaf1d9ad878ff49bd5c8ec33cd60",
          "topics": [
            "0x8611408dd559d02a29ea33a41f0cc1d3cb4ad4cb7ec281498a0e4a8eff30e714",
            "0x0000000000000000000000000000000000000000000000000000000000000000"
          ],
          "data": "0x0000000000000000000000000000000000000000000000000000000000000040000000000000000000000000000000000000000000000000000000000000010000000000000000000000000000000000000000000000000000000000000000050000000000000000000000000000000000000000000000000000000000000000000000000000000000000000000000000000000000000000000000000000000100000000000000000000000000000000000000000000000000000000000000020000000000000000000000000000000000000000000000000000000000000003000000000000000000000000000000000000000000000000000000000000000400000000000000000000000000000000000000000000000000000000000000800000000000000000000000000000000000000000000000000000000000000001000000000000000000000000000000000000000000000000000000000000000000000000000000000000000000000000000000000000000000000000000000640000000000000000000000000000000000000000000000000000000068097a80",
          "blockHash": "0x50ff0afe8a79862ce6e07f7b7f3192fe2b8f5ea2bf277ff12c4e9614cd9f3b39",
          "blockNumber": "0x7cd9f3",
          "transactionHash": "0xb00dc404fcde868a64b338c61d88a426a40f68963e53198182ca18821006846f",
          "transactionIndex": "0x7e",
          "logIndex": "0xce",
          "removed": false
        }
      ],
      "logsBloom": "0x04000000000000000000000200000000004080000010000080000000000000000000000004001000000000000000000000000000028000000000000000040080000000000001010000010008000000000000000000040000000800000000000008002000020000000000000000000800000000000000000000000010000000000000000000000008000000000000000000000000000000000000810000000000000000000000100000000100000000000000000000800000002000000000400000000002000000000000001000000080000000008000000000000000000060000000000000000100000000000004000000000000008000000000000008000000",
      "type": "0x2",
      "transactionHash": "0xb00dc404fcde868a64b338c61d88a426a40f68963e53198182ca18821006846f",
      "transactionIndex": "0x7e",
      "blockHash": "0x50ff0afe8a79862ce6e07f7b7f3192fe2b8f5ea2bf277ff12c4e9614cd9f3b39",
      "blockNumber": "0x7cd9f3",
      "gasUsed": "0xeb882",
      "effectiveGasPrice": "0xf54d1",
      "from": "0x39053b170bbd9580d0b86e8317c685aefb65f1ec",
      "to": "0x863065b20281eaf1d9ad878ff49bd5c8ec33cd60",
      "contractAddress": null
    }
  ],
  "libraries": [],
  "pending": [],
  "returns": {},
  "timestamp": 1745451720,
  "chain": 11155111,
  "commit": "983f11c"
}