{
  "transactions": [
    {
      "hash": "0xc171a7ff08c685376d97f1b30389c8fd493432e67287a984b40cde51578159e3",
      "transactionType": "CREATE",
      "contractName": "MockERC20",
      "contractAddress": "0xd3087192d3d721a6e727f06aa8364dfde240f317",
      "function": null,
      "arguments": [
        "USD Coin",
        "USDC",
        "6"
      ],
      "transaction": {
        "from": "0x39053b170bbd9580d0b86e8317c685aefb65f1ec",
        "gas": "0xe9b25",
        "value": "0x0",
        "input": "0x60e060405234801561000f575f80fd5b50604051610f2d380380610f2d83398101604081905261002e916101a1565b8282825f61003c84826102a2565b50600161004983826102a2565b5060ff81166080524660a05261005d61006c565b60c052506103cd945050505050565b5f7f8b73c3c69bb8fe3d512ecc4cf759cc79239f7b179b0ffacaa9a75d522b39400f5f60405161009c919061035c565b6040805191829003822060208301939093528101919091527fc89efdaa54c0f20c7adf612882df0950f5a951637e0307cdcb4c672f298b8bc660608201524660808201523060a082015260c00160405160208183030381529060405280519060200120905090565b634e487b7160e01b5f52604160045260245ffd5b5f82601f830112610127575f80fd5b81516001600160401b0381111561014057610140610104565b604051601f8201601f19908116603f011681016001600160401b038111828210171561016e5761016e610104565b604052818152838201602001851015610185575f80fd5b8160208501602083015e5f918101602001919091529392505050565b5f805f606084860312156101b3575f80fd5b83516001600160401b038111156101c8575f80fd5b6101d486828701610118565b602086015190945090506001600160401b038111156101f1575f80fd5b6101fd86828701610118565b925050604084015160ff81168114610213575f80fd5b809150509250925092565b600181811c9082168061023257607f821691505b60208210810361025057634e487b7160e01b5f52602260045260245ffd5b50919050565b601f82111561029d57805f5260205f20601f840160051c8101602085101561027b5750805b601f840160051c820191505b8181101561029a575f8155600101610287565b50505b505050565b81516001600160401b038111156102bb576102bb610104565b6102cf816102c9845461021e565b84610256565b6020601f821160018114610301575f83156102ea5750848201515b5f19600385901b1c1916600184901b17845561029a565b5f84815260208120601f198516915b828110156103305787850151825560209485019460019092019101610310565b508482101561034d57868401515f19600387901b60f8161c191681555b50505050600190811b01905550565b5f8083546103698161021e565b6001821680156103805760018114610395576103c2565b60ff19831686528115158202860193506103c2565b865f5260205f205f5b838110156103ba5781548882015260019091019060200161039e565b505081860193505b509195945050505050565b60805160a05160c051610b366103f75f395f61045c01525f61042701525f6101590152610b365ff3fe608060405234801561000f575f80fd5b50600436106100e5575f3560e01c806370a08231116100885780639dc29fac116100635780639dc29fac146101f0578063a9059cbb14610203578063d505accf14610216578063dd62ed3e14610229575f80fd5b806370a08231146101aa5780637ecebe00146101c957806395d89b41146101e8575f80fd5b806323b872dd116100c357806323b872dd14610141578063313ce567146101545780633644e5151461018d57806340c10f1914610195575f80fd5b806306fdde03146100e9578063095ea7b31461010757806318160ddd1461012a575b5f80fd5b6100f1610253565b6040516100fe9190610897565b60405180910390f35b61011a6101153660046108e7565b6102de565b60405190151581526020016100fe565b61013360025481565b6040519081526020016100fe565b61011a61014f36600461090f565b61034a565b61017b7f000000000000000000000000000000000000000000000000000000000000000081565b60405160ff90911681526020016100fe565b610133610424565b6101a86101a33660046108e7565b61047e565b005b6101336101b8366004610949565b60036020525f908152604090205481565b6101336101d7366004610949565b60056020525f908152604090205481565b6100f161048c565b6101a86101fe3660046108e7565b610499565b61011a6102113660046108e7565b6104a3565b6101a8610224366004610969565b610506565b6101336102373660046109d6565b600460209081525f928352604080842090915290825290205481565b5f805461025f90610a07565b80601f016020809104026020016040519081016040528092919081815260200182805461028b90610a07565b80156102d65780601f106102ad576101008083540402835291602001916102d6565b820191905f5260205f20905b8154815290600101906020018083116102b957829003601f168201915b505050505081565b335f8181526004602090815260408083206001600160a01b038716808552925280832085905551919290917f8c5be1e5ebec7d5bd14f71427d1e84f3dd0314c0f7b2291e5b200ac8c7c3b925906103389086815260200190565b60405180910390a35060015b92915050565b6001600160a01b0383165f9081526004602090815260408083203384529091528120545f1981146103a35761037f8382610a53565b6001600160a01b0386165f9081526004602090815260408083203384529091529020555b6001600160a01b0385165f90815260036020526040812080548592906103ca908490610a53565b90915550506001600160a01b038085165f81815260036020526040908190208054870190555190918716905f80516020610b16833981519152906104119087815260200190565b60405180910390a3506001949350505050565b5f7f0000000000000000000000000000000000000000000000000000000000000000461461045957610454610749565b905090565b507f000000000000000000000000000000000000000000000000000000000000000090565b61048882826107e1565b5050565b6001805461025f90610a07565b6104888282610838565b335f908152600360205260408120805483919083906104c3908490610a53565b90915550506001600160a01b0383165f81815260036020526040908190208054850190555133905f80516020610b16833981519152906103389086815260200190565b4284101561055b5760405162461bcd60e51b815260206004820152601760248201527f5045524d49545f444541444c494e455f4558504952454400000000000000000060448201526064015b60405180910390fd5b5f6001610566610424565b6001600160a01b038a81165f8181526005602090815260409182902080546001810190915582517f6e71edae12b1b97f4d1f60370fef10105fa2faae0126114a169c64845d6126c98184015280840194909452938d166060840152608083018c905260a083019390935260c08083018b90528151808403909101815260e08301909152805192019190912061190160f01b6101008301526101028201929092526101228101919091526101420160408051601f1981840301815282825280516020918201205f84529083018083525260ff871690820152606081018590526080810184905260a0016020604051602081039080840390855afa15801561066e573d5f803e3d5ffd5b5050604051601f1901519150506001600160a01b038116158015906106a45750876001600160a01b0316816001600160a01b0316145b6106e15760405162461bcd60e51b815260206004820152600e60248201526d24a72b20a624a22fa9a4a3a722a960911b6044820152606401610552565b6001600160a01b039081165f9081526004602090815260408083208a8516808552908352928190208990555188815291928a16917f8c5be1e5ebec7d5bd14f71427d1e84f3dd0314c0f7b2291e5b200ac8c7c3b925910160405180910390a350505050505050565b5f7f8b73c3c69bb8fe3d512ecc4cf759cc79239f7b179b0ffacaa9a75d522b39400f5f6040516107799190610a66565b6040805191829003822060208301939093528101919091527fc89efdaa54c0f20c7adf612882df0950f5a951637e0307cdcb4c672f298b8bc660608201524660808201523060a082015260c00160405160208183030381529060405280519060200120905090565b8060025f8282546107f29190610b02565b90915550506001600160a01b0382165f818152600360209081526040808320805486019055518481525f80516020610b1683398151915291015b60405180910390a35050565b6001600160a01b0382165f908152600360205260408120805483929061085f908490610a53565b90915550506002805482900390556040518181525f906001600160a01b038416905f80516020610b168339815191529060200161082c565b602081525f82518060208401528060208501604085015e5f604082850101526040601f19601f83011684010191505092915050565b80356001600160a01b03811681146108e2575f80fd5b919050565b5f80604083850312156108f8575f80fd5b610901836108cc565b946020939093013593505050565b5f805f60608486031215610921575f80fd5b61092a846108cc565b9250610938602085016108cc565b929592945050506040919091013590565b5f60208284031215610959575f80fd5b610962826108cc565b9392505050565b5f805f805f805f60e0888a03121561097f575f80fd5b610988886108cc565b9650610996602089016108cc565b95506040880135945060608801359350608088013560ff811681146109b9575f80fd5b9699959850939692959460a0840135945060c09093013592915050565b5f80604083850312156109e7575f80fd5b6109f0836108cc565b91506109fe602084016108cc565b90509250929050565b600181811c90821680610a1b57607f821691505b602082108103610a3957634e487b7160e01b5f52602260045260245ffd5b50919050565b634e487b7160e01b5f52601160045260245ffd5b8181038181111561034457610344610a3f565b5f8083545f8160011c90506001821680610a8157607f821691505b602082108103610a9f57634e487b7160e01b5f52602260045260245ffd5b808015610ab35760018114610ac857610af6565b60ff1984168752821515830287019450610af6565b5f888152602090205f5b84811015610aee57815489820152600190910190602001610ad2565b505082870194505b50929695505050505050565b8082018082111561034457610344610a3f56feddf252ad1be2c89b69c2b068fc378daa952ba7f163c4a11628f55a4df523b3ef000000000000000000000000000000000000000000000000000000000000006000000000000000000000000000000000000000000000000000000000000000a00000000000000000000000000000000000000000000000000000000000000006000000000000000000000000000000000000000000000000000000000000000855534420436f696e00000000000000000000000000000000000000000000000000000000000000000000000000000000000000000000000000000000000000045553444300000000000000000000000000000000000000000000000000000000",
        "nonce": "0x442",
        "chainId": "0x14a34"
      },
      "additionalContracts": [],
      "isFixedGasLimit": false
    },
    {
      "hash": "0x6f7e8d4e1c5e674ba571dbbf7eb129268c363a634ec1d60d129f17640582767b",
      "transactionType": "CALL",
      "contractName": "MockERC20",
      "contractAddress": "0xd3087192d3d721a6e727f06aa8364dfde240f317",
      "function": "mint(address,uint256)",
      "arguments": [
        "0x5C87eA705eE49a96532F45f5db606A5f5fEF9780",
        "100000000000000"
      ],
      "transaction": {
        "from": "0x39053b170bbd9580d0b86e8317c685aefb65f1ec",
        "to": "0xd3087192d3d721a6e727f06aa8364dfde240f317",
        "gas": "0x17092",
        "value": "0x0",
        "input": "0x40c10f190000000000000000000000005c87ea705ee49a96532f45f5db606a5f5fef978000000000000000000000000000000000000000000000000000005af3107a4000",
        "nonce": "0x443",
        "chainId": "0x14a34"
      },
      "additionalContracts": [],
      "isFixedGasLimit": false
    },
    {
      "hash": "0x201033f7866da7604df15cc4cb844f542a5888d2fe5f82062a47f2729e0e7685",
      "transactionType": "CALL",
      "contractName": "MockERC20",
      "contractAddress": "0xd3087192d3d721a6e727f06aa8364dfde240f317",
      "function": "mint(address,uint256)",
      "arguments": [
        "0x5C87eA705eE49a96532F45f5db606A5f5fEF9780",
        "100000000000000"
      ],
      "transaction": {
        "from": "0x39053b170bbd9580d0b86e8317c685aefb65f1ec",
        "to": "0xd3087192d3d721a6e727f06aa8364dfde240f317",
        "gas": "0xb80a",
        "value": "0x0",
        "input": "0x40c10f190000000000000000000000005c87ea705ee49a96532f45f5db606a5f5fef978000000000000000000000000000000000000000000000000000005af3107a4000",
        "nonce": "0x444",
        "chainId": "0x14a34"
      },
      "additionalContracts": [],
      "isFixedGasLimit": false
    },
    {
      "hash": "0x711458133ba0ffecff2b165ebafec6fb5b68a299feab15a2b88dc387663bf43c",
      "transactionType": "CALL",
      "contractName": "MockERC20",
      "contractAddress": "0xd3087192d3d721a6e727f06aa8364dfde240f317",
      "function": "mint(address,uint256)",
      "arguments": [
        "0x39053B170bBD9580d0b86e8317c685aEFB65f1ec",
        "100000000000000"
      ],
      "transaction": {
        "from": "0x39053b170bbd9580d0b86e8317c685aefb65f1ec",
        "to": "0xd3087192d3d721a6e727f06aa8364dfde240f317",
        "gas": "0x1248f",
        "value": "0x0",
        "input": "0x40c10f1900000000000000000000000039053b170bbd9580d0b86e8317c685aefb65f1ec00000000000000000000000000000000000000000000000000005af3107a4000",
        "nonce": "0x445",
        "chainId": "0x14a34"
      },
      "additionalContracts": [],
      "isFixedGasLimit": false
    },
    {
      "hash": "0xf2e59f5f95c41842b9eee1020824505ebc6d45faac1ff2dde9739d44b7e04871",
      "transactionType": "CREATE2",
      "contractName": "Escrow",
      "contractAddress": "0x13dca9b3dffdf34d8949c9bad3c61c2d792b4e38",
      "function": null,
      "arguments": [
        "0x9d8A62f656a8d1615C1294fd71e9CFb3E4855A4F",
        "0x9d8A62f656a8d1615C1294fd71e9CFb3E4855A4F",
        "[0x4200000000000000000000000000000000000006, 0x081827b8C3Aa05287b5aA2bC3051fbE638F33152, 0xd3087192D3D721a6E727f06aa8364DfDE240f317]",
        "0",
        "500"
      ],
      "transaction": {
        "from": "0x39053b170bbd9580d0b86e8317c685aefb65f1ec",
        "to": "0x4e59b44847b379578588920ca78fbf26c0b4956c",
        "gas": "0x32918a",
        "value": "0x0",
        "input": "0x73616c740000000000000000000000000000000000000000000000000000000060c060405234801561000f575f80fd5b506040516129cf3803806129cf83398101604081905261002e9161030f565b5f80546001600160a01b0319166001600160a01b03871690811782556040518792907f8be0079c531659141344cd1fd0a4f28419497f9722a3daafe3b4186f6b6457e0908290a35060408051808201909152600b81526a496e76616c69642046656560a81b60208201526103e88311156100c45760405162461bcd60e51b81526004016100bb919061040c565b60405180910390fd5b50600c80546001600160a01b0319166001600160a01b038716179055600b829055466080526101b96040805180820182526006815265457363726f7760d01b6020918201528151808301835260018152603160f81b9082015281517f8b73c3c69bb8fe3d512ecc4cf759cc79239f7b179b0ffacaa9a75d522b39400f818301527fb9bc528025c382c0c8143814a1df5b62366b6d562d71f58bf61651b823f98094818401527fc89efdaa54c0f20c7adf612882df0950f5a951637e0307cdcb4c672f298b8bc660608201524660808201523060a0808301919091528351808303909101815260c0909101909252815191012090565b60a052600580546001600160a01b0319166001600160a01b038616179055600d8190555f5b835181101561026c576102148482815181106101fc576101fc610441565b6020026020010151600161027760201b90919060201c565b5083818151811061022757610227610441565b60200260200101516001600160a01b03167f6a65f90b1a644d2faac467a21e07e50e3f8fa5846e26231d30ae79a417d3d26260405160405180910390a26001016101de565b505050505050610455565b5f61028b836001600160a01b038416610294565b90505b92915050565b5f8181526001830160205260408120546102d957508154600181810184555f84815260208082209093018490558454848252828601909352604090209190915561028e565b505f61028e565b80516001600160a01b03811681146102f6575f80fd5b919050565b634e487b7160e01b5f52604160045260245ffd5b5f805f805f60a08688031215610323575f80fd5b61032c866102e0565b945061033a602087016102e0565b60408701519094506001600160401b03811115610355575f80fd5b8601601f81018813610365575f80fd5b80516001600160401b0381111561037e5761037e6102fb565b604051600582901b90603f8201601f191681016001600160401b03811182821017156103ac576103ac6102fb565b60405291825260208184018101929081018b8411156103c9575f80fd5b6020850194505b838510156103ef576103e1856102e0565b8152602094850194016103d0565b5060608a01516080909a0151989b979a5098979695505050505050565b602081525f82518060208401528060208501604085015e5f604082850101526040601f19601f83011684010191505092915050565b634e487b7160e01b5f52603260045260245ffd5b60805160a0516125596104765f395f610a9a01525f610a7201526125595ff3fe608060405234801561000f575f80fd5b50600436106101f2575f3560e01c8063722ae65611610114578063c0417e58116100a9578063d4a2f40b11610079578063d4a2f40b146104a1578063d55be8c6146104b4578063e26f7900146104bd578063e74b981b146104d2578063f2fde38b146104e5575f80fd5b8063c0417e5814610449578063c0a0e1041461045c578063c26aaba11461046f578063c94f917a1461048e575f80fd5b8063b02c43d0116100e4578063b02c43d01461038c578063b26f8303146103f1578063b5af090f14610404578063bf3506c114610427575f80fd5b8063722ae6561461034157806373de68da14610354578063775c37e1146103675780638da5cb5b1461037a575f80fd5b806335659fb81161018a5780635725748c1161015a5780635725748c146102ec5780636b0509b1146102ff5780636c19e783146103265780636d4a450a14610339575f80fd5b806335659fb8146102aa578063363cb34d146102b357806346904840146102c65780634f63e767146102d9575f80fd5b80631c88705d116101c55780631c88705d1461024e578063238ac933146102635780632dabbeed1461028e5780632dfdf0b5146102a1575f80fd5b80630601e112146101f657806306f1305614610212578063077891f91461021b57806309245d851461023b575b5f80fd5b6101ff600d5481565b6040519081526020015b60405180910390f35b6101ff600a5481565b61022e610229366004611f9e565b6104f8565b6040516102099190611ff3565b61022e6102493660046120a4565b610561565b61026161025c366004611f9e565b6106ef565b005b600554610276906001600160a01b031681565b6040516001600160a01b039091168152602001610209565b61026161029c36600461213c565b6107a6565b6101ff60095481565b6101ff600b5481565b6102616102c1366004611f9e565b6107b2565b600c54610276906001600160a01b031681565b6102616102e736600461213c565b6108bf565b6102616102fa36600461219b565b610977565b6101ff7fc7588a442b4dd567fc817c5bd8a9867fb9700d7fa6efaa489b1c7fd54d7a0d6281565b610261610334366004611f9e565b6109af565b6101ff610a6f565b61026161034f3660046121fe565b610b8a565b6101ff61036236600461228b565b610c40565b61022e610375366004611f9e565b6111b9565b5f54610276906001600160a01b031681565b6103df61039a36600461213c565b60066020525f908152604090208054600182015460028301546003840154600485015460059095015493946001600160a01b0393841694928416939091169160ff1686565b604051610209969594939291906122b8565b6101ff6103ff366004612312565b611220565b610417610412366004611f9e565b61124b565b6040519015158152602001610209565b610417610435366004611f9e565b60036020525f908152604090205460ff1681565b61026161045736600461213c565b61125d565b61026161046a36600461233c565b611301565b6101ff61047d366004611f9e565b60046020525f908152604090205481565b6101ff61049c366004612312565b61138b565b6102616104af3660046123a4565b6113a4565b6101ff6103e881565b6104c56115c3565b6040516102099190612401565b6102616104e0366004611f9e565b611666565b6102616104f3366004611f9e565b61172b565b6001600160a01b0381165f9081526008602090815260409182902080548351818402810184019094528084526060939283018282801561055557602002820191905f5260205f20905b815481526020019060010190808311610541575b50505050509050919050565b60408051808201909152600b81526a08adae0e8f24084c2e8c6d60ab1b6020820152606090836105ad5760405162461bcd60e51b81526004016105a4919061247a565b60405180910390fd5b50600d5460408051808201909152601c81527f4261746368204465706f736974204c696d6974204578636565646564000000006020820152908411156106065760405162461bcd60e51b81526004016105a4919061247a565b508267ffffffffffffffff81111561062057610620612005565b604051908082528060200260200182016040528015610649578160200160208202803683370190505b5090505f5b8381101561069b5761067685858381811061066b5761066b61248c565b905060a00201610c40565b8282815181106106885761068861248c565b602090810291909101015260010161064e565b50600a8054905f6106ab836124b4565b919050557f8611408dd559d02a29ea33a41f0cc1d3cb4ad4cb7ec281498a0e4a8eff30e71482846040516106e09291906124cc565b60405180910390a29392505050565b5f546001600160a01b031633146107185760405162461bcd60e51b81526004016105a4906124f9565b61072360018261179e565b60405180604001604052806015815260200174151bdad95b88139bdd0815da1a5d195b1a5cdd1959605a1b8152509061076f5760405162461bcd60e51b81526004016105a4919061247a565b506040516001600160a01b038216907fdd2e6d9f52cbe8f695939d018b7d4a216dc613a669876163ac548b916489d917905f90a250565b6107af816117b9565b50565b5f546001600160a01b031633146107db5760405162461bcd60e51b81526004016105a4906124f9565b60408051808201909152600f81526e496e76616c6964204164647265737360881b60208201526001600160a01b0382166108285760405162461bcd60e51b81526004016105a4919061247a565b50610834600182611945565b6040518060400160405280601981526020017f546f6b656e20416c72656164792057686974656c697374656400000000000000815250906108885760405162461bcd60e51b81526004016105a4919061247a565b506040516001600160a01b038216907f6a65f90b1a644d2faac467a21e07e50e3f8fa5846e26231d30ae79a417d3d262905f90a250565b5f546001600160a01b031633146108e85760405162461bcd60e51b81526004016105a4906124f9565b60408051808201909152601b81527f496e76616c6964204261746368204465706f736974204c696d6974000000000060208201528161093a5760405162461bcd60e51b81526004016105a4919061247a565b50600d8190556040518181527f7411d2e90b5eec77348fb9db04961bb8bc26d3f3f2facbad650769098c2fe685906020015b60405180910390a150565b5f5b818110156109aa576109a28383838181106109965761099661248c565b905060200201356117b9565b600101610979565b505050565b5f546001600160a01b031633146109d85760405162461bcd60e51b81526004016105a4906124f9565b60408051808201909152600f81526e496e76616c6964204164647265737360881b60208201526001600160a01b038216610a255760405162461bcd60e51b81526004016105a4919061247a565b50600580546001600160a01b0319166001600160a01b0383169081179091556040517f9eaa897564d022fb8c5efaf0acdb5d9d27b440b2aad44400b6e1c702e65b9ed3905f90a250565b5f7f00000000000000000000000000000000000000000000000000000000000000004603610abc57507f000000000000000000000000000000000000000000000000000000000000000090565b506040805180820182526006815265457363726f7760d01b6020918201528151808301835260018152603160f81b9082015281517f8b73c3c69bb8fe3d512ecc4cf759cc79239f7b179b0ffacaa9a75d522b39400f818301527fb9bc528025c382c0c8143814a1df5b62366b6d562d71f58bf61651b823f98094818401527fc89efdaa54c0f20c7adf612882df0950f5a951637e0307cdcb4c672f298b8bc660608201524660808201523060a0808301919091528351808303909101815260c0909101909252815191012090565b610b988686868686866113a4565b6001600160a01b0386165f9081526003602090815260409182902054825180840190935260158352742737902830bcb6b2b73a102832b936b4b9b9b4b7b760591b9183019190915260ff16610c005760405162461bcd60e51b81526004016105a4919061247a565b505f5b87811015610c3557610c2d898983818110610c2057610c2061248c565b9050602002013588611959565b600101610c03565b505050505050505050565b5f80610c4f6020840184611f9e565b6001600160a01b031614156040518060400160405280600f81526020016e496e76616c6964204164647265737360881b81525090610ca05760405162461bcd60e51b81526004016105a4919061247a565b505f610cb26040840160208501611f9e565b6001600160a01b031614156040518060400160405280600f81526020016e496e76616c6964204164647265737360881b81525090610d035760405162461bcd60e51b81526004016105a4919061247a565b505f610d156060840160408501611f9e565b6001600160a01b031614156040518060400160405280600f81526020016e496e76616c6964204164647265737360881b81525090610d665760405162461bcd60e51b81526004016105a4919061247a565b5060408051808201909152600e81526d125b9d985b1a5908105b5bdd5b9d60921b60208201526060830135610dae5760405162461bcd60e51b81526004016105a4919061247a565b50604080518082019091526014815273125b9d985b1a590810db185a5b4814195c9a5bd960621b60208201526080830135610dfc5760405162461bcd60e51b81526004016105a4919061247a565b50610e15610e0d6020840184611f9e565b600190611afa565b6040518060400160405280600d81526020016c24b73b30b634b2102a37b5b2b760991b81525090610e595760405162461bcd60e51b81526004016105a4919061247a565b50600b545f9060608401359015610eea57600b54610e7f90606086013590612710611b1b565b9150610e8f82606086013561251f565b90505f81116040518060400160405280601881526020017f496e76616c696420416d6f756e7420416674657220466565000000000000000081525090610ee85760405162461bcd60e51b81526004016105a4919061247a565b505b610f1233306060870135610f016020890189611f9e565b6001600160a01b0316929190611b3e565b8115610f4657600c54610f46906001600160a01b031683610f366020880188611f9e565b6001600160a01b03169190611be2565b6040805160c08101909152818152602080820190610f6690870187611f9e565b6001600160a01b03168152602001856020016020810190610f879190611f9e565b6001600160a01b03168152602001610fa56060870160408801611f9e565b6001600160a01b03168152602001610fc1608087013542612532565b81525f60209182018190526009548152600682526040908190208351815591830151600180840180546001600160a01b03199081166001600160a01b0394851617909155928501516002808601805486169285169290921790915560608601516003860180549095169316929092179092556080840151600484015560a08401516005840180549193909260ff19909216918490811115611064576110646122a4565b0217905550600791505f90506110806040870160208801611f9e565b6001600160a01b0316815260208082019290925260409081015f90812060095481546001810183559183529382200192909255600891906110c79060608801908801611f9e565b6001600160a01b0316815260208082019290925260409081015f908120600954815460018101835591835293909120019190915561110b9060608601908601611f9e565b6001600160a01b03166111216020860186611f9e565b6001600160a01b03166009547f3f4cd7788cb8e67939a31fa08b0b2e7f086c4acd576d96199de6f42476a45e328760200160208101906111619190611f9e565b858761117160808c013542612532565b604080516001600160a01b039095168552602085019390935291830152606082015260800160405180910390a460098054905f6111ad836124b4565b90915550949350505050565b6001600160a01b0381165f9081526007602090815260409182902080548351818402810184019094528084526060939283018282801561055557602002820191905f5260205f20908154815260200190600101908083116105415750505050509050919050565b6008602052815f5260405f208181548110611239575f80fd5b905f5260205f20015f91509150505481565b5f611257600183611afa565b92915050565b5f546001600160a01b031633146112865760405162461bcd60e51b81526004016105a4906124f9565b60408051808201909152600b81526a496e76616c69642046656560a81b60208201526103e88211156112cb5760405162461bcd60e51b81526004016105a4919061247a565b50600b8190556040518181527fdb5aafdb29539329e37d4e3ee869bc4031941fd55a5dfc92824fbe34b204e30d9060200161096c565b61130f8686868686866113a4565b6001600160a01b0386165f9081526003602090815260409182902054825180840190935260158352742737902830bcb6b2b73a102832b936b4b9b9b4b7b760591b9183019190915260ff166113775760405162461bcd60e51b81526004016105a4919061247a565b506113828787611959565b50505050505050565b6007602052815f5260405f208181548110611239575f80fd5b6001600160a01b0386165f9081526003602052604090205460ff161515851515146115bb57834211156040518060400160405280601181526020017014da59db985d1d5c9948115e1c1a5c9959607a1b815250906114155760405162461bcd60e51b81526004016105a4919061247a565b506001600160a01b0386165f8181526004602090815260408083205481517fc7588a442b4dd567fc817c5bd8a9867fb9700d7fa6efaa489b1c7fd54d7a0d6281850152808301959095528915156060860152608085015260a08085018990528151808603909101815260c09094019052825192019190912090611496610a6f565b60405161190160f01b60208201526022810191909152604281018390526062016040516020818303038152906040528051906020012090505f6114db82878787611c71565b600554604080518082019091526011815270496e76616c6964205369676e617475726560781b60208201529192506001600160a01b038084169116146115345760405162461bcd60e51b81526004016105a4919061247a565b506001600160a01b0389165f908152600460205260408120805491611558836124b4565b90915550506001600160a01b0389165f81815260036020908152604091829020805460ff19168c151590811790915591519182527f83e7daeb15cbb33967be470e6b4ee87dac15bbcfea9b198b6bcbc15b7a383df8910160405180910390a25050505b505050505050565b60605f6115d06001611c9d565b90505f8167ffffffffffffffff8111156115ec576115ec612005565b604051908082528060200260200182016040528015611615578160200160208202803683370190505b5090505f5b8281101561165f5761162d600182611ca6565b82828151811061163f5761163f61248c565b6001600160a01b039092166020928302919091019091015260010161161a565b5092915050565b5f546001600160a01b0316331461168f5760405162461bcd60e51b81526004016105a4906124f9565b60408051808201909152600f81526e496e76616c6964204164647265737360881b60208201526001600160a01b0382166116dc5760405162461bcd60e51b81526004016105a4919061247a565b50600c80546001600160a01b0319166001600160a01b0383169081179091556040519081527fbf9a9534339a9d6b81696e05dcfb614b7dc518a31d48be3cfb757988381fb3239060200161096c565b5f546001600160a01b031633146117545760405162461bcd60e51b81526004016105a4906124f9565b5f80546001600160a01b0319166001600160a01b0383169081178255604051909133917f8be0079c531659141344cd1fd0a4f28419497f9722a3daafe3b4186f6b6457e09190a350565b5f6117b2836001600160a01b038416611cb1565b9392505050565b600954811060405180604001604052806012815260200171125b9d985b1a590811195c1bdcda5d08125160721b815250906118075760405162461bcd60e51b81526004016105a4919061247a565b505f81815260066020526040812090600582015460ff16600281111561182f5761182f6122a4565b146040518060400160405280600f81526020016e105b1c9958591e4810db185a5b5959608a1b815250906118765760405162461bcd60e51b81526004016105a4919061247a565b50806004015442116040518060400160405280600f81526020016e5374696c6c20436c61696d61626c6560881b815250906118c45760405162461bcd60e51b81526004016105a4919061247a565b5060058101805460ff19166002908117909155810154815460018301546118f9926001600160a01b0391821692911690611be2565b600281015481546040519081526001600160a01b039091169083907fe79f76d3ef42e7845b4f718917861642d857a02a4e690c28e79e5af7f5f8f2d39060200160405180910390a35050565b5f6117b2836001600160a01b038416611d94565b600954821060405180604001604052806012815260200171125b9d985b1a590811195c1bdcda5d08125160721b815250906119a75760405162461bcd60e51b81526004016105a4919061247a565b505f82815260066020908152604091829020600381015483518085019094526011845270125b9d985b1a5908149958da5c1a595b9d607a1b9284019290925291906001600160a01b03848116911614611a135760405162461bcd60e51b81526004016105a4919061247a565b505f600582015460ff166002811115611a2e57611a2e6122a4565b146040518060400160405280600f81526020016e105b1c9958591e4810db185a5b5959608a1b81525090611a755760405162461bcd60e51b81526004016105a4919061247a565b5060058101805460ff191660019081179091556003820154825491830154611aad926001600160a01b03918216929190911690611be2565b600381015481546040519081526001600160a01b039091169084907f4ec90e965519d92681267467f775ada5bd214aa92c0dc93d90a5e880ce9ed0269060200160405180910390a3505050565b6001600160a01b0381165f90815260018301602052604081205415156117b2565b5f825f190484118302158202611b2f575f80fd5b50910281810615159190040190565b5f6040516323b872dd60e01b81526001600160a01b03851660048201526001600160a01b038416602482015282604482015260205f6064835f8a5af191505080601f3d1160015f511416151615611b975750833b153d17155b80611bdb5760405162461bcd60e51b81526020600482015260146024820152731514905394d1915497d19493d357d1905253115160621b60448201526064016105a4565b5050505050565b5f60405163a9059cbb60e01b81526001600160a01b038416600482015282602482015260205f6044835f895af191505080601f3d1160015f511416151615611c2c5750823b153d17155b80611c6b5760405162461bcd60e51b815260206004820152600f60248201526e1514905394d1915497d19052531151608a1b60448201526064016105a4565b50505050565b5f805f80611c8188888888611de0565b925092509250611c918282611ea8565b50909695505050505050565b5f611257825490565b5f6117b28383611f64565b5f8181526001830160205260408120548015611d8b575f611cd360018361251f565b85549091505f90611ce69060019061251f565b9050808214611d45575f865f018281548110611d0457611d0461248c565b905f5260205f200154905080875f018481548110611d2457611d2461248c565b5f918252602080832090910192909255918252600188019052604090208390555b8554869080611d5657611d56612545565b600190038181905f5260205f20015f90559055856001015f8681526020019081526020015f205f905560019350505050611257565b5f915050611257565b5f818152600183016020526040812054611dd957508154600181810184555f848152602080822090930184905584548482528286019093526040902091909155611257565b505f611257565b5f80807f7fffffffffffffffffffffffffffffff5d576e7357a4501ddfe92f46681b20a0841115611e1957505f91506003905082611e9e565b604080515f808252602082018084528a905260ff891692820192909252606081018790526080810186905260019060a0016020604051602081039080840390855afa158015611e6a573d5f803e3d5ffd5b5050604051601f1901519150506001600160a01b038116611e9557505f925060019150829050611e9e565b92505f91508190505b9450945094915050565b5f826003811115611ebb57611ebb6122a4565b03611ec4575050565b6001826003811115611ed857611ed86122a4565b03611ef65760405163f645eedf60e01b815260040160405180910390fd5b6002826003811115611f0a57611f0a6122a4565b03611f2b5760405163fce698f760e01b8152600481018290526024016105a4565b6003826003811115611f3f57611f3f6122a4565b03611f60576040516335e2f38360e21b8152600481018290526024016105a4565b5050565b5f825f018281548110611f7957611f7961248c565b905f5260205f200154905092915050565b6001600160a01b03811681146107af575f80fd5b5f60208284031215611fae575f80fd5b81356117b281611f8a565b5f8151808452602084019350602083015f5b82811015611fe9578151865260209586019590910190600101611fcb565b5093949350505050565b602081525f6117b26020830184611fb9565b634e487b7160e01b5f52604160045260245ffd5b5f82601f830112612028575f80fd5b813567ffffffffffffffff81111561204257612042612005565b604051601f8201601f19908116603f0116810167ffffffffffffffff8111828210171561207157612071612005565b604052818152838201602001851015612088575f80fd5b816020850160208301375f918101602001919091529392505050565b5f805f604084860312156120b6575f80fd5b833567ffffffffffffffff8111156120cc575f80fd5b8401601f810186136120dc575f80fd5b803567ffffffffffffffff8111156120f2575f80fd5b86602060a083028401011115612106575f80fd5b60209182019450925084013567ffffffffffffffff811115612126575f80fd5b61213286828701612019565b9150509250925092565b5f6020828403121561214c575f80fd5b5035919050565b5f8083601f840112612163575f80fd5b50813567ffffffffffffffff81111561217a575f80fd5b6020830191508360208260051b8501011115612194575f80fd5b9250929050565b5f80602083850312156121ac575f80fd5b823567ffffffffffffffff8111156121c2575f80fd5b6121ce85828601612153565b90969095509350505050565b803580151581146121e9575f80fd5b919050565b803560ff811681146121e9575f80fd5b5f805f805f805f8060e0898b031215612215575f80fd5b883567ffffffffffffffff81111561222b575f80fd5b6122378b828c01612153565b909950975050602089013561224b81611f8a565b955061225960408a016121da565b94506060890135935061226e60808a016121ee565b979a969950949793969295929450505060a08201359160c0013590565b5f60a082840312801561229c575f80fd5b509092915050565b634e487b7160e01b5f52602160045260245ffd5b8681526001600160a01b0386811660208301528581166040830152841660608201526080810183905260c081016003831061230157634e487b7160e01b5f52602160045260245ffd5b8260a0830152979650505050505050565b5f8060408385031215612323575f80fd5b823561232e81611f8a565b946020939093013593505050565b5f805f805f805f60e0888a031215612352575f80fd5b87359650602088013561236481611f8a565b9550612372604089016121da565b945060608801359350612387608089016121ee565b9699959850939692959460a0840135945060c09093013592915050565b5f805f805f8060c087890312156123b9575f80fd5b86356123c481611f8a565b95506123d2602088016121da565b9450604087013593506123e7606088016121ee565b9598949750929560808101359460a0909101359350915050565b602080825282518282018190525f918401906040840190835b818110156124415783516001600160a01b031683526020938401939092019160010161241a565b509095945050505050565b5f81518084528060208401602086015e5f602082860101526020601f19601f83011685010191505092915050565b602081525f6117b2602083018461244c565b634e487b7160e01b5f52603260045260245ffd5b634e487b7160e01b5f52601160045260245ffd5b5f600182016124c5576124c56124a0565b5060010190565b604081525f6124de6040830185611fb9565b82810360208401526124f0818561244c565b95945050505050565b6020808252600c908201526b15539055551213d49256915160a21b604082015260600190565b81810381811115611257576112576124a0565b80820180821115611257576112576124a0565b634e487b7160e01b5f52603160045260245ffd0000000000000000000000009d8a62f656a8d1615c1294fd71e9cfb3e4855a4f0000000000000000000000009d8a62f656a8d1615c1294fd71e9cfb3e4855a4f00000000000000000000000000000000000000000000000000000000000000a0000000000000000000000000000000000000000000000000000000000000000000000000000000000000000000000000000000000000000000000000000001f400000000000000000000000000000000000000000000000000000000000000030000000000000000000000004200000000000000000000000000000000000006000000000000000000000000081827b8c3aa05287b5aa2bc3051fbe638f33152000000000000000000000000d3087192d3d721a6e727f06aa8364dfde240f317",
        "nonce": "0x446",
        "chainId": "0x14a34"
      },
      "additionalContracts": [],
      "isFixedGasLimit": false
    },
    {
      "hash": "0x20583e82f275f6ef116fd72b98cddf759afbd9ec0af4d5eeb84c098d73ef6d00",
      "transactionType": "CALL",
      "contractName": "MockERC20",
      "contractAddress": "0xd3087192d3d721a6e727f06aa8364dfde240f317",
      "function": "mint(address,uint256)",
      "arguments": [
        "0x39053B170bBD9580d0b86e8317c685aEFB65f1ec",
        "500000000"
      ],
      "transaction": {
        "from": "0x39053b170bbd9580d0b86e8317c685aefb65f1ec",
        "to": "0xd3087192d3d721a6e727f06aa8364dfde240f317",
        "gas": "0xb7ea",
        "value": "0x0",
        "input": "0x40c10f1900000000000000000000000039053b170bbd9580d0b86e8317c685aefb65f1ec000000000000000000000000000000000000000000000000000000001dcd6500",
        "nonce": "0x447",
        "chainId": "0x14a34"
      },
      "additionalContracts": [],
      "isFixedGasLimit": false
    },
    {
      "hash": "0x733f35f836cdc6a13803bc49505d9d3b0c970a4b4f99632519c22c449fc41207",
      "transactionType": "CALL",
      "contractName": "MockERC20",
      "contractAddress": "0xd3087192d3d721a6e727f06aa8364dfde240f317",
      "function": "approve(address,uint256)",
      "arguments": [
        "0x13dCa9b3DfFdF34d8949C9BAD3C61C2d792B4e38",
        "500000000"
      ],
      "transaction": {
        "from": "0x39053b170bbd9580d0b86e8317c685aefb65f1ec",
        "to": "0xd3087192d3d721a6e727f06aa8364dfde240f317",
        "gas": "0x10795",
        "value": "0x0",
        "input": "0x095ea7b300000000000000000000000013dca9b3dffdf34d8949c9bad3c61c2d792b4e38000000000000000000000000000000000000000000000000000000001dcd6500",
        "nonce": "0x448",
        "chainId": "0x14a34"
      },
      "additionalContracts": [],
      "isFixedGasLimit": false
    },
    {
      "hash": "0x10435cc8acb3255a805995bcc4739c89168067804eb2495e194a3b1881998ce1",
      "transactionType": "CALL",
      "contractName": "Escrow",
      "contractAddress": "0x13dca9b3dffdf34d8949c9bad3c61c2d792b4e38",
      "function": "batchDeposit((address,address,address,uint256,uint256)[],bytes)",
      "arguments": [
        "[(0xd3087192D3D721a6E727f06aa8364DfDE240f317, 0x39053B170bBD9580d0b86e8317c685aEFB65f1ec, 0x5C87eA705eE49a96532F45f5db606A5f5fEF9780, 100000000, 10000), (0xd3087192D3D721a6E727f06aa8364DfDE240f317, 0x39053B170bBD9580d0b86e8317c685aEFB65f1ec, 0x5C87eA705eE49a96532F45f5db606A5f5fEF9780, 100000000, 10000), (0xd3087192D3D721a6E727f06aa8364DfDE240f317, 0x39053B170bBD9580d0b86e8317c685aEFB65f1ec, 0x5C87eA705eE49a96532F45f5db606A5f5fEF9780, 100000000, 10000), (0xd3087192D3D721a6E727f06aa8364DfDE240f317, 0x39053B170bBD9580d0b86e8317c685aEFB65f1ec, 0x5C87eA705eE49a96532F45f5db606A5f5fEF9780, 100000000, 10000), (0xd3087192D3D721a6E727f06aa8364DfDE240f317, 0x39053B170bBD9580d0b86e8317c685aEFB65f1ec, 0x5C87eA705eE49a96532F45f5db606A5f5fEF9780, 100000000, 10000)]",
        "0x0000000000000000000000000000000000000000000000000000000000000001000000000000000000000000000000000000000000000000000000000000000000000000000000000000000000000000000000000000000000000000000000640000000000000000000000000000000000000000000000000000000068097baa"
      ],
      "transaction": {
        "from": "0x39053b170bbd9580d0b86e8317c685aefb65f1ec",
        "to": "0x13dca9b3dffdf34d8949c9bad3c61c2d792b4e38",
        "gas": "0x14667f",
        "value": "0x0",
        "input": "0x09245d85000000000000000000000000000000000000000000000000000000000000004000000000000000000000000000000000000000000000000000000000000003800000000000000000000000000000000000000000000000000000000000000005000000000000000000000000d3087192d3d721a6e727f06aa8364dfde240f31700000000000000000000000039053b170bbd9580d0b86e8317c685aefb65f1ec0000000000000000000000005c87ea705ee49a96532f45f5db606a5f5fef97800000000000000000000000000000000000000000000000000000000005f5e1000000000000000000000000000000000000000000000000000000000000002710000000000000000000000000d3087192d3d721a6e727f06aa8364dfde240f31700000000000000000000000039053b170bbd9580d0b86e8317c685aefb65f1ec0000000000000000000000005c87ea705ee49a96532f45f5db606a5f5fef97800000000000000000000000000000000000000000000000000000000005f5e1000000000000000000000000000000000000000000000000000000000000002710000000000000000000000000d3087192d3d721a6e727f06aa8364dfde240f31700000000000000000000000039053b170bbd9580d0b86e8317c685aefb65f1ec0000000000000000000000005c87ea705ee49a96532f45f5db606a5f5fef97800000000000000000000000000000000000000000000000000000000005f5e1000000000000000000000000000000000000000000000000000000000000002710000000000000000000000000d3087192d3d721a6e727f06aa8364dfde240f31700000000000000000000000039053b170bbd9580d0b86e8317c685aefb65f1ec0000000000000000000000005c87ea705ee49a96532f45f5db606a5f5fef97800000000000000000000000000000000000000000000000000000000005f5e1000000000000000000000000000000000000000000000000000000000000002710000000000000000000000000d3087192d3d721a6e727f06aa8364dfde240f31700000000000000000000000039053b170bbd9580d0b86e8317c685aefb65f1ec0000000000000000000000005c87ea705ee49a96532f45f5db606a5f5fef97800000000000000000000000000000000000000000000000000000000005f5e100000000000000000000000000000000000000000000000000000000000000271000000000000000000000000000000000000000000000000000000000000000800000000000000000000000000000000000000000000000000000000000000001000000000000000000000000000000000000000000000000000000000000000000000000000000000000000000000000000000000000000000000000000000640000000000000000000000000000000000000000000000000000000068097baa",
        "nonce": "0x449",
        "chainId": "0x14a34"
      },
      "additionalContracts": [],
      "isFixedGasLimit": false
    }
  ],
  "receipts": [
    {
      "status": "0x1",
      "cumulativeGasUsed": "0x1351d6",
      "logs": [],
      "logsBloom": "0x00000000000000000000000000000000000000000000000000000000000000000000000000000000000000000000000000000000000000000000000000000000000000000000000000000000000000000000000000000000000000000000000000000000000000000000000000000000000000000000000000000000000000000000000000000000000000000000000000000000000000000000000000000000000000000000000000000000000000000000000000000000000000000000000000000000000000000000000000000000000000000000000000000000000000000000000000000000000000000000000000000000000000000000000000000000",
      "type": "0x2",
      "transactionHash": "0xc171a7ff08c685376d97f1b30389c8fd493432e67287a984b40cde51578159e3",
      "transactionIndex": "0x5",
      "blockHash": "0x80386895fdf154df52a2da9ed6386f887140e06f4f89f0607fff911fdde84ae0",
      "blockNumber": "0x17b0e6b",
      "gasUsed": "0xb3c44",
      "effectiveGasPrice": "0xc8f4",
      "from": "0x39053b170bbd9580d0b86e8317c685aefb65f1ec",
      "to": null,
      "contractAddress": "0xd3087192d3d721a6e727f06aa8364dfde240f317",
      "l1BaseFeeScalar": "0x44d",
      "l1BlobBaseFee": "0x1",
      "l1BlobBaseFeeScalar": "0xa118b",
      "l1Fee": "0x1959",
      "l1GasPrice": "0x71",
      "l1GasUsed": "0x9908"
    },
    {
      "status": "0x1",
      "cumulativeGasUsed": "0x145cad",
      "logs": [
        {
          "address": "0xd3087192d3d721a6e727f06aa8364dfde240f317",
          "topics": [
            "0xddf252ad1be2c89b69c2b068fc378daa952ba7f163c4a11628f55a4df523b3ef",
            "0x0000000000000000000000000000000000000000000000000000000000000000",
            "0x0000000000000000000000005c87ea705ee49a96532f45f5db606a5f5fef9780"
          ],
          "data": "0x00000000000000000000000000000000000000000000000000005af3107a4000",
          "blockHash": "0x80386895fdf154df52a2da9ed6386f887140e06f4f89f0607fff911fdde84ae0",
          "blockNumber": "0x17b0e6b",
          "transactionHash": "0x6f7e8d4e1c5e674ba571dbbf7eb129268c363a634ec1d60d129f17640582767b",
          "transactionIndex": "0x6",
          "logIndex": "0x3",
          "removed": false
        }
      ],
      "logsBloom": "0x00000000000000000000000000000000000000000000000000000000000000000000000000000000000000000000100000000000008000000000000000000000000000000000000000000008000000000000000000000000000000000000000000000000020000000000000000000800000000000000000000000010020000000000000000000000000000000000000000000000000000000000000000000000000000000000000000000000000000000000000000000000000000000000000000000002000000000000000400000080000000000000000000000000000020000000000000000100000000000000000000000000000000000000000000000000",
      "type": "0x2",
      "transactionHash": "0x6f7e8d4e1c5e674ba571dbbf7eb129268c363a634ec1d60d129f17640582767b",
      "transactionIndex": "0x6",
      "blockHash": "0x80386895fdf154df52a2da9ed6386f887140e06f4f89f0607fff911fdde84ae0",
      "blockNumber": "0x17b0e6b",
      "gasUsed": "0x10ad7",
      "effectiveGasPrice": "0xc8f4",
      "from": "0x39053b170bbd9580d0b86e8317c685aefb65f1ec",
      "to": "0xd3087192d3d721a6e727f06aa8364dfde240f317",
      "contractAddress": null,
      "l1BaseFeeScalar": "0x44d",
      "l1BlobBaseFee": "0x1",
      "l1BlobBaseFeeScalar": "0xa118b",
      "l1Fee": "0x109",
      "l1GasPrice": "0x71",
      "l1GasUsed": "0x640"
    },
    {
      "status": "0x1",
      "cumulativeGasUsed": "0x14e1ec",
      "logs": [
        {
          "address": "0xd3087192d3d721a6e727f06aa8364dfde240f317",
          "topics": [
            "0xddf252ad1be2c89b69c2b068fc378daa952ba7f163c4a11628f55a4df523b3ef",
            "0x0000000000000000000000000000000000000000000000000000000000000000",
            "0x0000000000000000000000005c87ea705ee49a96532f45f5db606a5f5fef9780"
          ],
          "data": "0x00000000000000000000000000000000000000000000000000005af3107a4000",
          "blockHash": "0x80386895fdf154df52a2da9ed6386f887140e06f4f89f0607fff911fdde84ae0",
          "blockNumber": "0x17b0e6b",
          "transactionHash": "0x201033f7866da7604df15cc4cb844f542a5888d2fe5f82062a47f2729e0e7685",
          "transactionIndex": "0x7",
          "logIndex": "0x4",
          "removed": false
        }
      ],
      "logsBloom": "0x00000000000000000000000000000000000000000000000000000000000000000000000000000000000000000000100000000000008000000000000000000000000000000000000000000008000000000000000000000000000000000000000000000000020000000000000000000800000000000000000000000010020000000000000000000000000000000000000000000000000000000000000000000000000000000000000000000000000000000000000000000000000000000000000000000002000000000000000400000080000000000000000000000000000020000000000000000100000000000000000000000000000000000000000000000000",
      "type": "0x2",
      "transactionHash": "0x201033f7866da7604df15cc4cb844f542a5888d2fe5f82062a47f2729e0e7685",
      "transactionIndex": "0x7",
      "blockHash": "0x80386895fdf154df52a2da9ed6386f887140e06f4f89f0607fff911fdde84ae0",
      "blockNumber": "0x17b0e6b",
      "gasUsed": "0x853f",
      "effectiveGasPrice": "0xc8f4",
      "from": "0x39053b170bbd9580d0b86e8317c685aefb65f1ec",
      "to": "0xd3087192d3d721a6e727f06aa8364dfde240f317",
      "contractAddress": null,
      "l1BaseFeeScalar": "0x44d",
      "l1BlobBaseFee": "0x1",
      "l1BlobBaseFeeScalar": "0xa118b",
      "l1Fee": "0x109",
      "l1GasPrice": "0x71",
      "l1GasUsed": "0x640"
    },
    {
      "status": "0x1",
      "cumulativeGasUsed": "0x15a9f7",
      "logs": [
        {
          "address": "0xd3087192d3d721a6e727f06aa8364dfde240f317",
          "topics": [
            "0xddf252ad1be2c89b69c2b068fc378daa952ba7f163c4a11628f55a4df523b3ef",
            "0x0000000000000000000000000000000000000000000000000000000000000000",
            "0x00000000000000000000000039053b170bbd9580d0b86e8317c685aefb65f1ec"
          ],
          "data": "0x00000000000000000000000000000000000000000000000000005af3107a4000",
          "blockHash": "0x80386895fdf154df52a2da9ed6386f887140e06f4f89f0607fff911fdde84ae0",
          "blockNumber": "0x17b0e6b",
          "transactionHash": "0x711458133ba0ffecff2b165ebafec6fb5b68a299feab15a2b88dc387663bf43c",
          "transactionIndex": "0x8",
          "logIndex": "0x5",
          "removed": false
        }
      ],
      "logsBloom": "0x00000000000000000000000000000000000000000000000000000000000000000000000000001000000000000000100000000000000000000000000000000080000000000001000000000008000000000000000000000000000000000000000000000000020000000000000000000800000000000000000000000010020000000000000000000000000000000000000000000000000000000000000000000000000000000000000000000000000000000000000000000000000000000000000000000002000000000000000400000000000000000000000000000000000020000000000000000000000000000000000000000000000000000000000000000000",
      "type": "0x2",
      "transactionHash": "0x711458133ba0ffecff2b165ebafec6fb5b68a299feab15a2b88dc387663bf43c",
      "transactionIndex": "0x8",
      "blockHash": "0x80386895fdf154df52a2da9ed6386f887140e06f4f89f0607fff911fdde84ae0",
      "blockNumber": "0x17b0e6b",
      "gasUsed": "0xc80b",
      "effectiveGasPrice": "0xc8f4",
      "from": "0x39053b170bbd9580d0b86e8317c685aefb65f1ec",
      "to": "0xd3087192d3d721a6e727f06aa8364dfde240f317",
      "contractAddress": null,
      "l1BaseFeeScalar": "0x44d",
      "l1BlobBaseFee": "0x1",
      "l1BlobBaseFeeScalar": "0xa118b",
      "l1Fee": "0x109",
      "l1GasPrice": "0x71",
      "l1GasUsed": "0x640"
    },
    {
      "status": "0x1",
      "cumulativeGasUsed": "0x3bd37f",
      "logs": [
        {
          "address": "0x13dca9b3dffdf34d8949c9bad3c61c2d792b4e38",
          "topics": [
            "0x8be0079c531659141344cd1fd0a4f28419497f9722a3daafe3b4186f6b6457e0",
            "0x0000000000000000000000000000000000000000000000000000000000000000",
            "0x0000000000000000000000009d8a62f656a8d1615c1294fd71e9cfb3e4855a4f"
          ],
          "data": "0x",
          "blockHash": "0x80386895fdf154df52a2da9ed6386f887140e06f4f89f0607fff911fdde84ae0",
          "blockNumber": "0x17b0e6b",
          "transactionHash": "0xf2e59f5f95c41842b9eee1020824505ebc6d45faac1ff2dde9739d44b7e04871",
          "transactionIndex": "0xa",
          "logIndex": "0x8",
          "removed": false
        },
        {
          "address": "0x13dca9b3dffdf34d8949c9bad3c61c2d792b4e38",
          "topics": [
            "0x6a65f90b1a644d2faac467a21e07e50e3f8fa5846e26231d30ae79a417d3d262",
            "0x0000000000000000000000004200000000000000000000000000000000000006"
          ],
          "data": "0x",
          "blockHash": "0x80386895fdf154df52a2da9ed6386f887140e06f4f89f0607fff911fdde84ae0",
          "blockNumber": "0x17b0e6b",
          "transactionHash": "0xf2e59f5f95c41842b9eee1020824505ebc6d45faac1ff2dde9739d44b7e04871",
          "transactionIndex": "0xa",
          "logIndex": "0x9",
          "removed": false
        },
        {
          "address": "0x13dca9b3dffdf34d8949c9bad3c61c2d792b4e38",
          "topics": [
            "0x6a65f90b1a644d2faac467a21e07e50e3f8fa5846e26231d30ae79a417d3d262",
            "0x000000000000000000000000081827b8c3aa05287b5aa2bc3051fbe638f33152"
          ],
          "data": "0x",
          "blockHash": "0x80386895fdf154df52a2da9ed6386f887140e06f4f89f0607fff911fdde84ae0",
          "blockNumber": "0x17b0e6b",
          "transactionHash": "0xf2e59f5f95c41842b9eee1020824505ebc6d45faac1ff2dde9739d44b7e04871",
          "transactionIndex": "0xa",
          "logIndex": "0xa",
          "removed": false
        },
        {
          "address": "0x13dca9b3dffdf34d8949c9bad3c61c2d792b4e38",
          "topics": [
            "0x6a65f90b1a644d2faac467a21e07e50e3f8fa5846e26231d30ae79a417d3d262",
            "0x000000000000000000000000d3087192d3d721a6e727f06aa8364dfde240f317"
          ],
          "data": "0x",
          "blockHash": "0x80386895fdf154df52a2da9ed6386f887140e06f4f89f0607fff911fdde84ae0",
          "blockNumber": "0x17b0e6b",
          "transactionHash": "0xf2e59f5f95c41842b9eee1020824505ebc6d45faac1ff2dde9739d44b7e04871",
          "transactionIndex": "0xa",
          "logIndex": "0xb",
          "removed": false
        }
      ],
      "logsBloom": "0x00000000000080000000002000000000000000000000000040800000020000000000000000000000000000000000000000000040000000000020000000000000000000000000000000008000000000000001000000000000000000000000000000000000020002000000000000000800000010000000000000002000000000400008000000008000000000000000000000010000000000000000000000000000000000000000000000000000000000000000000000000000000000000000000000000000000004000000400000000000000000000000000000000000000020000000000000000000000040000002000000000000000000000001000000000000",
      "type": "0x2",
      "transactionHash": "0xf2e59f5f95c41842b9eee1020824505ebc6d45faac1ff2dde9739d44b7e04871",
      "transactionIndex": "0xa",
      "blockHash": "0x80386895fdf154df52a2da9ed6386f887140e06f4f89f0607fff911fdde84ae0",
      "blockNumber": "0x17b0e6b",
      "gasUsed": "0x249c57",
      "effectiveGasPrice": "0xc8f4",
      "from": "0x39053b170bbd9580d0b86e8317c685aefb65f1ec",
      "to": "0x4e59b44847b379578588920ca78fbf26c0b4956c",
      "contractAddress": "0x13dca9b3dffdf34d8949c9bad3c61c2d792b4e38",
      "l1BaseFeeScalar": "0x44d",
      "l1BlobBaseFee": "0x1",
      "l1BlobBaseFeeScalar": "0xa118b",
      "l1Fee": "0x3c87",
      "l1GasPrice": "0x71",
      "l1GasUsed": "0x16d65"
    },
    {
      "status": "0x1",
      "cumulativeGasUsed": "0x3c58a6",
      "logs": [
        {
          "address": "0xd3087192d3d721a6e727f06aa8364dfde240f317",
          "topics": [
            "0xddf252ad1be2c89b69c2b068fc378daa952ba7f163c4a11628f55a4df523b3ef",
            "0x0000000000000000000000000000000000000000000000000000000000000000",
            "0x00000000000000000000000039053b170bbd9580d0b86e8317c685aefb65f1ec"
          ],
          "data": "0x000000000000000000000000000000000000000000000000000000001dcd6500",
          "blockHash": "0x80386895fdf154df52a2da9ed6386f887140e06f4f89f0607fff911fdde84ae0",
          "blockNumber": "0x17b0e6b",
          "transactionHash": "0x20583e82f275f6ef116fd72b98cddf759afbd9ec0af4d5eeb84c098d73ef6d00",
          "transactionIndex": "0xb",
          "logIndex": "0xc",
          "removed": false
        }
      ],
      "logsBloom": "0x00000000000000000000000000000000000000000000000000000000000000000000000000001000000000000000100000000000000000000000000000000080000000000001000000000008000000000000000000000000000000000000000000000000020000000000000000000800000000000000000000000010020000000000000000000000000000000000000000000000000000000000000000000000000000000000000000000000000000000000000000000000000000000000000000000002000000000000000400000000000000000000000000000000000020000000000000000000000000000000000000000000000000000000000000000000",
      "type": "0x2",
      "transactionHash": "0x20583e82f275f6ef116fd72b98cddf759afbd9ec0af4d5eeb84c098d73ef6d00",
      "transactionIndex": "0xb",
      "blockHash": "0x80386895fdf154df52a2da9ed6386f887140e06f4f89f0607fff911fdde84ae0",
      "blockNumber": "0x17b0e6b",
      "gasUsed": "0x8527",
      "effectiveGasPrice": "0xc8f4",
      "from": "0x39053b170bbd9580d0b86e8317c685aefb65f1ec",
      "to": "0xd3087192d3d721a6e727f06aa8364dfde240f317",
      "contractAddress": null,
      "l1BaseFeeScalar": "0x44d",
      "l1BlobBaseFee": "0x1",
      "l1BlobBaseFeeScalar": "0xa118b",
      "l1Fee": "0x109",
      "l1GasPrice": "0x71",
      "l1GasUsed": "0x640"
    },
    {
      "status": "0x1",
      "cumulativeGasUsed": "0x3d0ce1",
      "logs": [
        {
          "address": "0xd3087192d3d721a6e727f06aa8364dfde240f317",
          "topics": [
            "0x8c5be1e5ebec7d5bd14f71427d1e84f3dd0314c0f7b2291e5b200ac8c7c3b925",
            "0x00000000000000000000000039053b170bbd9580d0b86e8317c685aefb65f1ec",
            "0x00000000000000000000000013dca9b3dffdf34d8949c9bad3c61c2d792b4e38"
          ],
          "data": "0x000000000000000000000000000000000000000000000000000000001dcd6500",
          "blockHash": "0x80386895fdf154df52a2da9ed6386f887140e06f4f89f0607fff911fdde84ae0",
          "blockNumber": "0x17b0e6b",
          "transactionHash": "0x733f35f836cdc6a13803bc49505d9d3b0c970a4b4f99632519c22c449fc41207",
          "transactionIndex": "0xc",
          "logIndex": "0xd",
          "removed": false
        }
      ],
      "logsBloom": "0x00000000000000000000000000000000000000000000000000000000000000000000000000001000000000000000100000200000000000000000000000200080000000000001000000000000000000000000000000000000200000000000000000000000000000000000000000000000000000000000000000000000020000000000000000000000000000000000000000000000000000000000000000000000020000000000000000000000000000000000000000000000000000000000000000000000000000000000000400000000000000000000000000000000000000000010000000000000000000000000000000000000000000000000000000000800",
      "type": "0x2",
      "transactionHash": "0x733f35f836cdc6a13803bc49505d9d3b0c970a4b4f99632519c22c449fc41207",
      "transactionIndex": "0xc",
      "blockHash": "0x80386895fdf154df52a2da9ed6386f887140e06f4f89f0607fff911fdde84ae0",
      "blockNumber": "0x17b0e6b",
      "gasUsed": "0xb43b",
      "effectiveGasPrice": "0xc8f4",
      "from": "0x39053b170bbd9580d0b86e8317c685aefb65f1ec",
      "to": "0xd3087192d3d721a6e727f06aa8364dfde240f317",
      "contractAddress": null,
      "l1BaseFeeScalar": "0x44d",
      "l1BlobBaseFee": "0x1",
      "l1BlobBaseFeeScalar": "0xa118b",
      "l1Fee": "0x109",
      "l1GasPrice": "0x71",
      "l1GasUsed": "0x640"
    },
    {
      "status": "0x1",
      "cumulativeGasUsed": "0x131f56",
      "logs": [
        {
          "address": "0xd3087192d3d721a6e727f06aa8364dfde240f317",
          "topics": [
            "0xddf252ad1be2c89b69c2b068fc378daa952ba7f163c4a11628f55a4df523b3ef",
            "0x00000000000000000000000039053b170bbd9580d0b86e8317c685aefb65f1ec",
            "0x00000000000000000000000013dca9b3dffdf34d8949c9bad3c61c2d792b4e38"
          ],
          "data": "0x0000000000000000000000000000000000000000000000000000000005f5e100",
          "blockHash": "0xc1ff83741b59903377236966c73afc747e1ae4986bfa3c75bbe86c4d55fa8b65",
          "blockNumber": "0x17b0e6c",
          "transactionHash": "0x10435cc8acb3255a805995bcc4739c89168067804eb2495e194a3b1881998ce1",
          "transactionIndex": "0x3",
          "logIndex": "0x4",
          "removed": false
        },
        {
          "address": "0x13dca9b3dffdf34d8949c9bad3c61c2d792b4e38",
          "topics": [
            "0x3f4cd7788cb8e67939a31fa08b0b2e7f086c4acd576d96199de6f42476a45e32",
            "0x0000000000000000000000000000000000000000000000000000000000000000",
            "0x000000000000000000000000d3087192d3d721a6e727f06aa8364dfde240f317",
            "0x0000000000000000000000005c87ea705ee49a96532f45f5db606a5f5fef9780"
          ],
          "data": "0x00000000000000000000000039053b170bbd9580d0b86e8317c685aefb65f1ec0000000000000000000000000000000000000000000000000000000005f5e1000000000000000000000000000000000000000000000000000000000000000000000000000000000000000000000000000000000000000000000000006809a2c8",
          "blockHash": "0xc1ff83741b59903377236966c73afc747e1ae4986bfa3c75bbe86c4d55fa8b65",
          "blockNumber": "0x17b0e6c",
          "transactionHash": "0x10435cc8acb3255a805995bcc4739c89168067804eb2495e194a3b1881998ce1",
          "transactionIndex": "0x3",
          "logIndex": "0x5",
          "removed": false
        },
        {
          "address": "0xd3087192d3d721a6e727f06aa8364dfde240f317",
          "topics": [
            "0xddf252ad1be2c89b69c2b068fc378daa952ba7f163c4a11628f55a4df523b3ef",
            "0x00000000000000000000000039053b170bbd9580d0b86e8317c685aefb65f1ec",
            "0x00000000000000000000000013dca9b3dffdf34d8949c9bad3c61c2d792b4e38"
          ],
          "data": "0x0000000000000000000000000000000000000000000000000000000005f5e100",
          "blockHash": "0xc1ff83741b59903377236966c73afc747e1ae4986bfa3c75bbe86c4d55fa8b65",
          "blockNumber": "0x17b0e6c",
          "transactionHash": "0x10435cc8acb3255a805995bcc4739c89168067804eb2495e194a3b1881998ce1",
          "transactionIndex": "0x3",
          "logIndex": "0x6",
          "removed": false
        },
        {
          "address": "0x13dca9b3dffdf34d8949c9bad3c61c2d792b4e38",
          "topics": [
            "0x3f4cd7788cb8e67939a31fa08b0b2e7f086c4acd576d96199de6f42476a45e32",
            "0x0000000000000000000000000000000000000000000000000000000000000001",
            "0x000000000000000000000000d3087192d3d721a6e727f06aa8364dfde240f317",
            "0x0000000000000000000000005c87ea705ee49a96532f45f5db606a5f5fef9780"
          ],
          "data": "0x00000000000000000000000039053b170bbd9580d0b86e8317c685aefb65f1ec0000000000000000000000000000000000000000000000000000000005f5e1000000000000000000000000000000000000000000000000000000000000000000000000000000000000000000000000000000000000000000000000006809a2c8",
          "blockHash": "0xc1ff83741b59903377236966c73afc747e1ae4986bfa3c75bbe86c4d55fa8b65",
          "blockNumber": "0x17b0e6c",
          "transactionHash": "0x10435cc8acb3255a805995bcc4739c89168067804eb2495e194a3b1881998ce1",
          "transactionIndex": "0x3",
          "logIndex": "0x7",
          "removed": false
        },
        {
          "address": "0xd3087192d3d721a6e727f06aa8364dfde240f317",
          "topics": [
            "0xddf252ad1be2c89b69c2b068fc378daa952ba7f163c4a11628f55a4df523b3ef",
            "0x00000000000000000000000039053b170bbd9580d0b86e8317c685aefb65f1ec",
            "0x00000000000000000000000013dca9b3dffdf34d8949c9bad3c61c2d792b4e38"
          ],
          "data": "0x0000000000000000000000000000000000000000000000000000000005f5e100",
          "blockHash": "0xc1ff83741b59903377236966c73afc747e1ae4986bfa3c75bbe86c4d55fa8b65",
          "blockNumber": "0x17b0e6c",
          "transactionHash": "0x10435cc8acb3255a805995bcc4739c89168067804eb2495e194a3b1881998ce1",
          "transactionIndex": "0x3",
          "logIndex": "0x8",
          "removed": false
        },
        {
          "address": "0x13dca9b3dffdf34d8949c9bad3c61c2d792b4e38",
          "topics": [
            "0x3f4cd7788cb8e67939a31fa08b0b2e7f086c4acd576d96199de6f42476a45e32",
            "0x0000000000000000000000000000000000000000000000000000000000000002",
            "0x000000000000000000000000d3087192d3d721a6e727f06aa8364dfde240f317",
            "0x0000000000000000000000005c87ea705ee49a96532f45f5db606a5f5fef9780"
          ],
          "data": "0x00000000000000000000000039053b170bbd9580d0b86e8317c685aefb65f1ec0000000000000000000000000000000000000000000000000000000005f5e1000000000000000000000000000000000000000000000000000000000000000000000000000000000000000000000000000000000000000000000000006809a2c8",
          "blockHash": "0xc1ff83741b59903377236966c73afc747e1ae4986bfa3c75bbe86c4d55fa8b65",
          "blockNumber": "0x17b0e6c",
          "transactionHash": "0x10435cc8acb3255a805995bcc4739c89168067804eb2495e194a3b1881998ce1",
          "transactionIndex": "0x3",
          "logIndex": "0x9",
          "removed": false
        },
        {
          "address": "0xd3087192d3d721a6e727f06aa8364dfde240f317",
          "topics": [
            "0xddf252ad1be2c89b69c2b068fc378daa952ba7f163c4a11628f55a4df523b3ef",
            "0x00000000000000000000000039053b170bbd9580d0b86e8317c685aefb65f1ec",
            "0x00000000000000000000000013dca9b3dffdf34d8949c9bad3c61c2d792b4e38"
          ],
          "data": "0x0000000000000000000000000000000000000000000000000000000005f5e100",
          "blockHash": "0xc1ff83741b59903377236966c73afc747e1ae4986bfa3c75bbe86c4d55fa8b65",
          "blockNumber": "0x17b0e6c",
          "transactionHash": "0x10435cc8acb3255a805995bcc4739c89168067804eb2495e194a3b1881998ce1",
          "transactionIndex": "0x3",
          "logIndex": "0xa",
          "removed": false
        },
        {
          "address": "0x13dca9b3dffdf34d8949c9bad3c61c2d792b4e38",
          "topics": [
            "0x3f4cd7788cb8e67939a31fa08b0b2e7f086c4acd576d96199de6f42476a45e32",
            "0x0000000000000000000000000000000000000000000000000000000000000003",
            "0x000000000000000000000000d3087192d3d721a6e727f06aa8364dfde240f317",
            "0x0000000000000000000000005c87ea705ee49a96532f45f5db606a5f5fef9780"
          ],
          "data": "0x00000000000000000000000039053b170bbd9580d0b86e8317c685aefb65f1ec0000000000000000000000000000000000000000000000000000000005f5e1000000000000000000000000000000000000000000000000000000000000000000000000000000000000000000000000000000000000000000000000006809a2c8",
          "blockHash": "0xc1ff83741b59903377236966c73afc747e1ae4986bfa3c75bbe86c4d55fa8b65",
          "blockNumber": "0x17b0e6c",
          "transactionHash": "0x10435cc8acb3255a805995bcc4739c89168067804eb2495e194a3b1881998ce1",
          "transactionIndex": "0x3",
          "logIndex": "0xb",
          "removed": false
        },
        {
          "address": "0xd3087192d3d721a6e727f06aa8364dfde240f317",
          "topics": [
            "0xddf252ad1be2c89b69c2b068fc378daa952ba7f163c4a11628f55a4df523b3ef",
            "0x00000000000000000000000039053b170bbd9580d0b86e8317c685aefb65f1ec",
            "0x00000000000000000000000013dca9b3dffdf34d8949c9bad3c61c2d792b4e38"
          ],
          "data": "0x0000000000000000000000000000000000000000000000000000000005f5e100",
          "blockHash": "0xc1ff83741b59903377236966c73afc747e1ae4986bfa3c75bbe86c4d55fa8b65",
          "blockNumber": "0x17b0e6c",
          "transactionHash": "0x10435cc8acb3255a805995bcc4739c89168067804eb2495e194a3b1881998ce1",
          "transactionIndex": "0x3",
          "logIndex": "0xc",
          "removed": false
        },
        {
          "address": "0x13dca9b3dffdf34d8949c9bad3c61c2d792b4e38",
          "topics": [
            "0x3f4cd7788cb8e67939a31fa08b0b2e7f086c4acd576d96199de6f42476a45e32",
            "0x0000000000000000000000000000000000000000000000000000000000000004",
            "0x000000000000000000000000d3087192d3d721a6e727f06aa8364dfde240f317",
            "0x0000000000000000000000005c87ea705ee49a96532f45f5db606a5f5fef9780"
          ],
          "data": "0x00000000000000000000000039053b170bbd9580d0b86e8317c685aefb65f1ec0000000000000000000000000000000000000000000000000000000005f5e1000000000000000000000000000000000000000000000000000000000000000000000000000000000000000000000000000000000000000000000000006809a2c8",
          "blockHash": "0xc1ff83741b59903377236966c73afc747e1ae4986bfa3c75bbe86c4d55fa8b65",
          "blockNumber": "0x17b0e6c",
          "transactionHash": "0x10435cc8acb3255a805995bcc4739c89168067804eb2495e194a3b1881998ce1",
          "transactionIndex": "0x3",
          "logIndex": "0xd",
          "removed": false
        },
        {
          "address": "0x13dca9b3dffdf34d8949c9bad3c61c2d792b4e38",
          "topics": [
            "0x8611408dd559d02a29ea33a41f0cc1d3cb4ad4cb7ec281498a0e4a8eff30e714",
            "0x0000000000000000000000000000000000000000000000000000000000000000"
          ],
          "data": "0x0000000000000000000000000000000000000000000000000000000000000040000000000000000000000000000000000000000000000000000000000000010000000000000000000000000000000000000000000000000000000000000000050000000000000000000000000000000000000000000000000000000000000000000000000000000000000000000000000000000000000000000000000000000100000000000000000000000000000000000000000000000000000000000000020000000000000000000000000000000000000000000000000000000000000003000000000000000000000000000000000000000000000000000000000000000400000000000000000000000000000000000000000000000000000000000000800000000000000000000000000000000000000000000000000000000000000001000000000000000000000000000000000000000000000000000000000000000000000000000000000000000000000000000000000000000000000000000000640000000000000000000000000000000000000000000000000000000068097baa",
          "blockHash": "0xc1ff83741b59903377236966c73afc747e1ae4986bfa3c75bbe86c4d55fa8b65",
          "blockNumber": "0x17b0e6c",
          "transactionHash": "0x10435cc8acb3255a805995bcc4739c89168067804eb2495e194a3b1881998ce1",
          "transactionIndex": "0x3",
          "logIndex": "0xe",
          "removed": false
        }
      ],
      "logsBloom": "0x04000000000080000000002000000000000000000010000000000000020000000000000000001000000000000000100000200000028000000000000000040080000000000001000000010008000000000000000000040000200000000000000008002000020000000000000000000800000000000000000000000010020000000008000000008008000000000000000000000000000000000000010000000000000000000000000000000100000000000000000000800000002000000000400000000002000000000000000400000080000000008000000000000000000060000000000000000100000000000002000000000000008000000000000008000800",
      "type": "0x2",
      "transactionHash": "0x10435cc8acb3255a805995bcc4739c89168067804eb2495e194a3b1881998ce1",
      "transactionIndex": "0x3",
      "blockHash": "0xc1ff83741b59903377236966c73afc747e1ae4986bfa3c75bbe86c4d55fa8b65",
      "blockNumber": "0x17b0e6c",
      "gasUsed": "0xec4ff",
      "effectiveGasPrice": "0xc8f4",
      "from": "0x39053b170bbd9580d0b86e8317c685aefb65f1ec",
      "to": "0x13dca9b3dffdf34d8949c9bad3c61c2d792b4e38",
      "contractAddress": null,
      "l1BaseFeeScalar": "0x44d",
      "l1BlobBaseFee": "0x1",
      "l1BlobBaseFeeScalar": "0xa118b",
      "l1Fee": "0x1e5",
      "l1GasPrice": "0x71",
      "l1GasUsed": "0xb74"
    }
  ],
  "libraries": [],
  "pending": [],
  "returns": {},
  "timestamp": 1745451994,
  "chain": 84532,
  "commit": "983f11c"
}