{
  "transactions": [
    {
      "hash": "0x8f7439f5f8ea3c4f8e6dbd61c92d257f20232b18cf04c42db7da137a8775ef86",
      "transactionType": "CALL",
      "contractName": null,
      "contractAddress": "0xfdde6a8e2959bc2010a8f68fdf96644af5f9487a",
      "function": "mint(address,uint256)",
      "arguments": [
        "0x39053B170bBD9580d0b86e8317c685aEFB65f1ec",
        "500000000"
      ],
      "transaction": {
        "from": "0x39053b170bbd9580d0b86e8317c685aefb65f1ec",
        "to": "0xfdde6a8e2959bc2010a8f68fdf96644af5f9487a",
        "gas": "0xb6df",
        "value": "0x0",
        "input": "0x40c10f1900000000000000000000000039053b170bbd9580d0b86e8317c685aefb65f1ec000000000000000000000000000000000000000000000000000000001dcd6500",
        "nonce": "0x97",
        "chainId": "0xaa36a7"
      },
      "additionalContracts": [],
      "isFixedGasLimit": false
    },
    {
      "hash": "0x5249d9a0f5a56ce8b1790f21d2543aced3fadc5db477ee1ffc7b548a7e89501f",
      "transactionType": "CALL",
      "contractName": null,
      "contractAddress": "0xfdde6a8e2959bc2010a8f68fdf96644af5f9487a",
      "function": "approve(address,uint256)",
      "arguments": [
        "0x9592CD4165d1FcaF5664C3E51d564DD3017d2b81",
        "500000000"
      ],
      "transaction": {
        "from": "0x39053b170bbd9580d0b86e8317c685aefb65f1ec",
        "to": "0xfdde6a8e2959bc2010a8f68fdf96644af5f9487a",
        "gas": "0xf7a7",
        "value": "0x0",
        "input": "0x095ea7b30000000000000000000000009592cd4165d1fcaf5664c3e51d564dd3017d2b81000000000000000000000000000000000000000000000000000000001dcd6500",
        "nonce": "0x98",
        "chainId": "0xaa36a7"
      },
      "additionalContracts": [],
      "isFixedGasLimit": false
    },
    {
      "hash": "0x9e4af94704312fea544e1b0aa61d188fc50f7206c9c37fee489039298c53803f",
      "transactionType": "CALL",
      "contractName": null,
      "contractAddress": "0x9592cd4165d1fcaf5664c3e51d564dd3017d2b81",
      "function": "batchDeposit((address,address,address,uint256,uint256)[],uint256,uint256)",
      "arguments": [
        "[(0xFdDe6A8E2959bC2010a8f68fDF96644AF5F9487A, 0x39053B170bBD9580d0b86e8317c685aEFB65f1ec, 0x5C87eA705eE49a96532F45f5db606A5f5fEF9780, 100000000, 10000), (0xFdDe6A8E2959bC2010a8f68fDF96644AF5F9487A, 0x39053B170bBD9580d0b86e8317c685aEFB65f1ec, 0x5C87eA705eE49a96532F45f5db606A5f5fEF9780, 100000000, 10000), (0xFdDe6A8E2959bC2010a8f68fDF96644AF5F9487A, 0x39053B170bBD9580d0b86e8317c685aEFB65f1ec, 0x5C87eA705eE49a96532F45f5db606A5f5fEF9780, 100000000, 10000), (0xFdDe6A8E2959bC2010a8f68fDF96644AF5F9487A, 0x39053B170bBD9580d0b86e8317c685aEFB65f1ec, 0x5C87eA705eE49a96532F45f5db606A5f5fEF9780, 100000000, 10000), (0xFdDe6A8E2959bC2010a8f68fDF96644AF5F9487A, 0x39053B170bBD9580d0b86e8317c685aEFB65f1ec, 0x5C87eA705eE49a96532F45f5db606A5f5fEF9780, 100000000, 10000)]",
        "5",
        "1744724964"
      ],
      "transaction": {
        "from": "0x39053b170bbd9580d0b86e8317c685aefb65f1ec",
        "to": "0x9592cd4165d1fcaf5664c3e51d564dd3017d2b81",
        "gas": "0x156bbd",
        "value": "0x0",
        "input": "0x487ac710000000000000000000000000000000000000000000000000000000000000006000000000000000000000000000000000000000000000000000000000000000050000000000000000000000000000000000000000000000000000000067fe63e40000000000000000000000000000000000000000000000000000000000000005000000000000000000000000fdde6a8e2959bc2010a8f68fdf96644af5f9487a00000000000000000000000039053b170bbd9580d0b86e8317c685aefb65f1ec0000000000000000000000005c87ea705ee49a96532f45f5db606a5f5fef97800000000000000000000000000000000000000000000000000000000005f5e1000000000000000000000000000000000000000000000000000000000000002710000000000000000000000000fdde6a8e2959bc2010a8f68fdf96644af5f9487a00000000000000000000000039053b170bbd9580d0b86e8317c685aefb65f1ec0000000000000000000000005c87ea705ee49a96532f45f5db606a5f5fef97800000000000000000000000000000000000000000000000000000000005f5e1000000000000000000000000000000000000000000000000000000000000002710000000000000000000000000fdde6a8e2959bc2010a8f68fdf96644af5f9487a00000000000000000000000039053b170bbd9580d0b86e8317c685aefb65f1ec0000000000000000000000005c87ea705ee49a96532f45f5db606a5f5fef97800000000000000000000000000000000000000000000000000000000005f5e1000000000000000000000000000000000000000000000000000000000000002710000000000000000000000000fdde6a8e2959bc2010a8f68fdf96644af5f9487a00000000000000000000000039053b170bbd9580d0b86e8317c685aefb65f1ec0000000000000000000000005c87ea705ee49a96532f45f5db606a5f5fef97800000000000000000000000000000000000000000000000000000000005f5e1000000000000000000000000000000000000000000000000000000000000002710000000000000000000000000fdde6a8e2959bc2010a8f68fdf96644af5f9487a00000000000000000000000039053b170bbd9580d0b86e8317c685aefb65f1ec0000000000000000000000005c87ea705ee49a96532f45f5db606a5f5fef97800000000000000000000000000000000000000000000000000000000005f5e1000000000000000000000000000000000000000000000000000000000000002710",
        "nonce": "0x99",
        "chainId": "0xaa36a7"
      },
      "additionalContracts": [],
      "isFixedGasLimit": false
    }
  ],
  "receipts": [
    {
      "status": "0x1",
      "cumulativeGasUsed": "0x158bf49",
      "logs": [
        {
          "address": "0xfdde6a8e2959bc2010a8f68fdf96644af5f9487a",
          "topics": [
            "0xddf252ad1be2c89b69c2b068fc378daa952ba7f163c4a11628f55a4df523b3ef",
            "0x0000000000000000000000000000000000000000000000000000000000000000",
            "0x00000000000000000000000039053b170bbd9580d0b86e8317c685aefb65f1ec"
          ],
          "data": "0x000000000000000000000000000000000000000000000000000000001dcd6500",
          "blockHash": "0xc1f9fb70d88196409fd71f9114d3684aa19dbd4e95c57a5cdee275768bb4dde1",
          "blockNumber": "0x7bf571",
          "transactionHash": "0x8f7439f5f8ea3c4f8e6dbd61c92d257f20232b18cf04c42db7da137a8775ef86",
          "transactionIndex": "0xdd",
          "logIndex": "0x1a8",
          "removed": false
        }
      ],
      "logsBloom": "0x00000000000000000000000000000000000000000000000000000000000000000000000000001000000000000000000000000000000000000000000000000080000000000001000000000008000000000000000000000000000000000000000000000000020000000000000010000800000000000000000000000010004000000000000000000000000000000000000000000000000000000000000000000000000000000000000000000000000000000000000000008000000000000000000000000002000000000000000000000000000000000000000000000000000020000000000000000000000000000000000000000000000000000000000000000000",
      "type": "0x2",
      "transactionHash": "0x8f7439f5f8ea3c4f8e6dbd61c92d257f20232b18cf04c42db7da137a8775ef86",
      "transactionIndex": "0xdd",
      "blockHash": "0xc1f9fb70d88196409fd71f9114d3684aa19dbd4e95c57a5cdee275768bb4dde1",
      "blockNumber": "0x7bf571",
      "gasUsed": "0x8466",
      "effectiveGasPrice": "0x270feb",
      "from": "0x39053b170bbd9580d0b86e8317c685aefb65f1ec",
      "to": "0xfdde6a8e2959bc2010a8f68fdf96644af5f9487a",
      "contractAddress": null
    },
    {
      "status": "0x1",
      "cumulativeGasUsed": "0x1597296",
      "logs": [
        {
          "address": "0xfdde6a8e2959bc2010a8f68fdf96644af5f9487a",
          "topics": [
            "0x8c5be1e5ebec7d5bd14f71427d1e84f3dd0314c0f7b2291e5b200ac8c7c3b925",
            "0x00000000000000000000000039053b170bbd9580d0b86e8317c685aefb65f1ec",
            "0x0000000000000000000000009592cd4165d1fcaf5664c3e51d564dd3017d2b81"
          ],
          "data": "0x000000000000000000000000000000000000000000000000000000001dcd6500",
          "blockHash": "0xc1f9fb70d88196409fd71f9114d3684aa19dbd4e95c57a5cdee275768bb4dde1",
          "blockNumber": "0x7bf571",
          "transactionHash": "0x5249d9a0f5a56ce8b1790f21d2543aced3fadc5db477ee1ffc7b548a7e89501f",
          "transactionIndex": "0xde",
          "logIndex": "0x1a9",
          "removed": false
        }
      ],
      "logsBloom": "0x00000000000000000000000002000000000000000000000000000000000000000000002000001000000000000000000000000000000000000000000000200080000000000001000010000000000000000000000000000000000000000000000000000000000000000000000010000000000000000000000000000000004000000000000000000000000000000000000000000000000000000000000000000000020000000000000000000000000000000000000000008000000000000000000000000000000000000000000000000000000000000000000000000000000000000010000000000000000000000000000000000000000000000000000000000000",
      "type": "0x2",
      "transactionHash": "0x5249d9a0f5a56ce8b1790f21d2543aced3fadc5db477ee1ffc7b548a7e89501f",
      "transactionIndex": "0xde",
      "blockHash": "0xc1f9fb70d88196409fd71f9114d3684aa19dbd4e95c57a5cdee275768bb4dde1",
      "blockNumber": "0x7bf571",
      "gasUsed": "0xb34d",
      "effectiveGasPrice": "0x270feb",
      "from": "0x39053b170bbd9580d0b86e8317c685aefb65f1ec",
      "to": "0xfdde6a8e2959bc2010a8f68fdf96644af5f9487a",
      "contractAddress": null
    },
    {
      "status": "0x1",
      "cumulativeGasUsed": "0x1681827",
      "logs": [
        {
          "address": "0xfdde6a8e2959bc2010a8f68fdf96644af5f9487a",
          "topics": [
            "0xddf252ad1be2c89b69c2b068fc378daa952ba7f163c4a11628f55a4df523b3ef",
            "0x00000000000000000000000039053b170bbd9580d0b86e8317c685aefb65f1ec",
            "0x0000000000000000000000009592cd4165d1fcaf5664c3e51d564dd3017d2b81"
          ],
          "data": "0x0000000000000000000000000000000000000000000000000000000005f5e100",
          "blockHash": "0xc1f9fb70d88196409fd71f9114d3684aa19dbd4e95c57a5cdee275768bb4dde1",
          "blockNumber": "0x7bf571",
          "transactionHash": "0x9e4af94704312fea544e1b0aa61d188fc50f7206c9c37fee489039298c53803f",
          "transactionIndex": "0xdf",
          "logIndex": "0x1aa",
          "removed": false
        },
        {
          "address": "0x9592cd4165d1fcaf5664c3e51d564dd3017d2b81",
          "topics": [
            "0x3f4cd7788cb8e67939a31fa08b0b2e7f086c4acd576d96199de6f42476a45e32",
            "0x0000000000000000000000000000000000000000000000000000000000000000",
            "0x000000000000000000000000fdde6a8e2959bc2010a8f68fdf96644af5f9487a",
            "0x0000000000000000000000005c87ea705ee49a96532f45f5db606a5f5fef9780"
          ],
          "data": "0x00000000000000000000000039053b170bbd9580d0b86e8317c685aefb65f1ec0000000000000000000000000000000000000000000000000000000005f5e10000000000000000000000000000000000000000000000000000000000000000000000000000000000000000000000000000000000000000000000000067fe8b0c",
          "blockHash": "0xc1f9fb70d88196409fd71f9114d3684aa19dbd4e95c57a5cdee275768bb4dde1",
          "blockNumber": "0x7bf571",
          "transactionHash": "0x9e4af94704312fea544e1b0aa61d188fc50f7206c9c37fee489039298c53803f",
          "transactionIndex": "0xdf",
          "logIndex": "0x1ab",
          "removed": false
        },
        {
          "address": "0xfdde6a8e2959bc2010a8f68fdf96644af5f9487a",
          "topics": [
            "0xddf252ad1be2c89b69c2b068fc378daa952ba7f163c4a11628f55a4df523b3ef",
            "0x00000000000000000000000039053b170bbd9580d0b86e8317c685aefb65f1ec",
            "0x0000000000000000000000009592cd4165d1fcaf5664c3e51d564dd3017d2b81"
          ],
          "data": "0x0000000000000000000000000000000000000000000000000000000005f5e100",
          "blockHash": "0xc1f9fb70d88196409fd71f9114d3684aa19dbd4e95c57a5cdee275768bb4dde1",
          "blockNumber": "0x7bf571",
          "transactionHash": "0x9e4af94704312fea544e1b0aa61d188fc50f7206c9c37fee489039298c53803f",
          "transactionIndex": "0xdf",
          "logIndex": "0x1ac",
          "removed": false
        },
        {
          "address": "0x9592cd4165d1fcaf5664c3e51d564dd3017d2b81",
          "topics": [
            "0x3f4cd7788cb8e67939a31fa08b0b2e7f086c4acd576d96199de6f42476a45e32",
            "0x0000000000000000000000000000000000000000000000000000000000000001",
            "0x000000000000000000000000fdde6a8e2959bc2010a8f68fdf96644af5f9487a",
            "0x0000000000000000000000005c87ea705ee49a96532f45f5db606a5f5fef9780"
          ],
          "data": "0x00000000000000000000000039053b170bbd9580d0b86e8317c685aefb65f1ec0000000000000000000000000000000000000000000000000000000005f5e10000000000000000000000000000000000000000000000000000000000000000000000000000000000000000000000000000000000000000000000000067fe8b0c",
          "blockHash": "0xc1f9fb70d88196409fd71f9114d3684aa19dbd4e95c57a5cdee275768bb4dde1",
          "blockNumber": "0x7bf571",
          "transactionHash": "0x9e4af94704312fea544e1b0aa61d188fc50f7206c9c37fee489039298c53803f",
          "transactionIndex": "0xdf",
          "logIndex": "0x1ad",
          "removed": false
        },
        {
          "address": "0xfdde6a8e2959bc2010a8f68fdf96644af5f9487a",
          "topics": [
            "0xddf252ad1be2c89b69c2b068fc378daa952ba7f163c4a11628f55a4df523b3ef",
            "0x00000000000000000000000039053b170bbd9580d0b86e8317c685aefb65f1ec",
            "0x0000000000000000000000009592cd4165d1fcaf5664c3e51d564dd3017d2b81"
          ],
          "data": "0x0000000000000000000000000000000000000000000000000000000005f5e100",
          "blockHash": "0xc1f9fb70d88196409fd71f9114d3684aa19dbd4e95c57a5cdee275768bb4dde1",
          "blockNumber": "0x7bf571",
          "transactionHash": "0x9e4af94704312fea544e1b0aa61d188fc50f7206c9c37fee489039298c53803f",
          "transactionIndex": "0xdf",
          "logIndex": "0x1ae",
          "removed": false
        },
        {
          "address": "0x9592cd4165d1fcaf5664c3e51d564dd3017d2b81",
          "topics": [
            "0x3f4cd7788cb8e67939a31fa08b0b2e7f086c4acd576d96199de6f42476a45e32",
            "0x0000000000000000000000000000000000000000000000000000000000000002",
            "0x000000000000000000000000fdde6a8e2959bc2010a8f68fdf96644af5f9487a",
            "0x0000000000000000000000005c87ea705ee49a96532f45f5db606a5f5fef9780"
          ],
          "data": "0x00000000000000000000000039053b170bbd9580d0b86e8317c685aefb65f1ec0000000000000000000000000000000000000000000000000000000005f5e10000000000000000000000000000000000000000000000000000000000000000000000000000000000000000000000000000000000000000000000000067fe8b0c",
          "blockHash": "0xc1f9fb70d88196409fd71f9114d3684aa19dbd4e95c57a5cdee275768bb4dde1",
          "blockNumber": "0x7bf571",
          "transactionHash": "0x9e4af94704312fea544e1b0aa61d188fc50f7206c9c37fee489039298c53803f",
          "transactionIndex": "0xdf",
          "logIndex": "0x1af",
          "removed": false
        },
        {
          "address": "0xfdde6a8e2959bc2010a8f68fdf96644af5f9487a",
          "topics": [
            "0xddf252ad1be2c89b69c2b068fc378daa952ba7f163c4a11628f55a4df523b3ef",
            "0x00000000000000000000000039053b170bbd9580d0b86e8317c685aefb65f1ec",
            "0x0000000000000000000000009592cd4165d1fcaf5664c3e51d564dd3017d2b81"
          ],
          "data": "0x0000000000000000000000000000000000000000000000000000000005f5e100",
          "blockHash": "0xc1f9fb70d88196409fd71f9114d3684aa19dbd4e95c57a5cdee275768bb4dde1",
          "blockNumber": "0x7bf571",
          "transactionHash": "0x9e4af94704312fea544e1b0aa61d188fc50f7206c9c37fee489039298c53803f",
          "transactionIndex": "0xdf",
          "logIndex": "0x1b0",
          "removed": false
        },
        {
          "address": "0x9592cd4165d1fcaf5664c3e51d564dd3017d2b81",
          "topics": [
            "0x3f4cd7788cb8e67939a31fa08b0b2e7f086c4acd576d96199de6f42476a45e32",
            "0x0000000000000000000000000000000000000000000000000000000000000003",
            "0x000000000000000000000000fdde6a8e2959bc2010a8f68fdf96644af5f9487a",
            "0x0000000000000000000000005c87ea705ee49a96532f45f5db606a5f5fef9780"
          ],
          "data": "0x00000000000000000000000039053b170bbd9580d0b86e8317c685aefb65f1ec0000000000000000000000000000000000000000000000000000000005f5e10000000000000000000000000000000000000000000000000000000000000000000000000000000000000000000000000000000000000000000000000067fe8b0c",
          "blockHash": "0xc1f9fb70d88196409fd71f9114d3684aa19dbd4e95c57a5cdee275768bb4dde1",
          "blockNumber": "0x7bf571",
          "transactionHash": "0x9e4af94704312fea544e1b0aa61d188fc50f7206c9c37fee489039298c53803f",
          "transactionIndex": "0xdf",
          "logIndex": "0x1b1",
          "removed": false
        },
        {
          "address": "0xfdde6a8e2959bc2010a8f68fdf96644af5f9487a",
          "topics": [
            "0xddf252ad1be2c89b69c2b068fc378daa952ba7f163c4a11628f55a4df523b3ef",
            "0x00000000000000000000000039053b170bbd9580d0b86e8317c685aefb65f1ec",
            "0x0000000000000000000000009592cd4165d1fcaf5664c3e51d564dd3017d2b81"
          ],
          "data": "0x0000000000000000000000000000000000000000000000000000000005f5e100",
          "blockHash": "0xc1f9fb70d88196409fd71f9114d3684aa19dbd4e95c57a5cdee275768bb4dde1",
          "blockNumber": "0x7bf571",
          "transactionHash": "0x9e4af94704312fea544e1b0aa61d188fc50f7206c9c37fee489039298c53803f",
          "transactionIndex": "0xdf",
          "logIndex": "0x1b2",
          "removed": false
        },
        {
          "address": "0x9592cd4165d1fcaf5664c3e51d564dd3017d2b81",
          "topics": [
            "0x3f4cd7788cb8e67939a31fa08b0b2e7f086c4acd576d96199de6f42476a45e32",
            "0x0000000000000000000000000000000000000000000000000000000000000004",
            "0x000000000000000000000000fdde6a8e2959bc2010a8f68fdf96644af5f9487a",
            "0x0000000000000000000000005c87ea705ee49a96532f45f5db606a5f5fef9780"
          ],
          "data": "0x00000000000000000000000039053b170bbd9580d0b86e8317c685aefb65f1ec0000000000000000000000000000000000000000000000000000000005f5e10000000000000000000000000000000000000000000000000000000000000000000000000000000000000000000000000000000000000000000000000067fe8b0c",
          "blockHash": "0xc1f9fb70d88196409fd71f9114d3684aa19dbd4e95c57a5cdee275768bb4dde1",
          "blockNumber": "0x7bf571",
          "transactionHash": "0x9e4af94704312fea544e1b0aa61d188fc50f7206c9c37fee489039298c53803f",
          "transactionIndex": "0xdf",
          "logIndex": "0x1b3",
          "removed": false
        },
        {
          "address": "0x9592cd4165d1fcaf5664c3e51d564dd3017d2b81",
          "topics": [
            "0x7e1ea62edbde4250aee6bb95aab6b49d52c804f651dc96bbb0b300983016eb8d",
            "0x0000000000000000000000000000000000000000000000000000000000000000"
          ],
          "data": "0x00000000000000000000000000000000000000000000000000000000000000050000000000000000000000000000000000000000000000000000000067fe63e40000000000000000000000000000000000000000000000000000000000000060000000000000000000000000000000000000000000000000000000000000000500000000000000000000000000000000000000000000000000000000000000000000000000000000000000000000000000000000000000000000000000000001000000000000000000000000000000000000000000000000000000000000000200000000000000000000000000000000000000000000000000000000000000030000000000000000000000000000000000000000000000000000000000000004",
          "blockHash": "0xc1f9fb70d88196409fd71f9114d3684aa19dbd4e95c57a5cdee275768bb4dde1",
          "blockNumber": "0x7bf571",
          "transactionHash": "0x9e4af94704312fea544e1b0aa61d188fc50f7206c9c37fee489039298c53803f",
          "transactionIndex": "0xdf",
          "logIndex": "0x1b4",
          "removed": false
        }
      ],
      "logsBloom": "0x04000000000000000000000002000000000000400000000000000000000000000000002000001000000000000000000000000000028000000100000000040080000000008001000010010008000400000000000000040000000000000000000008000000020000000000000010000800000000000000000000000010004000000000000000000008000000000000000000000000000000000000050000000000000000000000800000000100000000000000000000808000002000000000400000000002000000000000000000000080000000008000000000000008000060000008000000000100000000000000000000000000008000000000000000000000",
      "type": "0x2",
      "transactionHash": "0x9e4af94704312fea544e1b0aa61d188fc50f7206c9c37fee489039298c53803f",
      "transactionIndex": "0xdf",
      "blockHash": "0xc1f9fb70d88196409fd71f9114d3684aa19dbd4e95c57a5cdee275768bb4dde1",
      "blockNumber": "0x7bf571",
      "gasUsed": "0xea591",
      "effectiveGasPrice": "0x270feb",
      "from": "0x39053b170bbd9580d0b86e8317c685aefb65f1ec",
      "to": "0x9592cd4165d1fcaf5664c3e51d564dd3017d2b81",
      "contractAddress": null
    }
  ],
  "libraries": [],
  "pending": [],
  "returns": {},
  "timestamp": 1744724989,
  "chain": 11155111,
  "commit": "19dae92"
}