{
  "transactions": [
    {
      "hash": null,
      "transactionType": "CALL",
      "contractName": null,
      "contractAddress": "0x883066fabe2cc5b8f5dc626bf2eb47c6fbd4be03",
      "function": "mint(address,uint256)",
      "arguments": [
        "0x39053B170bBD9580d0b86e8317c685aEFB65f1ec",
        "500000000"
      ],
      "transaction": {
        "from": "0x39053b170bbd9580d0b86e8317c685aefb65f1ec",
        "to": "0x883066fabe2cc5b8f5dc626bf2eb47c6fbd4be03",
        "gas": "0xb6df",
        "value": "0x0",
        "input": "0x40c10f1900000000000000000000000039053b170bbd9580d0b86e8317c685aefb65f1ec000000000000000000000000000000000000000000000000000000001dcd6500",
        "nonce": "0x8f",
        "chainId": "0xaa36a7"
      },
      "additionalContracts": [],
      "isFixedGasLimit": false
    },
    {
      "hash": null,
      "transactionType": "CALL",
      "contractName": null,
      "contractAddress": "0x883066fabe2cc5b8f5dc626bf2eb47c6fbd4be03",
      "function": "approve(address,uint256)",
      "arguments": [
        "0x18578b0168D940623b89Dd0Be880fF994305Fd7e",
        "500000000"
      ],
      "transaction": {
        "from": "0x39053b170bbd9580d0b86e8317c685aefb65f1ec",
        "to": "0x883066fabe2cc5b8f5dc626bf2eb47c6fbd4be03",
        "gas": "0xf7a7",
        "value": "0x0",
        "input": "0x095ea7b300000000000000000000000018578b0168d940623b89dd0be880ff994305fd7e000000000000000000000000000000000000000000000000000000001dcd6500",
        "nonce": "0x90",
        "chainId": "0xaa36a7"
      },
      "additionalContracts": [],
      "isFixedGasLimit": false
    },
    {
      "hash": null,
      "transactionType": "CALL",
      "contractName": null,
      "contractAddress": "0x18578b0168d940623b89dd0be880ff994305fd7e",
      "function": "batchDeposit((address,address,address,uint256,uint256)[],uint256,uint256)",
      "arguments": [
        "[(0x883066fabE2CC5b8f5dC626bF2eb47C6FBD4BE03, 0x39053B170bBD9580d0b86e8317c685aEFB65f1ec, 0x5C87eA705eE49a96532F45f5db606A5f5fEF9780, 100000000, 10000), (0x883066fabE2CC5b8f5dC626bF2eb47C6FBD4BE03, 0x39053B170bBD9580d0b86e8317c685aEFB65f1ec, 0x5C87eA705eE49a96532F45f5db606A5f5fEF9780, 100000000, 10000), (0x883066fabE2CC5b8f5dC626bF2eb47C6FBD4BE03, 0x39053B170bBD9580d0b86e8317c685aEFB65f1ec, 0x5C87eA705eE49a96532F45f5db606A5f5fEF9780, 100000000, 10000), (0x883066fabE2CC5b8f5dC626bF2eb47C6FBD4BE03, 0x39053B170bBD9580d0b86e8317c685aEFB65f1ec, 0x5C87eA705eE49a96532F45f5db606A5f5fEF9780, 100000000, 10000), (0x883066fabE2CC5b8f5dC626bF2eb47C6FBD4BE03, 0x39053B170bBD9580d0b86e8317c685aEFB65f1ec, 0x5C87eA705eE49a96532F45f5db606A5f5fEF9780, 100000000, 10000)]",
        "5",
        "1744664184"
      ],
      "transaction": {
        "from": "0x39053b170bbd9580d0b86e8317c685aefb65f1ec",
        "to": "0x18578b0168d940623b89dd0be880ff994305fd7e",
        "gas": "0x146699",
        "value": "0x0",
        "input": "0x487ac710000000000000000000000000000000000000000000000000000000000000006000000000000000000000000000000000000000000000000000000000000000050000000000000000000000000000000000000000000000000000000067fd76780000000000000000000000000000000000000000000000000000000000000005000000000000000000000000883066fabe2cc5b8f5dc626bf2eb47c6fbd4be0300000000000000000000000039053b170bbd9580d0b86e8317c685aefb65f1ec0000000000000000000000005c87ea705ee49a96532f45f5db606a5f5fef97800000000000000000000000000000000000000000000000000000000005f5e1000000000000000000000000000000000000000000000000000000000000002710000000000000000000000000883066fabe2cc5b8f5dc626bf2eb47c6fbd4be0300000000000000000000000039053b170bbd9580d0b86e8317c685aefb65f1ec0000000000000000000000005c87ea705ee49a96532f45f5db606a5f5fef97800000000000000000000000000000000000000000000000000000000005f5e1000000000000000000000000000000000000000000000000000000000000002710000000000000000000000000883066fabe2cc5b8f5dc626bf2eb47c6fbd4be0300000000000000000000000039053b170bbd9580d0b86e8317c685aefb65f1ec0000000000000000000000005c87ea705ee49a96532f45f5db606a5f5fef97800000000000000000000000000000000000000000000000000000000005f5e1000000000000000000000000000000000000000000000000000000000000002710000000000000000000000000883066fabe2cc5b8f5dc626bf2eb47c6fbd4be0300000000000000000000000039053b170bbd9580d0b86e8317c685aefb65f1ec0000000000000000000000005c87ea705ee49a96532f45f5db606a5f5fef97800000000000000000000000000000000000000000000000000000000005f5e1000000000000000000000000000000000000000000000000000000000000002710000000000000000000000000883066fabe2cc5b8f5dc626bf2eb47c6fbd4be0300000000000000000000000039053b170bbd9580d0b86e8317c685aefb65f1ec0000000000000000000000005c87ea705ee49a96532f45f5db606a5f5fef97800000000000000000000000000000000000000000000000000000000005f5e1000000000000000000000000000000000000000000000000000000000000002710",
        "nonce": "0x91",
        "chainId": "0xaa36a7"
      },
      "additionalContracts": [],
      "isFixedGasLimit": false
    }
  ],
  "receipts": [],
  "libraries": [],
  "pending": [],
  "returns": {},
  "timestamp": 1744664199,
  "chain": 11155111,
  "commit": "ef57a28"
}