{
  "transactions": [
    {
      "hash": "0x198554ad0c204c181bedd5f2f0f138e385d93c2bf6640d6cf0de8a7f93f25e9f",
      "transactionType": "CALL",
      "contractName": null,
      "contractAddress": "0x883066fabe2cc5b8f5dc626bf2eb47c6fbd4be03",
      "function": "mint(address,uint256)",
      "arguments": [
        "0x39053B170bBD9580d0b86e8317c685aEFB65f1ec",
        "500000000"
      ],
      "transaction": {
        "from": "0x39053b170bbd9580d0b86e8317c685aefb65f1ec",
        "to": "0x883066fabe2cc5b8f5dc626bf2eb47c6fbd4be03",
        "gas": "0xb6df",
        "value": "0x0",
        "input": "0x40c10f1900000000000000000000000039053b170bbd9580d0b86e8317c685aefb65f1ec000000000000000000000000000000000000000000000000000000001dcd6500",
        "nonce": "0x8c",
        "chainId": "0xaa36a7"
      },
      "additionalContracts": [],
      "isFixedGasLimit": false
    },
    {
      "hash": "0xfc3aaceaa3a60c7d52115ab2a7c7df49d561b08793569a5f00507eed05d94890",
      "transactionType": "CALL",
      "contractName": null,
      "contractAddress": "0x883066fabe2cc5b8f5dc626bf2eb47c6fbd4be03",
      "function": "approve(address,uint256)",
      "arguments": [
        "0x18578b0168D940623b89Dd0Be880fF994305Fd7e",
        "500000000"
      ],
      "transaction": {
        "from": "0x39053b170bbd9580d0b86e8317c685aefb65f1ec",
        "to": "0x883066fabe2cc5b8f5dc626bf2eb47c6fbd4be03",
        "gas": "0xf7a7",
        "value": "0x0",
        "input": "0x095ea7b300000000000000000000000018578b0168d940623b89dd0be880ff994305fd7e000000000000000000000000000000000000000000000000000000001dcd6500",
        "nonce": "0x8d",
        "chainId": "0xaa36a7"
      },
      "additionalContracts": [],
      "isFixedGasLimit": false
    },
    {
      "hash": "0x2f6f471a5570b1eabc60379d253b6badda22e580ff1e29473c073170d292b677",
      "transactionType": "CALL",
      "contractName": null,
      "contractAddress": "0x18578b0168d940623b89dd0be880ff994305fd7e",
      "function": "batchDeposit((address,address,address,uint256,uint256)[],uint256,uint256)",
      "arguments": [
        "[(0x883066fabE2CC5b8f5dC626bF2eb47C6FBD4BE03, 0x39053B170bBD9580d0b86e8317c685aEFB65f1ec, 0x5C87eA705eE49a96532F45f5db606A5f5fEF9780, 100000000, 10000), (0x883066fabE2CC5b8f5dC626bF2eb47C6FBD4BE03, 0x39053B170bBD9580d0b86e8317c685aEFB65f1ec, 0x5C87eA705eE49a96532F45f5db606A5f5fEF9780, 100000000, 10000), (0x883066fabE2CC5b8f5dC626bF2eb47C6FBD4BE03, 0x39053B170bBD9580d0b86e8317c685aEFB65f1ec, 0x5C87eA705eE49a96532F45f5db606A5f5fEF9780, 100000000, 10000), (0x883066fabE2CC5b8f5dC626bF2eb47C6FBD4BE03, 0x39053B170bBD9580d0b86e8317c685aEFB65f1ec, 0x5C87eA705eE49a96532F45f5db606A5f5fEF9780, 100000000, 10000), (0x883066fabE2CC5b8f5dC626bF2eb47C6FBD4BE03, 0x39053B170bBD9580d0b86e8317c685aEFB65f1ec, 0x5C87eA705eE49a96532F45f5db606A5f5fEF9780, 100000000, 10000)]",
        "5",
        "1744663788"
      ],
      "transaction": {
        "from": "0x39053b170bbd9580d0b86e8317c685aefb65f1ec",
        "to": "0x18578b0168d940623b89dd0be880ff994305fd7e",
        "gas": "0x146699",
        "value": "0x0",
        "input": "0x487ac710000000000000000000000000000000000000000000000000000000000000006000000000000000000000000000000000000000000000000000000000000000050000000000000000000000000000000000000000000000000000000067fd74ec0000000000000000000000000000000000000000000000000000000000000005000000000000000000000000883066fabe2cc5b8f5dc626bf2eb47c6fbd4be0300000000000000000000000039053b170bbd9580d0b86e8317c685aefb65f1ec0000000000000000000000005c87ea705ee49a96532f45f5db606a5f5fef97800000000000000000000000000000000000000000000000000000000005f5e1000000000000000000000000000000000000000000000000000000000000002710000000000000000000000000883066fabe2cc5b8f5dc626bf2eb47c6fbd4be0300000000000000000000000039053b170bbd9580d0b86e8317c685aefb65f1ec0000000000000000000000005c87ea705ee49a96532f45f5db606a5f5fef97800000000000000000000000000000000000000000000000000000000005f5e1000000000000000000000000000000000000000000000000000000000000002710000000000000000000000000883066fabe2cc5b8f5dc626bf2eb47c6fbd4be0300000000000000000000000039053b170bbd9580d0b86e8317c685aefb65f1ec0000000000000000000000005c87ea705ee49a96532f45f5db606a5f5fef97800000000000000000000000000000000000000000000000000000000005f5e1000000000000000000000000000000000000000000000000000000000000002710000000000000000000000000883066fabe2cc5b8f5dc626bf2eb47c6fbd4be0300000000000000000000000039053b170bbd9580d0b86e8317c685aefb65f1ec0000000000000000000000005c87ea705ee49a96532f45f5db606a5f5fef97800000000000000000000000000000000000000000000000000000000005f5e1000000000000000000000000000000000000000000000000000000000000002710000000000000000000000000883066fabe2cc5b8f5dc626bf2eb47c6fbd4be0300000000000000000000000039053b170bbd9580d0b86e8317c685aefb65f1ec0000000000000000000000005c87ea705ee49a96532f45f5db606a5f5fef97800000000000000000000000000000000000000000000000000000000005f5e1000000000000000000000000000000000000000000000000000000000000002710",
        "nonce": "0x8e",
        "chainId": "0xaa36a7"
      },
      "additionalContracts": [],
      "isFixedGasLimit": false
    }
  ],
  "receipts": [
    {
      "status": "0x1",
      "cumulativeGasUsed": "0xb3fd53",
      "logs": [
        {
          "address": "0x883066fabe2cc5b8f5dc626bf2eb47c6fbd4be03",
          "topics": [
            "0xddf252ad1be2c89b69c2b068fc378daa952ba7f163c4a11628f55a4df523b3ef",
            "0x0000000000000000000000000000000000000000000000000000000000000000",
            "0x00000000000000000000000039053b170bbd9580d0b86e8317c685aefb65f1ec"
          ],
          "data": "0x000000000000000000000000000000000000000000000000000000001dcd6500",
          "blockHash": "0xe5d8deaadd4646bdc5a039984f826790ef1c14e2f0dffff4294e6344654a8b6b",
          "blockNumber": "0x7be33b",
          "transactionHash": "0x198554ad0c204c181bedd5f2f0f138e385d93c2bf6640d6cf0de8a7f93f25e9f",
          "transactionIndex": "0x34",
          "logIndex": "0x84",
          "removed": false
        }
      ],
      "logsBloom": "0x00000000000000000000000000000000000000000000000000000000000000000000000000001000000000000000000000000000000000000000000000000080000000000001000000000008000000000000000000000000000000000000000000000000020000000000000000000800000000000000000040000010000000000000000000000000000400000000000000000000000000000000000000000000000000000000000000000000000000040000000000000000000000000000000000000002000000000000000000000000000000000000000000000000000020000000000000000000000000000000000000000000000000000000000000000000",
      "type": "0x2",
      "transactionHash": "0x198554ad0c204c181bedd5f2f0f138e385d93c2bf6640d6cf0de8a7f93f25e9f",
      "transactionIndex": "0x34",
      "blockHash": "0xe5d8deaadd4646bdc5a039984f826790ef1c14e2f0dffff4294e6344654a8b6b",
      "blockNumber": "0x7be33b",
      "gasUsed": "0x8466",
      "effectiveGasPrice": "0x2faf27d",
      "from": "0x39053b170bbd9580d0b86e8317c685aefb65f1ec",
      "to": "0x883066fabe2cc5b8f5dc626bf2eb47c6fbd4be03",
      "contractAddress": null
    },
    {
      "status": "0x1",
      "cumulativeGasUsed": "0xb4b0a0",
      "logs": [
        {
          "address": "0x883066fabe2cc5b8f5dc626bf2eb47c6fbd4be03",
          "topics": [
            "0x8c5be1e5ebec7d5bd14f71427d1e84f3dd0314c0f7b2291e5b200ac8c7c3b925",
            "0x00000000000000000000000039053b170bbd9580d0b86e8317c685aefb65f1ec",
            "0x00000000000000000000000018578b0168d940623b89dd0be880ff994305fd7e"
          ],
          "data": "0x000000000000000000000000000000000000000000000000000000001dcd6500",
          "blockHash": "0xe5d8deaadd4646bdc5a039984f826790ef1c14e2f0dffff4294e6344654a8b6b",
          "blockNumber": "0x7be33b",
          "transactionHash": "0xfc3aaceaa3a60c7d52115ab2a7c7df49d561b08793569a5f00507eed05d94890",
          "transactionIndex": "0x35",
          "logIndex": "0x85",
          "removed": false
        }
      ],
      "logsBloom": "0x00000000000000000000000000000000000000000000000000000000000000000000000000001000000000000000000000000000000000000000000000200080000000000001000000000000000100000000000000000000020000000000000000000000000000000000000000000000000000000000000040000000000000000000000000000000000400000000000000000000000000000000000000000000020000000000000000000000000000040000000000000000000000000000000000000000000000000000000000000000000000000000000000000800000000000010000000000000000000000000000000000000000000000000000000000000",
      "type": "0x2",
      "transactionHash": "0xfc3aaceaa3a60c7d52115ab2a7c7df49d561b08793569a5f00507eed05d94890",
      "transactionIndex": "0x35",
      "blockHash": "0xe5d8deaadd4646bdc5a039984f826790ef1c14e2f0dffff4294e6344654a8b6b",
      "blockNumber": "0x7be33b",
      "gasUsed": "0xb34d",
      "effectiveGasPrice": "0x2faf27d",
      "from": "0x39053b170bbd9580d0b86e8317c685aefb65f1ec",
      "to": "0x883066fabe2cc5b8f5dc626bf2eb47c6fbd4be03",
      "contractAddress": null
    },
    {
      "status": "0x1",
      "cumulativeGasUsed": "0xc2a3a2",
      "logs": [
        {
          "address": "0x883066fabe2cc5b8f5dc626bf2eb47c6fbd4be03",
          "topics": [
            "0xddf252ad1be2c89b69c2b068fc378daa952ba7f163c4a11628f55a4df523b3ef",
            "0x00000000000000000000000039053b170bbd9580d0b86e8317c685aefb65f1ec",
            "0x00000000000000000000000018578b0168d940623b89dd0be880ff994305fd7e"
          ],
          "data": "0x0000000000000000000000000000000000000000000000000000000005f5e100",
          "blockHash": "0xe5d8deaadd4646bdc5a039984f826790ef1c14e2f0dffff4294e6344654a8b6b",
          "blockNumber": "0x7be33b",
          "transactionHash": "0x2f6f471a5570b1eabc60379d253b6badda22e580ff1e29473c073170d292b677",
          "transactionIndex": "0x36",
          "logIndex": "0x86",
          "removed": false
        },
        {
          "address": "0x18578b0168d940623b89dd0be880ff994305fd7e",
          "topics": [
            "0xd215716e37ba515c5aefacc78a77ef1ef551368192906fe9e0b3e9af240a0451",
            "0x0000000000000000000000000000000000000000000000000000000000000002",
            "0x000000000000000000000000883066fabe2cc5b8f5dc626bf2eb47c6fbd4be03",
            "0x0000000000000000000000005c87ea705ee49a96532f45f5db606a5f5fef9780"
          ],
          "data": "0x00000000000000000000000039053b170bbd9580d0b86e8317c685aefb65f1ec0000000000000000000000000000000000000000000000000000000005f5e1000000000000000000000000000000000000000000000000000000000067fd9c14",
          "blockHash": "0xe5d8deaadd4646bdc5a039984f826790ef1c14e2f0dffff4294e6344654a8b6b",
          "blockNumber": "0x7be33b",
          "transactionHash": "0x2f6f471a5570b1eabc60379d253b6badda22e580ff1e29473c073170d292b677",
          "transactionIndex": "0x36",
          "logIndex": "0x87",
          "removed": false
        },
        {
          "address": "0x883066fabe2cc5b8f5dc626bf2eb47c6fbd4be03",
          "topics": [
            "0xddf252ad1be2c89b69c2b068fc378daa952ba7f163c4a11628f55a4df523b3ef",
            "0x00000000000000000000000039053b170bbd9580d0b86e8317c685aefb65f1ec",
            "0x00000000000000000000000018578b0168d940623b89dd0be880ff994305fd7e"
          ],
          "data": "0x0000000000000000000000000000000000000000000000000000000005f5e100",
          "blockHash": "0xe5d8deaadd4646bdc5a039984f826790ef1c14e2f0dffff4294e6344654a8b6b",
          "blockNumber": "0x7be33b",
          "transactionHash": "0x2f6f471a5570b1eabc60379d253b6badda22e580ff1e29473c073170d292b677",
          "transactionIndex": "0x36",
          "logIndex": "0x88",
          "removed": false
        },
        {
          "address": "0x18578b0168d940623b89dd0be880ff994305fd7e",
          "topics": [
            "0xd215716e37ba515c5aefacc78a77ef1ef551368192906fe9e0b3e9af240a0451",
            "0x0000000000000000000000000000000000000000000000000000000000000003",
            "0x000000000000000000000000883066fabe2cc5b8f5dc626bf2eb47c6fbd4be03",
            "0x0000000000000000000000005c87ea705ee49a96532f45f5db606a5f5fef9780"
          ],
          "data": "0x00000000000000000000000039053b170bbd9580d0b86e8317c685aefb65f1ec0000000000000000000000000000000000000000000000000000000005f5e1000000000000000000000000000000000000000000000000000000000067fd9c14",
          "blockHash": "0xe5d8deaadd4646bdc5a039984f826790ef1c14e2f0dffff4294e6344654a8b6b",
          "blockNumber": "0x7be33b",
          "transactionHash": "0x2f6f471a5570b1eabc60379d253b6badda22e580ff1e29473c073170d292b677",
          "transactionIndex": "0x36",
          "logIndex": "0x89",
          "removed": false
        },
        {
          "address": "0x883066fabe2cc5b8f5dc626bf2eb47c6fbd4be03",
          "topics": [
            "0xddf252ad1be2c89b69c2b068fc378daa952ba7f163c4a11628f55a4df523b3ef",
            "0x00000000000000000000000039053b170bbd9580d0b86e8317c685aefb65f1ec",
            "0x00000000000000000000000018578b0168d940623b89dd0be880ff994305fd7e"
          ],
          "data": "0x0000000000000000000000000000000000000000000000000000000005f5e100",
          "blockHash": "0xe5d8deaadd4646bdc5a039984f826790ef1c14e2f0dffff4294e6344654a8b6b",
          "blockNumber": "0x7be33b",
          "transactionHash": "0x2f6f471a5570b1eabc60379d253b6badda22e580ff1e29473c073170d292b677",
          "transactionIndex": "0x36",
          "logIndex": "0x8a",
          "removed": false
        },
        {
          "address": "0x18578b0168d940623b89dd0be880ff994305fd7e",
          "topics": [
            "0xd215716e37ba515c5aefacc78a77ef1ef551368192906fe9e0b3e9af240a0451",
            "0x0000000000000000000000000000000000000000000000000000000000000004",
            "0x000000000000000000000000883066fabe2cc5b8f5dc626bf2eb47c6fbd4be03",
            "0x0000000000000000000000005c87ea705ee49a96532f45f5db606a5f5fef9780"
          ],
          "data": "0x00000000000000000000000039053b170bbd9580d0b86e8317c685aefb65f1ec0000000000000000000000000000000000000000000000000000000005f5e1000000000000000000000000000000000000000000000000000000000067fd9c14",
          "blockHash": "0xe5d8deaadd4646bdc5a039984f826790ef1c14e2f0dffff4294e6344654a8b6b",
          "blockNumber": "0x7be33b",
          "transactionHash": "0x2f6f471a5570b1eabc60379d253b6badda22e580ff1e29473c073170d292b677",
          "transactionIndex": "0x36",
          "logIndex": "0x8b",
          "removed": false
        },
        {
          "address": "0x883066fabe2cc5b8f5dc626bf2eb47c6fbd4be03",
          "topics": [
            "0xddf252ad1be2c89b69c2b068fc378daa952ba7f163c4a11628f55a4df523b3ef",
            "0x00000000000000000000000039053b170bbd9580d0b86e8317c685aefb65f1ec",
            "0x00000000000000000000000018578b0168d940623b89dd0be880ff994305fd7e"
          ],
          "data": "0x0000000000000000000000000000000000000000000000000000000005f5e100",
          "blockHash": "0xe5d8deaadd4646bdc5a039984f826790ef1c14e2f0dffff4294e6344654a8b6b",
          "blockNumber": "0x7be33b",
          "transactionHash": "0x2f6f471a5570b1eabc60379d253b6badda22e580ff1e29473c073170d292b677",
          "transactionIndex": "0x36",
          "logIndex": "0x8c",
          "removed": false
        },
        {
          "address": "0x18578b0168d940623b89dd0be880ff994305fd7e",
          "topics": [
            "0xd215716e37ba515c5aefacc78a77ef1ef551368192906fe9e0b3e9af240a0451",
            "0x0000000000000000000000000000000000000000000000000000000000000005",
            "0x000000000000000000000000883066fabe2cc5b8f5dc626bf2eb47c6fbd4be03",
            "0x0000000000000000000000005c87ea705ee49a96532f45f5db606a5f5fef9780"
          ],
          "data": "0x00000000000000000000000039053b170bbd9580d0b86e8317c685aefb65f1ec0000000000000000000000000000000000000000000000000000000005f5e1000000000000000000000000000000000000000000000000000000000067fd9c14",
          "blockHash": "0xe5d8deaadd4646bdc5a039984f826790ef1c14e2f0dffff4294e6344654a8b6b",
          "blockNumber": "0x7be33b",
          "transactionHash": "0x2f6f471a5570b1eabc60379d253b6badda22e580ff1e29473c073170d292b677",
          "transactionIndex": "0x36",
          "logIndex": "0x8d",
          "removed": false
        },
        {
          "address": "0x883066fabe2cc5b8f5dc626bf2eb47c6fbd4be03",
          "topics": [
            "0xddf252ad1be2c89b69c2b068fc378daa952ba7f163c4a11628f55a4df523b3ef",
            "0x00000000000000000000000039053b170bbd9580d0b86e8317c685aefb65f1ec",
            "0x00000000000000000000000018578b0168d940623b89dd0be880ff994305fd7e"
          ],
          "data": "0x0000000000000000000000000000000000000000000000000000000005f5e100",
          "blockHash": "0xe5d8deaadd4646bdc5a039984f826790ef1c14e2f0dffff4294e6344654a8b6b",
          "blockNumber": "0x7be33b",
          "transactionHash": "0x2f6f471a5570b1eabc60379d253b6badda22e580ff1e29473c073170d292b677",
          "transactionIndex": "0x36",
          "logIndex": "0x8e",
          "removed": false
        },
        {
          "address": "0x18578b0168d940623b89dd0be880ff994305fd7e",
          "topics": [
            "0xd215716e37ba515c5aefacc78a77ef1ef551368192906fe9e0b3e9af240a0451",
            "0x0000000000000000000000000000000000000000000000000000000000000006",
            "0x000000000000000000000000883066fabe2cc5b8f5dc626bf2eb47c6fbd4be03",
            "0x0000000000000000000000005c87ea705ee49a96532f45f5db606a5f5fef9780"
          ],
          "data": "0x00000000000000000000000039053b170bbd9580d0b86e8317c685aefb65f1ec0000000000000000000000000000000000000000000000000000000005f5e1000000000000000000000000000000000000000000000000000000000067fd9c14",
          "blockHash": "0xe5d8deaadd4646bdc5a039984f826790ef1c14e2f0dffff4294e6344654a8b6b",
          "blockNumber": "0x7be33b",
          "transactionHash": "0x2f6f471a5570b1eabc60379d253b6badda22e580ff1e29473c073170d292b677",
          "transactionIndex": "0x36",
          "logIndex": "0x8f",
          "removed": false
        },
        {
          "address": "0x18578b0168d940623b89dd0be880ff994305fd7e",
          "topics": [
            "0xc9d521fb3fcfc78c499b13d515d5297b6dc83d6143b459c768d3fe975521254c",
            "0x0000000000000000000000000000000000000000000000000000000000000002"
          ],
          "data": "0x00000000000000000000000000000000000000000000000000000000000000050000000000000000000000000000000000000000000000000000000067fd74ec0000000000000000000000000000000000000000000000000000000000000080000000000000000000000000000000000000000000000000000000001dcd6500000000000000000000000000000000000000000000000000000000000000000500000000000000000000000000000000000000000000000000000000000000020000000000000000000000000000000000000000000000000000000000000003000000000000000000000000000000000000000000000000000000000000000400000000000000000000000000000000000000000000000000000000000000050000000000000000000000000000000000000000000000000000000000000006",
          "blockHash": "0xe5d8deaadd4646bdc5a039984f826790ef1c14e2f0dffff4294e6344654a8b6b",
          "blockNumber": "0x7be33b",
          "transactionHash": "0x2f6f471a5570b1eabc60379d253b6badda22e580ff1e29473c073170d292b677",
          "transactionIndex": "0x36",
          "logIndex": "0x90",
          "removed": false
        }
      ],
      "logsBloom": "0x04000000200000000000000000000000000000000000000000000010000000000000000000001000000000000800000000000000028400000000000000000080000010000001000000000008000100000010000000000000020000000000000008000000000000000000000000000000000000000000000040000010000000010000000400080000000400000000001000000800000000000000000000000000010200000004000000000100000000040400000000800000002000080000400000000002001000000000000100000080000000008000000000000800000000000000000000000100000000000000000000000000008000000000000000000000",
      "type": "0x2",
      "transactionHash": "0x2f6f471a5570b1eabc60379d253b6badda22e580ff1e29473c073170d292b677",
      "transactionIndex": "0x36",
      "blockHash": "0xe5d8deaadd4646bdc5a039984f826790ef1c14e2f0dffff4294e6344654a8b6b",
      "blockNumber": "0x7be33b",
      "gasUsed": "0xdf302",
      "effectiveGasPrice": "0x2faf27d",
      "from": "0x39053b170bbd9580d0b86e8317c685aefb65f1ec",
      "to": "0x18578b0168d940623b89dd0be880ff994305fd7e",
      "contractAddress": null
    }
  ],
  "libraries": [],
  "pending": [],
  "returns": {},
  "timestamp": 1744663813,
  "chain": 11155111,
  "commit": "59cbdf0"
}