{
  "transactions": [
    {
      "hash": "0x866d840013b779a1e759cc0f6ce05a41517714896a1b02172258087e4a1cd0ac",
      "transactionType": "CALL",
      "contractName": null,
      "contractAddress": "0x883066fabe2cc5b8f5dc626bf2eb47c6fbd4be03",
      "function": "mint(address,uint256)",
      "arguments": [
        "0x39053B170bBD9580d0b86e8317c685aEFB65f1ec",
        "100000000"
      ],
      "transaction": {
        "from": "0x39053b170bbd9580d0b86e8317c685aefb65f1ec",
        "to": "0x883066fabe2cc5b8f5dc626bf2eb47c6fbd4be03",
        "gas": "0xb6df",
        "value": "0x0",
        "input": "0x40c10f1900000000000000000000000039053b170bbd9580d0b86e8317c685aefb65f1ec0000000000000000000000000000000000000000000000000000000005f5e100",
        "nonce": "0x86",
        "chainId": "0xaa36a7"
      },
      "additionalContracts": [],
      "isFixedGasLimit": false
    },
    {
      "hash": "0xe94a3d7ecdf35d4316ef3d711990218fcc79f3fcc6d9034aece1419352f4684f",
      "transactionType": "CALL",
      "contractName": null,
      "contractAddress": "0x883066fabe2cc5b8f5dc626bf2eb47c6fbd4be03",
      "function": "approve(address,uint256)",
      "arguments": [
        "0x18578b0168D940623b89Dd0Be880fF994305Fd7e",
        "100000000"
      ],
      "transaction": {
        "from": "0x39053b170bbd9580d0b86e8317c685aefb65f1ec",
        "to": "0x883066fabe2cc5b8f5dc626bf2eb47c6fbd4be03",
        "gas": "0xf7a7",
        "value": "0x0",
        "input": "0x095ea7b300000000000000000000000018578b0168d940623b89dd0be880ff994305fd7e0000000000000000000000000000000000000000000000000000000005f5e100",
        "nonce": "0x87",
        "chainId": "0xaa36a7"
      },
      "additionalContracts": [],
      "isFixedGasLimit": false
    },
    {
      "hash": "0xe3bc9cb15225f512dc199d9501322b1a785ff446c0dd8180d67feb2498de171f",
      "transactionType": "CALL",
      "contractName": null,
      "contractAddress": "0x18578b0168d940623b89dd0be880ff994305fd7e",
      "function": "batchDeposit((address,address,address,uint256,uint256)[],uint256,uint256)",
      "arguments": [
        "[(0x883066fabE2CC5b8f5dC626bF2eb47C6FBD4BE03, 0x39053B170bBD9580d0b86e8317c685aEFB65f1ec, 0x5C87eA705eE49a96532F45f5db606A5f5fEF9780, 100000000, 10000)]",
        "1",
        "1744663368"
      ],
      "transaction": {
        "from": "0x39053b170bbd9580d0b86e8317c685aefb65f1ec",
        "to": "0x18578b0168d940623b89dd0be880ff994305fd7e",
        "gas": "0x5d739",
        "value": "0x0",
        "input": "0x487ac710000000000000000000000000000000000000000000000000000000000000006000000000000000000000000000000000000000000000000000000000000000010000000000000000000000000000000000000000000000000000000067fd73480000000000000000000000000000000000000000000000000000000000000001000000000000000000000000883066fabe2cc5b8f5dc626bf2eb47c6fbd4be0300000000000000000000000039053b170bbd9580d0b86e8317c685aefb65f1ec0000000000000000000000005c87ea705ee49a96532f45f5db606a5f5fef97800000000000000000000000000000000000000000000000000000000005f5e1000000000000000000000000000000000000000000000000000000000000002710",
        "nonce": "0x88",
        "chainId": "0xaa36a7"
      },
      "additionalContracts": [],
      "isFixedGasLimit": false
    }
  ],
  "receipts": [
    {
      "status": "0x1",
      "cumulativeGasUsed": "0x1ed0ff5",
      "logs": [
        {
          "address": "0x883066fabe2cc5b8f5dc626bf2eb47c6fbd4be03",
          "topics": [
            "0xddf252ad1be2c89b69c2b068fc378daa952ba7f163c4a11628f55a4df523b3ef",
            "0x0000000000000000000000000000000000000000000000000000000000000000",
            "0x00000000000000000000000039053b170bbd9580d0b86e8317c685aefb65f1ec"
          ],
          "data": "0x0000000000000000000000000000000000000000000000000000000005f5e100",
          "blockHash": "0x438d0c02b67bc5e0e569d363bc26001217f373aaf898c3697a4bcb82b6276032",
          "blockNumber": "0x7be31b",
          "transactionHash": "0x866d840013b779a1e759cc0f6ce05a41517714896a1b02172258087e4a1cd0ac",
          "transactionIndex": "0xd4",
          "logIndex": "0x134",
          "removed": false
        }
      ],
      "logsBloom": "0x00000000000000000000000000000000000000000000000000000000000000000000000000001000000000000000000000000000000000000000000000000080000000000001000000000008000000000000000000000000000000000000000000000000020000000000000000000800000000000000000040000010000000000000000000000000000400000000000000000000000000000000000000000000000000000000000000000000000000040000000000000000000000000000000000000002000000000000000000000000000000000000000000000000000020000000000000000000000000000000000000000000000000000000000000000000",
      "type": "0x2",
      "transactionHash": "0x866d840013b779a1e759cc0f6ce05a41517714896a1b02172258087e4a1cd0ac",
      "transactionIndex": "0xd4",
      "blockHash": "0x438d0c02b67bc5e0e569d363bc26001217f373aaf898c3697a4bcb82b6276032",
      "blockNumber": "0x7be31b",
      "gasUsed": "0x8466",
      "effectiveGasPrice": "0xf4307",
      "from": "0x39053b170bbd9580d0b86e8317c685aefb65f1ec",
      "to": "0x883066fabe2cc5b8f5dc626bf2eb47c6fbd4be03",
      "contractAddress": null
    },
    {
      "status": "0x1",
      "cumulativeGasUsed": "0x1edc342",
      "logs": [
        {
          "address": "0x883066fabe2cc5b8f5dc626bf2eb47c6fbd4be03",
          "topics": [
            "0x8c5be1e5ebec7d5bd14f71427d1e84f3dd0314c0f7b2291e5b200ac8c7c3b925",
            "0x00000000000000000000000039053b170bbd9580d0b86e8317c685aefb65f1ec",
            "0x00000000000000000000000018578b0168d940623b89dd0be880ff994305fd7e"
          ],
          "data": "0x0000000000000000000000000000000000000000000000000000000005f5e100",
          "blockHash": "0x438d0c02b67bc5e0e569d363bc26001217f373aaf898c3697a4bcb82b6276032",
          "blockNumber": "0x7be31b",
          "transactionHash": "0xe94a3d7ecdf35d4316ef3d711990218fcc79f3fcc6d9034aece1419352f4684f",
          "transactionIndex": "0xd5",
          "logIndex": "0x135",
          "removed": false
        }
      ],
      "logsBloom": "0x00000000000000000000000000000000000000000000000000000000000000000000000000001000000000000000000000000000000000000000000000200080000000000001000000000000000100000000000000000000020000000000000000000000000000000000000000000000000000000000000040000000000000000000000000000000000400000000000000000000000000000000000000000000020000000000000000000000000000040000000000000000000000000000000000000000000000000000000000000000000000000000000000000800000000000010000000000000000000000000000000000000000000000000000000000000",
      "type": "0x2",
      "transactionHash": "0xe94a3d7ecdf35d4316ef3d711990218fcc79f3fcc6d9034aece1419352f4684f",
      "transactionIndex": "0xd5",
      "blockHash": "0x438d0c02b67bc5e0e569d363bc26001217f373aaf898c3697a4bcb82b6276032",
      "blockNumber": "0x7be31b",
      "gasUsed": "0xb34d",
      "effectiveGasPrice": "0xf4307",
      "from": "0x39053b170bbd9580d0b86e8317c685aefb65f1ec",
      "to": "0x883066fabe2cc5b8f5dc626bf2eb47c6fbd4be03",
      "contractAddress": null
    },
    {
      "status": "0x1",
      "cumulativeGasUsed": "0x1f1fdc6",
      "logs": [
        {
          "address": "0x883066fabe2cc5b8f5dc626bf2eb47c6fbd4be03",
          "topics": [
            "0xddf252ad1be2c89b69c2b068fc378daa952ba7f163c4a11628f55a4df523b3ef",
            "0x00000000000000000000000039053b170bbd9580d0b86e8317c685aefb65f1ec",
            "0x00000000000000000000000018578b0168d940623b89dd0be880ff994305fd7e"
          ],
          "data": "0x0000000000000000000000000000000000000000000000000000000005f5e100",
          "blockHash": "0x438d0c02b67bc5e0e569d363bc26001217f373aaf898c3697a4bcb82b6276032",
          "blockNumber": "0x7be31b",
          "transactionHash": "0xe3bc9cb15225f512dc199d9501322b1a785ff446c0dd8180d67feb2498de171f",
          "transactionIndex": "0xd6",
          "logIndex": "0x136",
          "removed": false
        },
        {
          "address": "0x18578b0168d940623b89dd0be880ff994305fd7e",
          "topics": [
            "0xd215716e37ba515c5aefacc78a77ef1ef551368192906fe9e0b3e9af240a0451",
            "0x0000000000000000000000000000000000000000000000000000000000000000",
            "0x000000000000000000000000883066fabe2cc5b8f5dc626bf2eb47c6fbd4be03",
            "0x0000000000000000000000005c87ea705ee49a96532f45f5db606a5f5fef9780"
          ],
          "data": "0x00000000000000000000000039053b170bbd9580d0b86e8317c685aefb65f1ec0000000000000000000000000000000000000000000000000000000005f5e1000000000000000000000000000000000000000000000000000000000067fd9a7c",
          "blockHash": "0x438d0c02b67bc5e0e569d363bc26001217f373aaf898c3697a4bcb82b6276032",
          "blockNumber": "0x7be31b",
          "transactionHash": "0xe3bc9cb15225f512dc199d9501322b1a785ff446c0dd8180d67feb2498de171f",
          "transactionIndex": "0xd6",
          "logIndex": "0x137",
          "removed": false
        },
        {
          "address": "0x18578b0168d940623b89dd0be880ff994305fd7e",
          "topics": [
            "0xc9d521fb3fcfc78c499b13d515d5297b6dc83d6143b459c768d3fe975521254c",
            "0x0000000000000000000000000000000000000000000000000000000000000000"
          ],
          "data": "0x00000000000000000000000000000000000000000000000000000000000000010000000000000000000000000000000000000000000000000000000067fd734800000000000000000000000000000000000000000000000000000000000000800000000000000000000000000000000000000000000000000000000005f5e10000000000000000000000000000000000000000000000000000000000000000010000000000000000000000000000000000000000000000000000000000000000",
          "blockHash": "0x438d0c02b67bc5e0e569d363bc26001217f373aaf898c3697a4bcb82b6276032",
          "blockNumber": "0x7be31b",
          "transactionHash": "0xe3bc9cb15225f512dc199d9501322b1a785ff446c0dd8180d67feb2498de171f",
          "transactionIndex": "0xd6",
          "logIndex": "0x138",
          "removed": false
        }
      ],
      "logsBloom": "0x00000000200000000000000000000000000000000000000000000010000000000000000000001000000000000800000000000000008000000000000000000080000000000001000000000008000100000010000000000000020000000000000000000000020000000000000000000800000000000000000040000010000000010000000000080000000400000000000000000000000000000000000000000000010200000004000000000000000000040400000000000000000000000000000000000002001000000000000100000080000000000000000000000800000020000000000000000100000000000000000000000000000000000000000000000000",
      "type": "0x2",
      "transactionHash": "0xe3bc9cb15225f512dc199d9501322b1a785ff446c0dd8180d67feb2498de171f",
      "transactionIndex": "0xd6",
      "blockHash": "0x438d0c02b67bc5e0e569d363bc26001217f373aaf898c3697a4bcb82b6276032",
      "blockNumber": "0x7be31b",
      "gasUsed": "0x43a84",
      "effectiveGasPrice": "0xf4307",
      "from": "0x39053b170bbd9580d0b86e8317c685aefb65f1ec",
      "to": "0x18578b0168d940623b89dd0be880ff994305fd7e",
      "contractAddress": null
    }
  ],
  "libraries": [],
  "pending": [],
  "returns": {},
  "timestamp": 1744663404,
  "chain": 11155111,
  "commit": "43f5011"
}